{
  "abi": [
    {
      "inputs": [],
      "name": "AccountAlreadyAllowListed",
      "type": "error"
    },
    {
      "inputs": [],
      "name": "AccountNotAllowListed",
      "type": "error"
    },
    {
      "inputs": [],
      "name": "AllowListAmountExceeded",
      "type": "error"
    },
    {
      "inputs": [],
      "name": "AllowListDisabled",
      "type": "error"
    },
    {
      "inputs": [],
      "name": "AllowListEnabled",
      "type": "error"
    },
    {
      "inputs": [],
      "name": "AllowListMintUnopened",
      "type": "error"
    },
    {
      "inputs": [],
      "name": "ArrayLengthsDiffer",
      "type": "error"
    },
    {
      "inputs": [],
      "name": "ERC1155Base__ArrayLengthMismatch",
      "type": "error"
    },
    {
      "inputs": [],
      "name": "ERC1155Base__BalanceQueryZeroAddress",
      "type": "error"
    },
    {
      "inputs": [],
      "name": "ERC1155Base__BurnExceedsBalance",
      "type": "error"
    },
    {
      "inputs": [],
      "name": "ERC1155Base__BurnFromZeroAddress",
      "type": "error"
    },
    {
      "inputs": [],
      "name": "ERC1155Base__ERC1155ReceiverNotImplemented",
      "type": "error"
    },
    {
      "inputs": [],
      "name": "ERC1155Base__ERC1155ReceiverRejected",
      "type": "error"
    },
    {
      "inputs": [],
      "name": "ERC1155Base__MintToZeroAddress",
      "type": "error"
    },
    {
      "inputs": [],
      "name": "ERC1155Base__NotOwnerOrApproved",
      "type": "error"
    },
    {
      "inputs": [],
      "name": "ERC1155Base__SelfApproval",
      "type": "error"
    },
    {
      "inputs": [],
      "name": "ERC1155Base__TransferExceedsBalance",
      "type": "error"
    },
    {
      "inputs": [],
      "name": "ERC1155Base__TransferToZeroAddress",
      "type": "error"
    },
    {
      "inputs": [],
      "name": "ERC165Base__InvalidInterfaceId",
      "type": "error"
    },
    {
      "inputs": [],
      "name": "EnumerableSet__IndexOutOfBounds",
      "type": "error"
    },
    {
      "inputs": [],
      "name": "ExceedsMaxSupply",
      "type": "error"
    },
    {
      "inputs": [],
      "name": "InvalidAmount",
      "type": "error"
    },
    {
      "inputs": [],
      "name": "InvalidMaxSupply",
      "type": "error"
    },
    {
      "inputs": [],
      "name": "InvalidMintType",
      "type": "error"
    },
    {
      "inputs": [],
      "name": "InvalidTokenID",
      "type": "error"
    },
    {
      "inputs": [],
      "name": "MintNotOpen",
      "type": "error"
    },
    {
      "inputs": [],
      "name": "NotOnAllowList",
      "type": "error"
    },
    {
      "inputs": [],
      "name": "NotOwner",
      "type": "error"
    },
    {
      "inputs": [
        {
          "internalType": "address",
          "name": "operator",
          "type": "address"
        }
      ],
      "name": "OperatorNotAllowed",
      "type": "error"
    },
    {
      "inputs": [],
      "name": "Ownable__NotOwner",
      "type": "error"
    },
    {
      "inputs": [],
      "name": "Ownable__NotTransitiveOwner",
      "type": "error"
    },
    {
      "inputs": [],
      "name": "Pausable__NotPaused",
      "type": "error"
    },
    {
      "inputs": [],
      "name": "Pausable__Paused",
      "type": "error"
    },
    {
      "anonymous": false,
      "inputs": [
        {
          "indexed": false,
          "internalType": "address",
          "name": "account",
          "type": "address"
        },
        {
          "indexed": false,
          "internalType": "uint256",
          "name": "allowance",
          "type": "uint256"
        }
      ],
      "name": "AllowListAdded",
      "type": "event"
    },
    {
      "anonymous": false,
      "inputs": [
        {
          "indexed": false,
          "internalType": "address[]",
          "name": "accounts",
          "type": "address[]"
        },
        {
          "indexed": false,
          "internalType": "uint256",
          "name": "allowance",
          "type": "uint256"
        }
      ],
      "name": "AllowListAdded",
      "type": "event"
    },
    {
      "anonymous": false,
      "inputs": [
        {
          "indexed": false,
          "internalType": "uint256",
          "name": "tokenId",
          "type": "uint256"
        },
        {
          "indexed": false,
          "internalType": "address",
          "name": "account",
          "type": "address"
        },
        {
          "indexed": false,
          "internalType": "uint256",
          "name": "allowance",
          "type": "uint256"
        }
      ],
      "name": "AllowListAdded",
      "type": "event"
    },
    {
      "anonymous": false,
      "inputs": [
        {
          "indexed": false,
          "internalType": "uint256",
          "name": "tokenId",
          "type": "uint256"
        },
        {
          "indexed": false,
          "internalType": "address[]",
          "name": "accounts",
          "type": "address[]"
        },
        {
          "indexed": false,
          "internalType": "uint256",
          "name": "allowance",
          "type": "uint256"
        }
      ],
      "name": "AllowListAdded",
      "type": "event"
    },
    {
      "anonymous": false,
      "inputs": [
        {
          "indexed": false,
          "internalType": "address",
          "name": "account",
          "type": "address"
        }
      ],
      "name": "AllowListRemoved",
      "type": "event"
    },
    {
      "anonymous": false,
      "inputs": [
        {
          "indexed": false,
          "internalType": "address[]",
          "name": "accounts",
          "type": "address[]"
        }
      ],
      "name": "AllowListRemoved",
      "type": "event"
    },
    {
      "anonymous": false,
      "inputs": [
        {
          "indexed": false,
          "internalType": "uint256",
          "name": "tokenId",
          "type": "uint256"
        },
        {
          "indexed": false,
          "internalType": "address",
          "name": "account",
          "type": "address"
        }
      ],
      "name": "AllowListRemoved",
      "type": "event"
    },
    {
      "anonymous": false,
      "inputs": [
        {
          "indexed": false,
          "internalType": "uint256",
          "name": "tokenId",
          "type": "uint256"
        },
        {
          "indexed": false,
          "internalType": "address[]",
          "name": "accounts",
          "type": "address[]"
        }
      ],
      "name": "AllowListRemoved",
      "type": "event"
    },
    {
      "anonymous": false,
      "inputs": [
        {
          "indexed": false,
          "internalType": "bool",
          "name": "status",
          "type": "bool"
        }
      ],
      "name": "AllowListStatus",
      "type": "event"
    },
    {
      "anonymous": false,
      "inputs": [
        {
          "indexed": false,
          "internalType": "uint256",
          "name": "tokenId",
          "type": "uint256"
        },
        {
          "indexed": false,
          "internalType": "bool",
          "name": "status",
          "type": "bool"
        }
      ],
      "name": "AllowListStatus",
      "type": "event"
    },
    {
      "anonymous": false,
      "inputs": [
        {
          "indexed": true,
          "internalType": "address",
          "name": "account",
          "type": "address"
        },
        {
          "indexed": true,
          "internalType": "address",
          "name": "operator",
          "type": "address"
        },
        {
          "indexed": false,
          "internalType": "bool",
          "name": "approved",
          "type": "bool"
        }
      ],
      "name": "ApprovalForAll",
      "type": "event"
    },
    {
      "anonymous": false,
      "inputs": [
        {
          "indexed": true,
          "internalType": "address",
          "name": "previousOwner",
          "type": "address"
        },
        {
          "indexed": true,
          "internalType": "address",
          "name": "newOwner",
          "type": "address"
        }
      ],
      "name": "OwnershipTransferred",
      "type": "event"
    },
    {
      "anonymous": false,
      "inputs": [
        {
          "indexed": false,
          "internalType": "address",
          "name": "account",
          "type": "address"
        }
      ],
      "name": "Paused",
      "type": "event"
    },
    {
      "anonymous": false,
      "inputs": [
        {
          "indexed": false,
          "internalType": "address",
          "name": "from",
          "type": "address"
        },
        {
          "indexed": false,
          "internalType": "uint256",
          "name": "amount",
          "type": "uint256"
        }
      ],
      "name": "PaymentReceived",
      "type": "event"
    },
    {
      "anonymous": false,
      "inputs": [
        {
          "indexed": true,
          "internalType": "address",
          "name": "operator",
          "type": "address"
        },
        {
          "indexed": true,
          "internalType": "address",
          "name": "from",
          "type": "address"
        },
        {
          "indexed": true,
          "internalType": "address",
          "name": "to",
          "type": "address"
        },
        {
          "indexed": false,
          "internalType": "uint256[]",
          "name": "ids",
          "type": "uint256[]"
        },
        {
          "indexed": false,
          "internalType": "uint256[]",
          "name": "values",
          "type": "uint256[]"
        }
      ],
      "name": "TransferBatch",
      "type": "event"
    },
    {
      "anonymous": false,
      "inputs": [
        {
          "indexed": true,
          "internalType": "address",
          "name": "operator",
          "type": "address"
        },
        {
          "indexed": true,
          "internalType": "address",
          "name": "from",
          "type": "address"
        },
        {
          "indexed": true,
          "internalType": "address",
          "name": "to",
          "type": "address"
        },
        {
          "indexed": false,
          "internalType": "uint256",
          "name": "id",
          "type": "uint256"
        },
        {
          "indexed": false,
          "internalType": "uint256",
          "name": "value",
          "type": "uint256"
        }
      ],
      "name": "TransferSingle",
      "type": "event"
    },
    {
      "anonymous": false,
      "inputs": [
        {
          "indexed": false,
          "internalType": "string",
          "name": "_value",
          "type": "string"
        },
        {
          "indexed": true,
          "internalType": "uint256",
          "name": "_id",
          "type": "uint256"
        }
      ],
      "name": "URI",
      "type": "event"
    },
    {
      "anonymous": false,
      "inputs": [
        {
          "indexed": false,
          "internalType": "string",
          "name": "value",
          "type": "string"
        },
        {
          "indexed": true,
          "internalType": "uint256",
          "name": "tokenId",
          "type": "uint256"
        }
      ],
      "name": "URI",
      "type": "event"
    },
    {
      "anonymous": false,
      "inputs": [
        {
          "indexed": false,
          "internalType": "address",
          "name": "account",
          "type": "address"
        }
      ],
      "name": "Unpaused",
      "type": "event"
    },
    {
      "inputs": [],
      "name": "OPERATOR_FILTER_REGISTRY",
      "outputs": [
        {
          "internalType": "contract IOperatorFilterRegistry",
          "name": "",
          "type": "address"
        }
      ],
      "stateMutability": "view",
      "type": "function"
    },
    {
      "inputs": [
        {
          "internalType": "uint256",
          "name": "id",
          "type": "uint256"
        }
      ],
      "name": "accountsByToken",
      "outputs": [
        {
          "internalType": "address[]",
          "name": "",
          "type": "address[]"
        }
      ],
      "stateMutability": "view",
      "type": "function"
    },
    {
      "inputs": [
        {
          "internalType": "address",
          "name": "account",
          "type": "address"
        },
        {
          "internalType": "uint256",
          "name": "id",
          "type": "uint256"
        }
      ],
      "name": "balanceOf",
      "outputs": [
        {
          "internalType": "uint256",
          "name": "",
          "type": "uint256"
        }
      ],
      "stateMutability": "view",
      "type": "function"
    },
    {
      "inputs": [
        {
          "internalType": "address[]",
          "name": "accounts",
          "type": "address[]"
        },
        {
          "internalType": "uint256[]",
          "name": "ids",
          "type": "uint256[]"
        }
      ],
      "name": "balanceOfBatch",
      "outputs": [
        {
          "internalType": "uint256[]",
          "name": "",
          "type": "uint256[]"
        }
      ],
      "stateMutability": "view",
      "type": "function"
    },
    {
      "inputs": [
        {
          "internalType": "uint256",
          "name": "_amount",
          "type": "uint256"
        },
        {
          "components": [
            {
              "internalType": "uint256",
              "name": "maxSupply",
              "type": "uint256"
            },
            {
              "internalType": "uint256",
              "name": "price",
              "type": "uint256"
            },
            {
              "internalType": "address",
              "name": "creator",
              "type": "address"
            },
            {
              "internalType": "string",
              "name": "tokenUri",
              "type": "string"
            },
            {
              "internalType": "bool",
              "name": "allowListEnabled",
              "type": "bool"
            },
            {
              "internalType": "uint256",
              "name": "startTime",
              "type": "uint256"
            },
            {
              "internalType": "bool",
              "name": "isCrossmintUSDC",
              "type": "bool"
            }
          ],
          "internalType": "struct ERC1155Storage.TokenStructure",
          "name": "_tokenData",
          "type": "tuple"
        }
      ],
      "name": "batchCreate",
      "outputs": [
        {
          "internalType": "bool",
          "name": "success",
          "type": "bool"
        }
      ],
      "stateMutability": "nonpayable",
      "type": "function"
    },
    {
      "inputs": [
        {
          "components": [
            {
              "internalType": "uint256",
              "name": "maxSupply",
              "type": "uint256"
            },
            {
              "internalType": "uint256",
              "name": "price",
              "type": "uint256"
            },
            {
              "internalType": "address",
              "name": "creator",
              "type": "address"
            },
            {
              "internalType": "string",
              "name": "tokenUri",
              "type": "string"
            },
            {
              "internalType": "bool",
              "name": "allowListEnabled",
              "type": "bool"
            },
            {
              "internalType": "uint256",
              "name": "startTime",
              "type": "uint256"
            },
            {
              "internalType": "bool",
              "name": "isCrossmintUSDC",
              "type": "bool"
            }
          ],
          "internalType": "struct ERC1155Storage.TokenStructure[]",
          "name": "_tokenData",
          "type": "tuple[]"
        }
      ],
      "name": "batchCreate",
      "outputs": [
        {
          "internalType": "bool",
          "name": "success",
          "type": "bool"
        }
      ],
      "stateMutability": "nonpayable",
      "type": "function"
    },
    {
      "inputs": [
        {
          "internalType": "address",
          "name": "account",
          "type": "address"
        },
        {
          "internalType": "uint256",
          "name": "id",
          "type": "uint256"
        },
        {
          "internalType": "uint256",
          "name": "amount",
          "type": "uint256"
        }
      ],
      "name": "burn",
      "outputs": [],
      "stateMutability": "nonpayable",
      "type": "function"
    },
    {
      "inputs": [
        {
          "components": [
            {
              "internalType": "uint256",
              "name": "maxSupply",
              "type": "uint256"
            },
            {
              "internalType": "uint256",
              "name": "price",
              "type": "uint256"
            },
            {
              "internalType": "address",
              "name": "creator",
              "type": "address"
            },
            {
              "internalType": "string",
              "name": "tokenUri",
              "type": "string"
            },
            {
              "internalType": "bool",
              "name": "allowListEnabled",
              "type": "bool"
            },
            {
              "internalType": "uint256",
              "name": "startTime",
              "type": "uint256"
            },
            {
              "internalType": "bool",
              "name": "isCrossmintUSDC",
              "type": "bool"
            }
          ],
          "internalType": "struct ERC1155Storage.TokenStructure",
          "name": "_tokenData",
          "type": "tuple"
        }
      ],
      "name": "create",
      "outputs": [
        {
          "internalType": "uint256",
          "name": "_id",
          "type": "uint256"
        }
      ],
      "stateMutability": "nonpayable",
      "type": "function"
    },
    {
      "inputs": [
        {
          "internalType": "uint256",
          "name": "_tokenId",
          "type": "uint256"
        }
      ],
      "name": "exists",
      "outputs": [
        {
          "internalType": "bool",
          "name": "",
          "type": "bool"
        }
      ],
      "stateMutability": "view",
      "type": "function"
    },
    {
      "inputs": [
        {
          "internalType": "address",
          "name": "account",
          "type": "address"
        },
        {
          "internalType": "address",
          "name": "operator",
          "type": "address"
        }
      ],
      "name": "isApprovedForAll",
      "outputs": [
        {
          "internalType": "bool",
          "name": "",
          "type": "bool"
        }
      ],
      "stateMutability": "view",
      "type": "function"
    },
    {
      "inputs": [
        {
          "internalType": "uint256",
          "name": "_id",
          "type": "uint256"
        }
      ],
      "name": "maxSupply",
      "outputs": [
        {
          "internalType": "uint256",
          "name": "",
          "type": "uint256"
        }
      ],
      "stateMutability": "view",
      "type": "function"
    },
    {
      "inputs": [
        {
          "internalType": "address",
          "name": "account",
          "type": "address"
        },
        {
          "internalType": "uint256",
          "name": "id",
          "type": "uint256"
        },
        {
          "internalType": "uint256",
          "name": "amount",
          "type": "uint256"
        }
      ],
      "name": "mint",
      "outputs": [],
      "stateMutability": "payable",
      "type": "function"
    },
    {
      "inputs": [
        {
          "internalType": "address[]",
          "name": "accounts",
          "type": "address[]"
        },
        {
          "internalType": "uint256",
          "name": "id",
          "type": "uint256"
        },
        {
          "internalType": "uint256",
          "name": "amount",
          "type": "uint256"
        }
      ],
      "name": "mint",
      "outputs": [],
      "stateMutability": "nonpayable",
      "type": "function"
    },
    {
      "inputs": [],
      "name": "name",
      "outputs": [
        {
          "internalType": "string",
          "name": "",
          "type": "string"
        }
      ],
      "stateMutability": "view",
      "type": "function"
    },
    {
      "inputs": [
        {
          "internalType": "uint256[]",
          "name": "_tokenIds",
          "type": "uint256[]"
        },
        {
          "internalType": "uint256",
          "name": "_price",
          "type": "uint256"
        },
        {
          "internalType": "uint256",
          "name": "_startTime",
          "type": "uint256"
        }
      ],
      "name": "packCreate",
      "outputs": [],
      "stateMutability": "nonpayable",
      "type": "function"
    },
    {
      "inputs": [
        {
          "internalType": "address",
          "name": "account",
          "type": "address"
        },
        {
          "internalType": "uint256",
          "name": "packId",
          "type": "uint256"
        },
        {
          "internalType": "uint256",
          "name": "amount",
          "type": "uint256"
        }
      ],
      "name": "packMint",
      "outputs": [],
      "stateMutability": "payable",
      "type": "function"
    },
    {
      "inputs": [
        {
          "internalType": "uint256",
          "name": "_packId",
          "type": "uint256"
        }
      ],
      "name": "packPrice",
      "outputs": [
        {
          "internalType": "uint256",
          "name": "",
          "type": "uint256"
        }
      ],
      "stateMutability": "view",
      "type": "function"
    },
    {
      "inputs": [
        {
          "internalType": "uint256",
          "name": "_packId",
          "type": "uint256"
        }
      ],
      "name": "packStartTime",
      "outputs": [
        {
          "internalType": "uint256",
          "name": "",
          "type": "uint256"
        }
      ],
      "stateMutability": "view",
      "type": "function"
    },
    {
      "inputs": [
        {
          "internalType": "uint256",
          "name": "_packId",
          "type": "uint256"
        }
      ],
      "name": "packTokenIds",
      "outputs": [
        {
          "internalType": "uint256[]",
          "name": "",
          "type": "uint256[]"
        }
      ],
      "stateMutability": "view",
      "type": "function"
    },
    {
      "inputs": [
        {
          "internalType": "uint256",
          "name": "_id",
          "type": "uint256"
        }
      ],
      "name": "price",
      "outputs": [
        {
          "internalType": "uint256",
          "name": "",
          "type": "uint256"
        }
      ],
      "stateMutability": "view",
      "type": "function"
    },
    {
      "inputs": [
        {
          "internalType": "address",
          "name": "from",
          "type": "address"
        },
        {
          "internalType": "address",
          "name": "to",
          "type": "address"
        },
        {
          "internalType": "uint256[]",
          "name": "ids",
          "type": "uint256[]"
        },
        {
          "internalType": "uint256[]",
          "name": "amounts",
          "type": "uint256[]"
        },
        {
          "internalType": "bytes",
          "name": "data",
          "type": "bytes"
        }
      ],
      "name": "safeBatchTransferFrom",
      "outputs": [],
      "stateMutability": "nonpayable",
      "type": "function"
    },
    {
      "inputs": [
        {
          "internalType": "address",
          "name": "from",
          "type": "address"
        },
        {
          "internalType": "address",
          "name": "to",
          "type": "address"
        },
        {
          "internalType": "uint256",
          "name": "id",
          "type": "uint256"
        },
        {
          "internalType": "uint256",
          "name": "amount",
          "type": "uint256"
        },
        {
          "internalType": "bytes",
          "name": "data",
          "type": "bytes"
        }
      ],
      "name": "safeTransferFrom",
      "outputs": [],
      "stateMutability": "nonpayable",
      "type": "function"
    },
    {
      "inputs": [
        {
          "internalType": "address",
          "name": "operator",
          "type": "address"
        },
        {
          "internalType": "bool",
          "name": "status",
          "type": "bool"
        }
      ],
      "name": "setApprovalForAll",
      "outputs": [],
      "stateMutability": "nonpayable",
      "type": "function"
    },
    {
      "inputs": [
        {
          "internalType": "uint256",
          "name": "_id",
          "type": "uint256"
        },
        {
          "internalType": "uint256",
          "name": "_maxSupply",
          "type": "uint256"
        }
      ],
      "name": "setMaxSupply",
      "outputs": [],
      "stateMutability": "nonpayable",
      "type": "function"
    },
    {
      "inputs": [
        {
          "internalType": "string",
          "name": "_name",
          "type": "string"
        }
      ],
      "name": "setName",
      "outputs": [],
      "stateMutability": "nonpayable",
      "type": "function"
    },
    {
      "inputs": [
        {
          "internalType": "uint256",
          "name": "_id",
          "type": "uint256"
        },
        {
          "internalType": "uint256",
          "name": "_price",
          "type": "uint256"
        }
      ],
      "name": "setPrice",
      "outputs": [],
      "stateMutability": "nonpayable",
      "type": "function"
    },
    {
      "inputs": [
        {
          "internalType": "uint256",
          "name": "_id",
          "type": "uint256"
        },
        {
          "internalType": "uint256",
          "name": "_startTime",
          "type": "uint256"
        }
      ],
      "name": "setStartTime",
      "outputs": [],
      "stateMutability": "nonpayable",
      "type": "function"
    },
    {
      "inputs": [
        {
          "internalType": "string",
          "name": "_symbol",
          "type": "string"
        }
      ],
      "name": "setSymbol",
      "outputs": [],
      "stateMutability": "nonpayable",
      "type": "function"
    },
    {
      "inputs": [
        {
          "internalType": "uint256",
          "name": "_id",
          "type": "uint256"
        },
        {
          "components": [
            {
              "internalType": "uint256",
              "name": "maxSupply",
              "type": "uint256"
            },
            {
              "internalType": "uint256",
              "name": "price",
              "type": "uint256"
            },
            {
              "internalType": "address",
              "name": "creator",
              "type": "address"
            },
            {
              "internalType": "string",
              "name": "tokenUri",
              "type": "string"
            },
            {
              "internalType": "bool",
              "name": "allowListEnabled",
              "type": "bool"
            },
            {
              "internalType": "uint256",
              "name": "startTime",
              "type": "uint256"
            },
            {
              "internalType": "bool",
              "name": "isCrossmintUSDC",
              "type": "bool"
            }
          ],
          "internalType": "struct ERC1155Storage.TokenStructure",
          "name": "_tokenData",
          "type": "tuple"
        }
      ],
      "name": "setTokenData",
      "outputs": [],
      "stateMutability": "nonpayable",
      "type": "function"
    },
    {
      "inputs": [
        {
          "internalType": "uint256",
          "name": "_id",
          "type": "uint256"
        }
      ],
      "name": "startTime",
      "outputs": [
        {
          "internalType": "uint256",
          "name": "",
          "type": "uint256"
        }
      ],
      "stateMutability": "view",
      "type": "function"
    },
    {
      "inputs": [
        {
          "internalType": "bytes4",
          "name": "interfaceId",
          "type": "bytes4"
        }
      ],
      "name": "supportsInterface",
      "outputs": [
        {
          "internalType": "bool",
          "name": "",
          "type": "bool"
        }
      ],
      "stateMutability": "view",
      "type": "function"
    },
    {
      "inputs": [],
      "name": "symbol",
      "outputs": [
        {
          "internalType": "string",
          "name": "",
          "type": "string"
        }
      ],
      "stateMutability": "view",
      "type": "function"
    },
    {
      "inputs": [
        {
          "internalType": "uint256",
          "name": "id",
          "type": "uint256"
        }
      ],
      "name": "tokenData",
      "outputs": [
        {
          "components": [
            {
              "internalType": "uint256",
              "name": "maxSupply",
              "type": "uint256"
            },
            {
              "internalType": "uint256",
              "name": "price",
              "type": "uint256"
            },
            {
              "internalType": "address",
              "name": "creator",
              "type": "address"
            },
            {
              "internalType": "string",
              "name": "tokenUri",
              "type": "string"
            },
            {
              "internalType": "bool",
              "name": "allowListEnabled",
              "type": "bool"
            },
            {
              "internalType": "uint256",
              "name": "startTime",
              "type": "uint256"
            },
            {
              "internalType": "bool",
              "name": "isCrossmintUSDC",
              "type": "bool"
            }
          ],
          "internalType": "struct ERC1155Storage.TokenStructure",
          "name": "",
          "type": "tuple"
        }
      ],
      "stateMutability": "view",
      "type": "function"
    },
    {
      "inputs": [
        {
          "internalType": "address",
          "name": "account",
          "type": "address"
        }
      ],
      "name": "tokensByAccount",
      "outputs": [
        {
          "internalType": "uint256[]",
          "name": "",
          "type": "uint256[]"
        }
      ],
      "stateMutability": "view",
      "type": "function"
    },
    {
      "inputs": [
        {
          "internalType": "uint256",
          "name": "id",
          "type": "uint256"
        }
      ],
      "name": "totalHolders",
      "outputs": [
        {
          "internalType": "uint256",
          "name": "",
          "type": "uint256"
        }
      ],
      "stateMutability": "view",
      "type": "function"
    },
    {
      "inputs": [
        {
          "internalType": "uint256",
          "name": "id",
          "type": "uint256"
        }
      ],
      "name": "totalSupply",
      "outputs": [
        {
          "internalType": "uint256",
          "name": "",
          "type": "uint256"
        }
      ],
      "stateMutability": "view",
      "type": "function"
    },
    {
      "inputs": [
        {
          "internalType": "uint256",
          "name": "tokenId",
          "type": "uint256"
        }
      ],
      "name": "uri",
      "outputs": [
        {
          "internalType": "string",
          "name": "",
          "type": "string"
        }
      ],
      "stateMutability": "view",
      "type": "function"
    }
  ],
  "bytecode": {
    "object": "0x60806040523480156200001157600080fd5b50733cc6cdda760b79bafa08df41ecfa224f810dceb660016daaeb6d7670e522a718067333cd4e3b156200016e578015620000bc57604051633e9f1edf60e11b81523060048201526001600160a01b03831660248201526daaeb6d7670e522a718067333cd4e90637d3e3dbe906044015b600060405180830381600087803b1580156200009d57600080fd5b505af1158015620000b2573d6000803e3d6000fd5b505050506200016e565b6001600160a01b038216156200010d5760405163a0af290360e01b81523060048201526001600160a01b03831660248201526daaeb6d7670e522a718067333cd4e9063a0af29039060440162000082565b604051632210724360e11b81523060048201526daaeb6d7670e522a718067333cd4e90634420e48690602401600060405180830381600087803b1580156200015457600080fd5b505af115801562000169573d6000803e3d6000fd5b505050505b5050614b4880620001806000396000f3fe6080604052600436106102195760003560e01c80636dcfd84111610123578063bd0ae7d7116100ab578063f242432a1161006f578063f242432a14610661578063f2d80bd314610681578063f5298aca146106a1578063f7d97577146106c1578063fd699607146106e157600080fd5b8063bd0ae7d7146105c1578063bd85b039146105e1578063be8c592214610601578063c47f002714610621578063e985e9c51461064157600080fd5b806395d89b41116100f257806395d89b411461051f578063a22cb46514610534578063b4b5b48f14610554578063b84c824614610581578063ba278e08146105a157600080fd5b80636dcfd841146104925780638560198b146104bf57806385bff2e7146104df578063869f7594146104ff57600080fd5b80633ec4c968116101a65780634e1273f4116101755780634e1273f4146103f25780634f558e791461041f5780635675a6191461043f57806366d943811461045f57806367b7b23f1461047257600080fd5b80633ec4c9681461035857806341f434341461037857806342f0f413146103b25780634acae91f146103d257600080fd5b806313ba55df116101ed57806313ba55df146102c3578063156e29f6146102e357806326a49e37146102f85780632eb2c2d61461031857806337da577c1461033857600080fd5b8062fdd58e1461021e57806301ffc9a71461025157806306fdde03146102815780630e89341c146102a3575b600080fd5b34801561022a57600080fd5b5061023e610239366004613ae2565b610701565b6040519081526020015b60405180910390f35b34801561025d57600080fd5b5061027161026c366004613b24565b610716565b6040519015158152602001610248565b34801561028d57600080fd5b50610296610757565b6040516102489190613b98565b3480156102af57600080fd5b506102966102be366004613bab565b6107f2565b3480156102cf57600080fd5b5061023e6102de366004613bab565b610900565b6102f66102f1366004613bc4565b61090b565b005b34801561030457600080fd5b5061023e610313366004613bab565b610da5565b34801561032457600080fd5b506102f6610333366004613d6a565b610e36565b34801561034457600080fd5b506102f6610353366004613e17565b610e65565b34801561036457600080fd5b5061023e610373366004613bab565b610f30565b34801561038457600080fd5b5061039a6daaeb6d7670e522a718067333cd4e81565b6040516001600160a01b039091168152602001610248565b3480156103be57600080fd5b5061023e6103cd366004613bab565b610f99565b3480156103de57600080fd5b506102f66103ed366004613e39565b610fb7565b3480156103fe57600080fd5b5061041261040d366004613e86565b611064565b6040516102489190613f8d565b34801561042b57600080fd5b5061027161043a366004613bab565b6111ce565b34801561044b57600080fd5b506102f661045a366004613feb565b6111d9565b6102f661046d366004613bc4565b6112c1565b34801561047e57600080fd5b5061023e61048d3660046140ec565b611577565b34801561049e57600080fd5b506104b26104ad366004613bab565b6115bb565b6040516102489190614128565b3480156104cb57600080fd5b506104126104da366004613bab565b6115c6565b3480156104eb57600080fd5b506104126104fa366004614175565b61163d565b34801561050b57600080fd5b5061023e61051a366004613bab565b611648565b34801561052b57600080fd5b50610296611666565b34801561054057600080fd5b506102f661054f366004614192565b61167e565b34801561056057600080fd5b5061057461056f366004613bab565b611697565b60405161024891906141c0565b34801561058d57600080fd5b506102f661059c366004614231565b6117fc565b3480156105ad57600080fd5b506102f66105bc366004613e17565b61184e565b3480156105cd57600080fd5b5061023e6105dc366004613bab565b6118f3565b3480156105ed57600080fd5b5061023e6105fc366004613bab565b611914565b34801561060d57600080fd5b506102f661061c366004613feb565b611935565b34801561062d57600080fd5b506102f661063c366004614231565b611b6b565b34801561064d57600080fd5b5061027161065c3660046142a2565b611bbd565b34801561066d57600080fd5b506102f661067c3660046142d0565b611c0a565b34801561068d57600080fd5b5061027161069c366004613e39565b611c31565b3480156106ad57600080fd5b506102f66106bc366004613bc4565b611c7e565b3480156106cd57600080fd5b506102f66106dc366004613e17565b611d10565b3480156106ed57600080fd5b506102716106fc366004614338565b611db5565b600061070d8383611dfa565b90505b92915050565b6001600160e01b0319811660009081527ffc606c433378e3a7e0a6a531deac289b66caa1b4aa8554fd4ab2c6f1570f92d8602052604081205460ff16610710565b6060610761611e58565b600201805461076f90614379565b80601f016020809104026020016040519081016040528092919081815260200182805461079b90614379565b80156107e85780601f106107bd576101008083540402835291602001916107e8565b820191906000526020600020905b8154815290600101906020018083116107cb57829003601f168201915b5050505050905090565b606060006107fe611e58565b6000848152600a9190910160205260409020600301805461081e90614379565b80601f016020809104026020016040519081016040528092919081815260200182805461084a90614379565b80156108975780601f1061086c57610100808354040283529160200191610897565b820191906000526020600020905b81548152906001019060200180831161087a57829003601f168201915b505050505090506000815111156108ae5792915050565b7f4281b61aefbe70b3d3f684b428efca5f33077bc240e76f2808f9177c307617f46108d884611e7c565b6040516020016108e99291906143ad565b604051602081830303815290604052915050919050565b600061071082611eb4565b818160016000610919611e58565b6000858152600a9190910160205260409020600501549050600080516020614ad3833981519152546001600160a01b031633148061095657504281105b15610adc57600091508582610969611e58565b6000838152600a9190910160205260409020600201546001600160a01b0316036109a657604051636aa2a93760e01b815260040160405180910390fd5b868660006109b2611e58565b6000848152600a91909101602052604090205490508015610a015780826109d885611914565b6109e2919061444a565b1115610a015760405163c30436e960e01b815260040160405180910390fd5b8989600081610a0f84610da5565b610a19919061445d565b9050610a23611eea565b6001600160a01b0316336001600160a01b031614610a5c5780341015610a5c5760405163162908e360e11b815260040160405180910390fd5b610a778e8e8e60405180602001604052806000815250611f06565b604080513381523460208201527f6ef95f06320e7a25a04a175ca677b7052bdd97131872c2192525a629f51be770910160405180910390a1610ab7611e58565b600b0154610100900460ff1615610ad057610ad0611fce565b50505050505050610d7d565b60008481527f8b3e8f46c99cb795ebda06e2a368cb0f3c8a09025665de4b1aef35b0dd2b497d602052604090205460ff1615610d7d5760008481527f8b3e8f46c99cb795ebda06e2a368cb0f3c8a09025665de4b1aef35b0dd2b497e602052604090207f8b3e8f46c99cb795ebda06e2a368cb0f3c8a09025665de4b1aef35b0dd2b497d90610b6b9033611fe0565b610b88576040516321ba6abf60e01b815260040160405180910390fd5b60008581526003820160209081526040808320338452909152902054421115610bc457604051636f08805760e11b815260040160405180910390fd5b600085815260048201602090815260408083203384529091529020548410610bff576040516323bd2c1360e01b815260040160405180910390fd5b600092508683610c0d611e58565b6000838152600a9190910160205260409020600201546001600160a01b031603610c4a57604051636aa2a93760e01b815260040160405180910390fd5b87876000610c56611e58565b6000848152600a91909101602052604090205490508015610ca5578082610c7c85611914565b610c86919061444a565b1115610ca55760405163c30436e960e01b815260040160405180910390fd5b8a8a600081610cb384610da5565b610cbd919061445d565b9050610cc7611eea565b6001600160a01b0316336001600160a01b031614610d005780341015610d005760405163162908e360e11b815260040160405180910390fd5b610d1b8f8f8f60405180602001604052806000815250611f06565b604080513381523460208201527f6ef95f06320e7a25a04a175ca677b7052bdd97131872c2192525a629f51be770910160405180910390a1610d5b611e58565b600b0154610100900460ff1615610d7457610d74611fce565b50505050505050505b8115610d9c5760405163951b974f60e01b815260040160405180910390fd5b50505050505050565b60008181610db1611e58565b6000838152600a9190910160205260409020600201546001600160a01b031603610dee57604051636aa2a93760e01b815260040160405180910390fd5b6000610df8611e58565b6000858152600a82016020526040902060010154600b8201549192509060ff16610e225780610e2b565b610e2b81612002565b935050505b50919050565b846001600160a01b0381163314610e5057610e5033612037565b610e5d86868686866120f8565b505050505050565b816000610e70611e58565b6000838152600a9190910160205260409020600201546001600160a01b031603610ead57604051636aa2a93760e01b815260040160405180910390fd5b610eb5611eea565b6001600160a01b0316336001600160a01b031614610ee657604051632f7a8ee160e01b815260040160405180910390fd5b610eef83611914565b821015610f0f5760405163066f305360e21b815260040160405180910390fd5b81610f18611e58565b6000948552600a016020526040909320929092555050565b60008181610f3c611e58565b6000838152600a9190910160205260409020600201546001600160a01b031603610f7957604051636aa2a93760e01b815260040160405180910390fd5b610f81611e58565b6000938452600a016020525050604090206005015490565b6000610fa3611e58565b6000928352600d0160205250604090205490565b816000610fc2611e58565b6000838152600a9190910160205260409020600201546001600160a01b031603610fff57604051636aa2a93760e01b815260040160405180910390fd5b611007611eea565b6001600160a01b0316336001600160a01b03161461103857604051632f7a8ee160e01b815260040160405180910390fd5b81611041611e58565b6000858152600a919091016020526040902061105d82826145cc565b5050505050565b6060815183511461108857604051633e7e0b6d60e11b815260040160405180910390fd5b8251600080516020614af3833981519152906000906001600160401b038111156110b4576110b4613bf9565b6040519080825280602002602001820160405280156110dd578160200160208202803683370190505b50905060005b85518110156111c55760006001600160a01b0316868281518110611109576111096146ba565b60200260200101516001600160a01b0316036111385760405163db5d879760e01b815260040160405180910390fd5b82600086838151811061114d5761114d6146ba565b602002602001015181526020019081526020016000206000878381518110611177576111776146ba565b60200260200101516001600160a01b03166001600160a01b03168152602001908152602001600020548282815181106111b2576111b26146ba565b60209081029190910101526001016110e3565b50949350505050565b600061071082612143565b6111e1611eea565b6001600160a01b0316336001600160a01b03161461121257604051632f7a8ee160e01b815260040160405180910390fd5b600061121c611e58565b9050600061122b82600c015490565b905060405180606001604052808581526020018481526020018787808060200260200160405190810160405280939291908181526020018383602002808284376000920182905250939094525050838152600d85016020908152604091829020845181558482015160018201559184015180519293506112b49260028501929190910190613a66565b50905050610e5d82612174565b60006112cb611e58565b6000848152600d82016020526040812060028101549293509190816001600160401b038111156112fd576112fd613bf9565b604051908082528060200260200182016040528015611326578160200160208202803683370190505b50905060005b828110156113625785828281518110611347576113476146ba565b602090810291909101015261135b816146d0565b905061132c565b50600080805b8483101561140c57856002018381548110611385576113856146ba565b6000918252602080832090910154808352600a8a01909152604090912054909250905080156113fc5780886113d3846000908152600080516020614ab3833981519152602052604090205490565b6113dd919061444a565b11156113fc5760405163c30436e960e01b815260040160405180910390fd5b611405836146d0565b9250611368565b855460009061141c908a9061445d565b9050611426611eea565b6001600160a01b0316336001600160a01b03161461145f578034101561145f5760405163162908e360e11b815260040160405180910390fd5b611467611eea565b6001600160a01b0316336001600160a01b0316146114a45742876001015411156114a45760405163951b974f60e01b815260040160405180910390fd5b6115118b886002018054806020026020016040519081016040528092919081815260200182805480156114f657602002820191906000526020600020905b8154815260200190600101908083116114e2575b5050505050876040518060200160405280600081525061218e565b604080513381523460208201527f6ef95f06320e7a25a04a175ca677b7052bdd97131872c2192525a629f51be770910160405180910390a1611551611e58565b600b0154610100900460ff161561156a5761156a611fce565b5050505050505050505050565b6000611581611eea565b6001600160a01b0316336001600160a01b0316146115b257604051632f7a8ee160e01b815260040160405180910390fd5b610710826122e5565b606061071082612435565b60606115d0611e58565b600d01600083815260200190815260200160002060020180548060200260200160405190810160405280929190818152602001828054801561163157602002820191906000526020600020905b81548152602001906001019080831161161d575b50505050509050919050565b606061071082612508565b6000611652611e58565b6000928352600a0160205250604090205490565b6060611670611e58565b600301805461076f90614379565b8161168881612037565b61169283836125d0565b505050565b6040805160e0810182526000808252602082018190529181018290526060808201526080810182905260a0810182905260c08101919091526116d7611e58565b600a0160008381526020019081526020016000206040518060e001604052908160008201548152602001600182015481526020016002820160009054906101000a90046001600160a01b03166001600160a01b03166001600160a01b0316815260200160038201805461174990614379565b80601f016020809104026020016040519081016040528092919081815260200182805461177590614379565b80156117c25780601f10611797576101008083540402835291602001916117c2565b820191906000526020600020905b8154815290600101906020018083116117a557829003601f168201915b5050509183525050600482015460ff9081161515602083015260058301546040830152600690920154909116151560609091015292915050565b611804611eea565b6001600160a01b0316336001600160a01b03161461183557604051632f7a8ee160e01b815260040160405180910390fd5b818161183f611e58565b60030191611692919083614500565b816000611859611e58565b6000838152600a9190910160205260409020600201546001600160a01b03160361189657604051636aa2a93760e01b815260040160405180910390fd5b61189e611eea565b6001600160a01b0316336001600160a01b0316146118cf57604051632f7a8ee160e01b815260040160405180910390fd5b816118d8611e58565b6000948552600a016020526040909320600501929092555050565b60006118fd611e58565b6000928352600d0160205250604090206001015490565b6000818152600080516020614ab38339815191526020526040812054610710565b816000611940611e58565b6000838152600a9190910160205260409020600201546001600160a01b03160361197d57604051636aa2a93760e01b815260040160405180910390fd5b82826000611989611e58565b6000848152600a919091016020526040902054905080156119d85780826119af85611914565b6119b9919061444a565b11156119d85760405163c30436e960e01b815260040160405180910390fd5b6119e0611eea565b6001600160a01b0316336001600160a01b031614611a1157604051632f7a8ee160e01b815260040160405180910390fd5b86600080600080516020614ab3833981519152600080516020614af38339815191525b84841015611b5c578c8c85818110611a4e57611a4e6146ba565b9050602002016020810190611a639190614175565b92506001600160a01b038316611a8c576040516301c8efbf60e11b815260040160405180910390fd5b60008b8152602082815260408083206001600160a01b03871684529091528120549003611af45760008b81526001830160205260409020611acd9084612684565b506001600160a01b03831660009081526002830160205260409020611af2908c612699565b505b60008b81526020838152604080832080548e0190558382528083206001600160a01b03871680855290835281842080548f01905581518f81529283018e90526001979097019692913391600080516020614a93833981519152910160405180910390a4611a34565b50505050505050505050505050565b611b73611eea565b6001600160a01b0316336001600160a01b031614611ba457604051632f7a8ee160e01b815260040160405180910390fd5b8181611bae611e58565b60020191611692919083614500565b6001600160a01b0391821660009081527f1799cf914cb0cb442ca7c7ac709ee40d0cb89e87351dc08d517fbda27d50c68c6020908152604080832093909416825291909152205460ff1690565b846001600160a01b0381163314611c2457611c2433612037565b610e5d86868686866126a5565b6000611c3b611eea565b6001600160a01b0316336001600160a01b031614611c6c57604051632f7a8ee160e01b815260040160405180910390fd5b61070d83611c79846146e9565b6126f0565b816000611c89611e58565b6000838152600a9190910160205260409020600201546001600160a01b031603611cc657604051636aa2a93760e01b815260040160405180910390fd5b611cce611eea565b6001600160a01b0316336001600160a01b031614611cff57604051632f7a8ee160e01b815260040160405180910390fd5b611d0a848484612861565b50505050565b816000611d1b611e58565b6000838152600a9190910160205260409020600201546001600160a01b031603611d5857604051636aa2a93760e01b815260040160405180910390fd5b611d60611eea565b6001600160a01b0316336001600160a01b031614611d9157604051632f7a8ee160e01b815260040160405180910390fd5b81611d9a611e58565b6000948552600a016020526040909320600101929092555050565b6000611dbf611eea565b6001600160a01b0316336001600160a01b031614611df057604051632f7a8ee160e01b815260040160405180910390fd5b61070d838361294e565b60006001600160a01b038316611e235760405163db5d879760e01b815260040160405180910390fd5b600080516020614af38339815191526000928352602090815260408084206001600160a01b0395909516845293905250205490565b7fc69eb5f2b1f69527d60d580fcb33cfddae1f4237df70e8a7f7b3bb15e867264390565b604080516080019081905280825b600183039250600a81066030018353600a900480611e8a5750819003601f19909101908152919050565b60008181527fb31c2c74f86ca3ce94d901f5f5bbe66f7161eec2f7b5aa0b75a86371436424eb6020526040812061071090612b1b565b600080516020614ad3833981519152546001600160a01b031690565b6001600160a01b038416611f2d576040516301c8efbf60e11b815260040160405180910390fd5b611f4c33600086611f3d87612b25565b611f4687612b25565b86612b70565b6000838152600080516020614af3833981519152602090815260408083206001600160a01b038816845290915281208054849290611f8b90849061444a565b909155505060408051848152602081018490526001600160a01b038616916000913391600080516020614a9383398151915291015b60405180910390a450505050565b611fd6612bc1565b611fde612c1c565b565b6001600160a01b0381166000908152600183016020526040812054151561070d565b600081620f4240612011612dd7565b61201b91906146f5565b61202d90670de0b6b3a76400006146f5565b610710919061445d565b6daaeb6d7670e522a718067333cd4e3b156120f557604051633185c44d60e21b81523060048201526001600160a01b03821660248201526daaeb6d7670e522a718067333cd4e9063c617113490604401602060405180830381865afa1580156120a4573d6000803e3d6000fd5b505050506040513d601f19601f820116820180604052508101906120c89190614717565b6120f557604051633b79c77360e21b81526001600160a01b03821660048201526024015b60405180910390fd5b50565b6001600160a01b038516331480159061211857506121168533611bbd565b155b15612135576040516212efed60e91b815260040160405180910390fd5b61105d338686868686612e54565b60008061214e611e58565b6000938452600a016020526040909220600201546001600160a01b031690911415919050565b600c81018054906000612186836146d0565b919050555050565b6001600160a01b0384166121b5576040516301c8efbf60e11b815260040160405180910390fd5b81518351146121d757604051633e7e0b6d60e11b815260040160405180910390fd5b6121e633600086868686612b70565b600080516020614af383398151915260005b845181101561228557838181518110612213576122136146ba565b6020026020010151826000878481518110612230576122306146ba565b602002602001015181526020019081526020016000206000886001600160a01b03166001600160a01b031681526020019081526020016000206000828254612278919061444a565b90915550506001016121f8565b50846001600160a01b031660006001600160a01b0316336001600160a01b03167f4a39dc06d4c0dbc64b70af90fd698a233a518aa5d07e595d983b8c0526c8f7fb87876040516122d6929190614734565b60405180910390a45050505050565b6000600080516020614ad3833981519152546001600160a01b0316331461231f576040516330cd747160e01b815260040160405180910390fd5b6000612329611e58565b805460408501519093509091506001600160a01b031661234a573360408401525b6000828152600a8201602090815260409182902085518155908501516001820155908401516002820180546001600160a01b0319166001600160a01b03909216919091179055606084015184919060038201906123a79082614762565b50608082015160048201805491151560ff1992831617905560a0830151600583015560c09092015160069091018054911515919092161790556123e8612e70565b60608301515115610e3057817f6bb7ff708619ba0610cba295a58592e0451dee2622938c8755667688daf3529b84606001516040516124279190613b98565b60405180910390a250919050565b60008181527fb31c2c74f86ca3ce94d901f5f5bbe66f7161eec2f7b5aa0b75a86371436424eb6020526040812060609161246e82612b1b565b6001600160401b0381111561248557612485613bf9565b6040519080825280602002602001820160405280156124ae578160200160208202803683370190505b50905060005b6124bd83612b1b565b811015612500576124ce8382612e81565b8282815181106124e0576124e06146ba565b6001600160a01b03909216602092830291909101909101526001016124b4565b509392505050565b6001600160a01b03811660009081527fb31c2c74f86ca3ce94d901f5f5bbe66f7161eec2f7b5aa0b75a86371436424ec6020526040812060609161254b82612b1b565b6001600160401b0381111561256257612562613bf9565b60405190808252806020026020018201604052801561258b578160200160208202803683370190505b50905060005b61259a83612b1b565b811015612500576125ab8382612e81565b8282815181106125bd576125bd6146ba565b6020908102919091010152600101612591565b6001600160a01b03821633036125f957604051637b30a93360e11b815260040160405180910390fd5b3360008181527f1799cf914cb0cb442ca7c7ac709ee40d0cb89e87351dc08d517fbda27d50c68c602090815260408083206001600160a01b03871680855290835292819020805460ff191686151590811790915590519081529192917f17307eab39ab6107e8899845ad3d59bd9653f200f220920489ca2b5937696c31910160405180910390a35050565b600061070d836001600160a01b038416612e8d565b600061070d8383612e8d565b6001600160a01b03851633148015906126c557506126c38533611bbd565b155b156126e2576040516212efed60e91b815260040160405180910390fd5b61105d338686868686612ed0565b6000600080516020614ad3833981519152546001600160a01b0316331461272a576040516330cd747160e01b815260040160405180910390fd5b6000612734611e58565b60408401519091506001600160a01b0316612750573360408401525b6000805b85821015612855575081546000818152600a8401602090815260409182902087518155908701516001820155908601516002820180546001600160a01b0319166001600160a01b03909216919091179055606086015186919060038201906127bc9082614762565b50608082015160048201805491151560ff1992831617905560a0830151600583015560c09092015160069091018054911515919092161790556060850151511561283d57807f6bb7ff708619ba0610cba295a58592e0451dee2622938c8755667688daf3529b86606001516040516128349190613b98565b60405180910390a25b612845612e70565b61284e826146d0565b9150612754565b50600195945050505050565b6001600160a01b0383166128885760405163baa75df760e01b815260040160405180910390fd5b6128b63384600061289886612b25565b6128a186612b25565b60405180602001604052806000815250612b70565b6000828152600080516020614af3833981519152602090815260408083206001600160a01b0387168452918290529091205482111561290857604051634190713d60e01b815260040160405180910390fd5b6001600160a01b0384166000818152602083815260408083208054879003905580518781529182018690529192913391600080516020614a938339815191529101611fc0565b6000600080516020614ad3833981519152546001600160a01b03163314612988576040516330cd747160e01b815260040160405180910390fd5b6000612992611e58565b9050600080845b80831015612b0e57835491508686848181106129b7576129b76146ba565b90506020028101906129c99190614821565b6000838152600a8601602052604090206129e382826145cc565b50600090508787858181106129fa576129fa6146ba565b9050602002810190612a0c9190614821565b612a1d906060810190604001614175565b6001600160a01b031603612a4f576000828152600a85016020526040902060020180546001600160a01b031916331790555b6000878785818110612a6357612a636146ba565b9050602002810190612a759190614821565b612a83906060810190614474565b90501115612af657817f6bb7ff708619ba0610cba295a58592e0451dee2622938c8755667688daf3529b888886818110612abf57612abf6146ba565b9050602002810190612ad19190614821565b612adf906060810190614474565b604051612aed929190614841565b60405180910390a25b612afe612e70565b612b07836146d0565b9250612999565b5060019695505050505050565b6000610710825490565b60408051600180825281830190925260609160009190602080830190803683370190505090508281600081518110612b5f57612b5f6146ba565b602090810291909101015292915050565b7f68721c0bbf2c02a4d65000340d1370666be06a630022208d4baa9bd7a4b6fea85460ff1615612bb3576040516302ca8ced60e11b815260040160405180910390fd5b610e5d868686868686612eec565b6000612bcb612efa565b9050806001600160a01b031663d0e30db0346040518263ffffffff1660e01b81526004016000604051808303818588803b158015612c0857600080fd5b505af1158015610e5d573d6000803e3d6000fd5b6000612c26612f92565b90506000612c32612efa565b6040516370a0823160e01b81523060048201529091506000906001600160a01b038316906370a0823190602401602060405180830381865afa158015612c7c573d6000803e3d6000fd5b505050506040513d601f19601f82011682018060405250810190612ca09190614870565b9050610bb8612cb183308085613027565b612cd08373e592427a0aece92de3edee1f18e0157c0586156484613129565b60408051610100810182526001600160a01b0385811682528681166020830190815262ffffff8581168486019081523060608601908152426080870190815260a087018a8152600060c0890181815260e08a01918252995163414bf38960e01b815289518916600482015296518816602488015293519094166044860152905185166064850152516084840152905160a4830152935160c482015292511660e48301529073e592427a0aece92de3edee1f18e0157c058615649063414bf38990610104016020604051808303816000875af1158015612db3573d6000803e3d6000fd5b505050506040513d601f19601f82011682018060405250810190610e5d9190614870565b600080612de2613222565b90506000816001600160a01b031663feaf968c6040518163ffffffff1660e01b815260040160a060405180830381865afa158015612e24573d6000803e3d6000fd5b505050506040513d601f19601f82011682018060405250810190612e4891906148a3565b50919695505050505050565b612e6286868686868661322d565b610e5d8686868686866133d6565b612e78611e58565b80546001019055565b600061070d83836134e6565b6000818152600183016020526040812054610710575081546001808201845560008481526020808220909301849055845493815293810190915260409092205590565b612ede868686868686613532565b610e5d868686868686613636565b610e5d8686868686866136f2565b60006001461480612f0c5750617a6946145b15612f2a575073c02aaa39b223fe8d0a0e5c4f27ead9083c756cc290565b60894603612f4b5750737ceb23fd6bc0add59e62ac25578270cff1b9f61990565b60054603612f6c575073b4fbf271143f4fbf7b91a5ded31805e42b2208d690565b620138814603612f8f575073a6fa4fb5f76172d178d61b04b0ecd319c5d1c0aa90565b90565b60006001461480612fa45750617a6946145b15612fc2575073a0b86991c6218b36c1d19d4a2e9eb0ce3606eb4890565b60894603612fe35750732791bca1f2de4661ed88a30c99a7a9449aa8417490565b6005460361300457507398339d8c260052b7ad81c28c16c0b98420f2b46a90565b620138814603612f8f575073feca406da9727a25e71e732f9961f680059ef1f990565b604080516001600160a01b0385811660248301528481166044830152606480830185905283518084039091018152608490920183526020820180516001600160e01b03166323b872dd60e01b179052915160009283929088169161308b91906148f3565b6000604051808303816000865af19150503d80600081146130c8576040519150601f19603f3d011682016040523d82523d6000602084013e6130cd565b606091505b50915091508180156130f75750805115806130f75750808060200190518101906130f79190614717565b610e5d5760405162461bcd60e51b815260206004820152600360248201526229aa2360e91b60448201526064016120ec565b604080516001600160a01b038481166024830152604480830185905283518084039091018152606490920183526020820180516001600160e01b031663095ea7b360e01b179052915160009283929087169161318591906148f3565b6000604051808303816000865af19150503d80600081146131c2576040519150601f19603f3d011682016040523d82523d6000602084013e6131c7565b606091505b50915091508180156131f15750805115806131f15750808060200190518101906131f19190614717565b61105d5760405162461bcd60e51b8152602060048201526002602482015261534160f01b60448201526064016120ec565b6000806107106138bf565b6001600160a01b0384166132545760405163f5cadad560e01b815260040160405180910390fd5b815183511461327657604051633e7e0b6d60e11b815260040160405180910390fd5b613284868686868686612b70565b600080516020614af383398151915260005b84518110156133755760008582815181106132b3576132b36146ba565b6020026020010151905060008583815181106132d1576132d16146ba565b602090810291909101810151600084815286835260408082206001600160a01b038e1683529093529190912054909150808211156133225760405163119ac6bb60e31b815260040160405180910390fd5b6000838152602086815260408083206001600160a01b038e811685529252808320938590039093558a16815290812080546001959095019483929061336890849061444a565b9091555061329692505050565b50846001600160a01b0316866001600160a01b0316886001600160a01b03167f4a39dc06d4c0dbc64b70af90fd698a233a518aa5d07e595d983b8c0526c8f7fb87876040516133c5929190614734565b60405180910390a450505050505050565b6001600160a01b0384163b15610e5d5760405163bc197c8160e01b81526001600160a01b0385169063bc197c819061341a9089908990889088908890600401614905565b6020604051808303816000875af1925050508015613455575060408051601f3d908101601f1916820190925261345291810190614963565b60015b6134b557613461614980565b806308c379a00361349a575061347561499b565b80613480575061349c565b8060405162461bcd60e51b81526004016120ec9190613b98565b505b60405163380147a960e01b815260040160405180910390fd5b6001600160e01b0319811663bc197c8160e01b14610d9c57604051633744db2960e01b815260040160405180910390fd5b8154600090821061350a5760405163e637bf3b60e01b815260040160405180910390fd5b82600001828154811061351f5761351f6146ba565b9060005260206000200154905092915050565b6001600160a01b0384166135595760405163f5cadad560e01b815260040160405180910390fd5b613568868686611f3d87612b25565b6000838152600080516020614af3833981519152602081815260408084206001600160a01b038a16855290915290912054808411156135ba5760405163119ac6bb60e31b815260040160405180910390fd5b6000858152602083815260408083206001600160a01b038b811685529252808320938790039093558716815290812080548592906135f990849061444a565b909155505060408051858152602081018590526001600160a01b038088169289821692918b1691600080516020614a9383398151915291016133c5565b6001600160a01b0384163b15610e5d5760405163f23a6e6160e01b81526001600160a01b0385169063f23a6e619061367a9089908990889088908890600401614a24565b6020604051808303816000875af19250505080156136b5575060408051601f3d908101601f191682019092526136b291810190614963565b60015b6136c157613461614980565b6001600160e01b0319811663f23a6e6160e01b14610d9c57604051633744db2960e01b815260040160405180910390fd5b836001600160a01b0316856001600160a01b031614610e5d576001600160a01b0385811660009081527fb31c2c74f86ca3ce94d901f5f5bbe66f7161eec2f7b5aa0b75a86371436424ec602052604080822092871682528120600080516020614ab3833981519152927fb31c2c74f86ca3ce94d901f5f5bbe66f7161eec2f7b5aa0b75a86371436424eb929091905b875181101561156a57600087828151811061379e5761379e6146ba565b6020026020010151905060008111156138b65760008983815181106137c5576137c56146ba565b6020026020010151905060006001600160a01b03168c6001600160a01b031603613812576000818152602088905260408120805484929061380790849061444a565b909155506138479050565b8161381d8d83611dfa565b0361384757600081815260208790526040902061383a908d613984565b506138458582613999565b505b6001600160a01b038b1661387e5760008181526020889052604081208054849290613873908490614a69565b909155506138b49050565b6138888b82611dfa565b6000036138b45760008181526020879052604090206138a7908c612684565b506138b28482612699565b505b505b50600101613781565b60004660018114806138d25750617a6981145b156138f257735f4ec3df9cbd43714fe2740f5e3616155c5b841991505090565b6004810361391557738a753747a1fa494ec906ce90e9f37563a8af630e91505090565b600581036139385773d4a33860578de61dbabdc8bfdb98fd742fa7028e91505090565b6089810361395b5773ab594600376ec9fd91f8e885dadf0ce036862de091505090565b6201388181036139805773d0d5e3db44de05e9f294bb0a3beeaf030de24ada91505090565b5090565b600061070d836001600160a01b0384166139a1565b600061070d83835b60008181526001830160205260408120548015613a5f578354600090859060001981019081106139d3576139d36146ba565b90600052602060002001549050808560000160018403815481106139f9576139f96146ba565b6000918252602080832090910192909255918252600186019052604090208190558354849080613a2b57613a2b614a7c565b6001900381819060005260206000200160009055905583600101600084815260200190815260200160002060009055600191505b5092915050565b828054828255906000526020600020908101928215613aa1579160200282015b82811115613aa1578251825591602001919060010190613a86565b506139809291505b808211156139805760008155600101613aa9565b6001600160a01b03811681146120f557600080fd5b8035613add81613abd565b919050565b60008060408385031215613af557600080fd5b8235613b0081613abd565b946020939093013593505050565b6001600160e01b0319811681146120f557600080fd5b600060208284031215613b3657600080fd5b8135613b4181613b0e565b9392505050565b60005b83811015613b63578181015183820152602001613b4b565b50506000910152565b60008151808452613b84816020860160208601613b48565b601f01601f19169290920160200192915050565b60208152600061070d6020830184613b6c565b600060208284031215613bbd57600080fd5b5035919050565b600080600060608486031215613bd957600080fd5b8335613be481613abd565b95602085013595506040909401359392505050565b634e487b7160e01b600052604160045260246000fd5b601f8201601f191681016001600160401b0381118282101715613c3457613c34613bf9565b6040525050565b60405160e081016001600160401b0381118282101715613c5d57613c5d613bf9565b60405290565b60006001600160401b03821115613c7c57613c7c613bf9565b5060051b60200190565b600082601f830112613c9757600080fd5b81356020613ca482613c63565b604051613cb18282613c0f565b83815260059390931b8501820192828101915086841115613cd157600080fd5b8286015b84811015613cec5780358352918301918301613cd5565b509695505050505050565b600082601f830112613d0857600080fd5b81356001600160401b03811115613d2157613d21613bf9565b604051613d38601f8301601f191660200182613c0f565b818152846020838601011115613d4d57600080fd5b816020850160208301376000918101602001919091529392505050565b600080600080600060a08688031215613d8257600080fd5b8535613d8d81613abd565b94506020860135613d9d81613abd565b935060408601356001600160401b0380821115613db957600080fd5b613dc589838a01613c86565b94506060880135915080821115613ddb57600080fd5b613de789838a01613c86565b93506080880135915080821115613dfd57600080fd5b50613e0a88828901613cf7565b9150509295509295909350565b60008060408385031215613e2a57600080fd5b50508035926020909101359150565b60008060408385031215613e4c57600080fd5b8235915060208301356001600160401b03811115613e6957600080fd5b830160e08186031215613e7b57600080fd5b809150509250929050565b60008060408385031215613e9957600080fd5b82356001600160401b0380821115613eb057600080fd5b818501915085601f830112613ec457600080fd5b81356020613ed182613c63565b604051613ede8282613c0f565b83815260059390931b8501820192828101915089841115613efe57600080fd5b948201945b83861015613f25578535613f1681613abd565b82529482019490820190613f03565b96505086013592505080821115613f3b57600080fd5b50613f4885828601613c86565b9150509250929050565b600081518084526020808501945080840160005b83811015613f8257815187529582019590820190600101613f66565b509495945050505050565b60208152600061070d6020830184613f52565b60008083601f840112613fb257600080fd5b5081356001600160401b03811115613fc957600080fd5b6020830191508360208260051b8501011115613fe457600080fd5b9250929050565b6000806000806060858703121561400157600080fd5b84356001600160401b0381111561401757600080fd5b61402387828801613fa0565b90989097506020870135966040013595509350505050565b80151581146120f557600080fd5b8035613add8161403b565b600060e0828403121561406657600080fd5b61406e613c3b565b9050813581526020820135602082015261408a60408301613ad2565b604082015260608201356001600160401b038111156140a857600080fd5b6140b484828501613cf7565b6060830152506140c660808301614049565b608082015260a082013560a08201526140e160c08301614049565b60c082015292915050565b6000602082840312156140fe57600080fd5b81356001600160401b0381111561411457600080fd5b61412084828501614054565b949350505050565b6020808252825182820181905260009190848201906040850190845b818110156141695783516001600160a01b031683529284019291840191600101614144565b50909695505050505050565b60006020828403121561418757600080fd5b8135613b4181613abd565b600080604083850312156141a557600080fd5b82356141b081613abd565b91506020830135613e7b8161403b565b60208152815160208201526020820151604082015260018060a01b0360408301511660608201526000606083015160e06080840152614203610100840182613b6c565b90506080840151151560a084015260a084015160c084015260c0840151151560e08401528091505092915050565b6000806020838503121561424457600080fd5b82356001600160401b038082111561425b57600080fd5b818501915085601f83011261426f57600080fd5b81358181111561427e57600080fd5b86602082850101111561429057600080fd5b60209290920196919550909350505050565b600080604083850312156142b557600080fd5b82356142c081613abd565b91506020830135613e7b81613abd565b600080600080600060a086880312156142e857600080fd5b85356142f381613abd565b9450602086013561430381613abd565b9350604086013592506060860135915060808601356001600160401b0381111561432c57600080fd5b613e0a88828901613cf7565b6000806020838503121561434b57600080fd5b82356001600160401b0381111561436157600080fd5b61436d85828601613fa0565b90969095509350505050565b600181811c9082168061438d57607f821691505b602082108103610e3057634e487b7160e01b600052602260045260246000fd5b60008084546143bb81614379565b600182811680156143d357600181146143e857614417565b60ff1984168752821515830287019450614417565b8860005260208060002060005b8581101561440e5781548a8201529084019082016143f5565b50505082870194505b50505050835161442b818360208801613b48565b01949350505050565b634e487b7160e01b600052601160045260246000fd5b8082018082111561071057610710614434565b808202811582820484141761071057610710614434565b6000808335601e1984360301811261448b57600080fd5b8301803591506001600160401b038211156144a557600080fd5b602001915036819003821315613fe457600080fd5b601f82111561169257600081815260208120601f850160051c810160208610156144e15750805b601f850160051c820191505b81811015610e5d578281556001016144ed565b6001600160401b0383111561451757614517613bf9565b61452b836145258354614379565b836144ba565b6000601f84116001811461455f57600085156145475750838201355b600019600387901b1c1916600186901b17835561105d565b600083815260209020601f19861690835b828110156145905786850135825560209485019460019092019101614570565b50868210156145ad5760001960f88860031b161c19848701351681555b505060018560011b0183555050505050565b600081356107108161403b565b81358155602082013560018201556002810160408301356145ec81613abd565b81546001600160a01b0319166001600160a01b0391909116179055606082013536839003601e1901811261461f57600080fd5b820180356001600160401b0381111561463757600080fd5b60208201915080360382131561464c57600080fd5b61465a818360038601614500565b505061468461466b608084016145bf565b6004830160ff1981541660ff8315151681178255505050565b60a082013560058201556146b661469d60c084016145bf565b6006830160ff1981541660ff8315151681178255505050565b5050565b634e487b7160e01b600052603260045260246000fd5b6000600182016146e2576146e2614434565b5060010190565b60006107103683614054565b60008261471257634e487b7160e01b600052601260045260246000fd5b500490565b60006020828403121561472957600080fd5b8151613b418161403b565b6040815260006147476040830185613f52565b82810360208401526147598185613f52565b95945050505050565b81516001600160401b0381111561477b5761477b613bf9565b61478f816147898454614379565b846144ba565b602080601f8311600181146147c457600084156147ac5750858301515b600019600386901b1c1916600185901b178555610e5d565b600085815260208120601f198616915b828110156147f3578886015182559484019460019091019084016147d4565b50858210156148115787850151600019600388901b60f8161c191681555b5050505050600190811b01905550565b6000823560de1983360301811261483757600080fd5b9190910192915050565b60208152816020820152818360408301376000818301604090810191909152601f909201601f19160101919050565b60006020828403121561488257600080fd5b5051919050565b805169ffffffffffffffffffff81168114613add57600080fd5b600080600080600060a086880312156148bb57600080fd5b6148c486614889565b94506020860151935060408601519250606086015191506148e760808701614889565b90509295509295909350565b60008251614837818460208701613b48565b6001600160a01b0386811682528516602082015260a06040820181905260009061493190830186613f52565b82810360608401526149438186613f52565b905082810360808401526149578185613b6c565b98975050505050505050565b60006020828403121561497557600080fd5b8151613b4181613b0e565b600060033d1115612f8f5760046000803e5060005160e01c90565b600060443d10156149a95790565b6040516003193d81016004833e81513d6001600160401b0381602484011181841117156149d857505050505090565b82850191508151818111156149f05750505050505090565b843d8701016020828501011115614a0a5750505050505090565b614a1960208286010187613c0f565b509095945050505050565b6001600160a01b03868116825285166020820152604081018490526060810183905260a060808201819052600090614a5e90830184613b6c565b979650505050505050565b8181038181111561071057610710614434565b634e487b7160e01b600052603160045260246000fdfec3d58168c5ae7397731d063d5bbf3d657854427343f4c083240f7aacaa2d0f62b31c2c74f86ca3ce94d901f5f5bbe66f7161eec2f7b5aa0b75a86371436424ea8a22373512790c48b83a1fe2efdd2888d4a917bcdc24d0adf63e60f6716804601799cf914cb0cb442ca7c7ac709ee40d0cb89e87351dc08d517fbda27d50c68ba26469706673582212202bddaf4b256eac060a2ff25bd86a73c6c1394309c645a7520c113b14ccfee25464736f6c63430008140033",
    "linkReferences": {}
  },
  "methodIdentifiers": {
    "OPERATOR_FILTER_REGISTRY()": "41f43434",
    "accountsByToken(uint256)": "6dcfd841",
    "balanceOf(address,uint256)": "00fdd58e",
    "balanceOfBatch(address[],uint256[])": "4e1273f4",
    "batchCreate((uint256,uint256,address,string,bool,uint256,bool)[])": "fd699607",
    "batchCreate(uint256,(uint256,uint256,address,string,bool,uint256,bool))": "f2d80bd3",
    "burn(address,uint256,uint256)": "f5298aca",
    "create((uint256,uint256,address,string,bool,uint256,bool))": "67b7b23f",
    "exists(uint256)": "4f558e79",
    "isApprovedForAll(address,address)": "e985e9c5",
    "maxSupply(uint256)": "869f7594",
    "mint(address,uint256,uint256)": "156e29f6",
    "mint(address[],uint256,uint256)": "be8c5922",
    "name()": "06fdde03",
    "packCreate(uint256[],uint256,uint256)": "5675a619",
    "packMint(address,uint256,uint256)": "66d94381",
    "packPrice(uint256)": "42f0f413",
    "packStartTime(uint256)": "bd0ae7d7",
    "packTokenIds(uint256)": "8560198b",
    "price(uint256)": "26a49e37",
    "safeBatchTransferFrom(address,address,uint256[],uint256[],bytes)": "2eb2c2d6",
    "safeTransferFrom(address,address,uint256,uint256,bytes)": "f242432a",
    "setApprovalForAll(address,bool)": "a22cb465",
    "setMaxSupply(uint256,uint256)": "37da577c",
    "setName(string)": "c47f0027",
    "setPrice(uint256,uint256)": "f7d97577",
    "setStartTime(uint256,uint256)": "ba278e08",
    "setSymbol(string)": "b84c8246",
    "setTokenData(uint256,(uint256,uint256,address,string,bool,uint256,bool))": "4acae91f",
    "startTime(uint256)": "3ec4c968",
    "supportsInterface(bytes4)": "01ffc9a7",
    "symbol()": "95d89b41",
    "tokenData(uint256)": "b4b5b48f",
    "tokensByAccount(address)": "85bff2e7",
    "totalHolders(uint256)": "13ba55df",
    "totalSupply(uint256)": "bd85b039",
    "uri(uint256)": "0e89341c"
  },
  "id": 4
}