{
  "abi": [
    {
      "inputs": [],
      "name": "Ownable__NotOwner",
      "type": "error"
    },
    {
      "inputs": [],
      "name": "Ownable__NotTransitiveOwner",
      "type": "error"
    },
    {
      "inputs": [],
      "name": "Pausable__NotPaused",
      "type": "error"
    },
    {
      "inputs": [],
      "name": "Pausable__Paused",
      "type": "error"
    },
    {
      "anonymous": false,
      "inputs": [
        {
          "indexed": true,
          "internalType": "address",
          "name": "previousOwner",
          "type": "address"
        },
        {
          "indexed": true,
          "internalType": "address",
          "name": "newOwner",
          "type": "address"
        }
      ],
      "name": "OwnershipTransferred",
      "type": "event"
    },
    {
      "anonymous": false,
      "inputs": [
        {
          "indexed": false,
          "internalType": "address",
          "name": "account",
          "type": "address"
        }
      ],
      "name": "Paused",
      "type": "event"
    },
    {
      "anonymous": false,
      "inputs": [
        {
          "indexed": false,
          "internalType": "address",
          "name": "account",
          "type": "address"
        }
      ],
      "name": "Unpaused",
      "type": "event"
    },
    {
      "inputs": [],
      "name": "pause",
      "outputs": [],
      "stateMutability": "nonpayable",
      "type": "function"
    },
    {
      "inputs": [],
      "name": "paused",
      "outputs": [
        {
          "internalType": "bool",
          "name": "status",
          "type": "bool"
        }
      ],
      "stateMutability": "view",
      "type": "function"
    },
    {
      "inputs": [],
      "name": "unpause",
      "outputs": [],
      "stateMutability": "nonpayable",
      "type": "function"
    }
  ],
  "bytecode": {
    "object": "0x608060405234801561001057600080fd5b50610288806100206000396000f3fe608060405234801561001057600080fd5b50600436106100415760003560e01c80633f4ba83a146100465780635c975abb146100505780638456cb591461006c575b600080fd5b61004e610074565b005b6100586100c8565b604051901515815260200160405180910390f35b61004e6100e8565b7f8a22373512790c48b83a1fe2efdd2888d4a917bcdc24d0adf63e60f671680460546001600160a01b031633146100be57604051632f7a8ee160e01b815260040160405180910390fd5b6100c661013a565b565b60006100e36000805160206102338339815191525460ff1690565b905090565b7f8a22373512790c48b83a1fe2efdd2888d4a917bcdc24d0adf63e60f671680460546001600160a01b0316331461013257604051632f7a8ee160e01b815260040160405180910390fd5b6100c66101b7565b6000805160206102338339815191525460ff1661016a57604051632ca4452d60e11b815260040160405180910390fd5b600080516020610233833981519152805460ff191690556040513381527f5db9ee0a495bf2e6ff9c91a7834c1ba4fdd244a5e8aa4e537bd38aeae4b073aa906020015b60405180910390a1565b6000805160206102338339815191525460ff16156101e8576040516302ca8ced60e11b815260040160405180910390fd5b600080516020610233833981519152805460ff191660011790556040513381527f62e78cea01bee320cd4e420270b5ea74000d11b0c9f74754ebdbfc544b05a258906020016101ad56fe68721c0bbf2c02a4d65000340d1370666be06a630022208d4baa9bd7a4b6fea8a26469706673582212203b5adc458cc15663a1b8bf233a9a6e69cf7cfeb0c38d2d41bd934b5313b4770864736f6c63430008140033",
    "linkReferences": {}
  },
  "methodIdentifiers": {
    "pause()": "8456cb59",
    "paused()": "5c975abb",
    "unpause()": "3f4ba83a"
  },
  "id": 39
}