{
  "abi": [
    {
      "inputs": [],
      "name": "BalanceQueryForZeroAddress",
      "type": "error"
    },
    {
      "inputs": [],
      "name": "EditionsDisabled",
      "type": "error"
    },
    {
      "inputs": [],
      "name": "InvalidEditionIndex",
      "type": "error"
    },
    {
      "inputs": [],
      "name": "InvalidQueryRange",
      "type": "error"
    },
    {
      "inputs": [],
      "name": "OwnerQueryForNonexistentToken",
      "type": "error"
    },
    {
      "inputs": [],
      "name": "OwnerQueryForNonexistentToken",
      "type": "error"
    },
    {
      "inputs": [
        {
          "internalType": "uint256",
          "name": "tokenId",
          "type": "uint256"
        }
      ],
      "name": "explicitOwnershipOf",
      "outputs": [
        {
          "components": [
            {
              "internalType": "address",
              "name": "addr",
              "type": "address"
            },
            {
              "internalType": "uint64",
              "name": "startTimestamp",
              "type": "uint64"
            },
            {
              "internalType": "bool",
              "name": "burned",
              "type": "bool"
            },
            {
              "internalType": "uint24",
              "name": "extraData",
              "type": "uint24"
            }
          ],
          "internalType": "struct IERC721AQueryable.TokenOwnership",
          "name": "",
          "type": "tuple"
        }
      ],
      "stateMutability": "view",
      "type": "function"
    },
    {
      "inputs": [
        {
          "internalType": "uint256[]",
          "name": "tokenIds",
          "type": "uint256[]"
        }
      ],
      "name": "explicitOwnershipsOf",
      "outputs": [
        {
          "components": [
            {
              "internalType": "address",
              "name": "addr",
              "type": "address"
            },
            {
              "internalType": "uint64",
              "name": "startTimestamp",
              "type": "uint64"
            },
            {
              "internalType": "bool",
              "name": "burned",
              "type": "bool"
            },
            {
              "internalType": "uint24",
              "name": "extraData",
              "type": "uint24"
            }
          ],
          "internalType": "struct IERC721AQueryable.TokenOwnership[]",
          "name": "",
          "type": "tuple[]"
        }
      ],
      "stateMutability": "view",
      "type": "function"
    },
    {
      "inputs": [
        {
          "internalType": "uint256",
          "name": "_tokenId",
          "type": "uint256"
        }
      ],
      "name": "getEditionIndex",
      "outputs": [
        {
          "internalType": "uint256",
          "name": "",
          "type": "uint256"
        }
      ],
      "stateMutability": "view",
      "type": "function"
    },
    {
      "inputs": [
        {
          "internalType": "address",
          "name": "_owner",
          "type": "address"
        }
      ],
      "name": "getEditionsByOwner",
      "outputs": [
        {
          "internalType": "uint256[]",
          "name": "",
          "type": "uint256[]"
        }
      ],
      "stateMutability": "view",
      "type": "function"
    },
    {
      "inputs": [],
      "name": "getOwners",
      "outputs": [
        {
          "internalType": "address[]",
          "name": "",
          "type": "address[]"
        }
      ],
      "stateMutability": "view",
      "type": "function"
    },
    {
      "inputs": [
        {
          "internalType": "uint256",
          "name": "_editionIndex",
          "type": "uint256"
        }
      ],
      "name": "getOwners",
      "outputs": [
        {
          "internalType": "address[]",
          "name": "",
          "type": "address[]"
        }
      ],
      "stateMutability": "view",
      "type": "function"
    },
    {
      "inputs": [
        {
          "internalType": "address",
          "name": "_owner",
          "type": "address"
        }
      ],
      "name": "getTokensByOwner",
      "outputs": [
        {
          "internalType": "uint256[]",
          "name": "",
          "type": "uint256[]"
        }
      ],
      "stateMutability": "view",
      "type": "function"
    },
    {
      "inputs": [
        {
          "internalType": "address",
          "name": "_owner",
          "type": "address"
        },
        {
          "internalType": "uint256",
          "name": "_editionIndex",
          "type": "uint256"
        }
      ],
      "name": "getTokensByOwner",
      "outputs": [
        {
          "internalType": "uint256[]",
          "name": "",
          "type": "uint256[]"
        }
      ],
      "stateMutability": "view",
      "type": "function"
    },
    {
      "inputs": [
        {
          "internalType": "address",
          "name": "_owner",
          "type": "address"
        },
        {
          "internalType": "uint256",
          "name": "editionIndex",
          "type": "uint256"
        }
      ],
      "name": "ownsEdition",
      "outputs": [
        {
          "internalType": "bool",
          "name": "",
          "type": "bool"
        }
      ],
      "stateMutability": "view",
      "type": "function"
    },
    {
      "inputs": [
        {
          "internalType": "address",
          "name": "owner",
          "type": "address"
        }
      ],
      "name": "tokensOfOwner",
      "outputs": [
        {
          "internalType": "uint256[]",
          "name": "",
          "type": "uint256[]"
        }
      ],
      "stateMutability": "view",
      "type": "function"
    },
    {
      "inputs": [
        {
          "internalType": "address",
          "name": "owner",
          "type": "address"
        },
        {
          "internalType": "uint256",
          "name": "start",
          "type": "uint256"
        },
        {
          "internalType": "uint256",
          "name": "stop",
          "type": "uint256"
        }
      ],
      "name": "tokensOfOwnerIn",
      "outputs": [
        {
          "internalType": "uint256[]",
          "name": "",
          "type": "uint256[]"
        }
      ],
      "stateMutability": "view",
      "type": "function"
    }
  ],
  "bytecode": {
    "object": "0x608060405234801561001057600080fd5b50610f14806100206000396000f3fe608060405234801561001057600080fd5b50600436106100a95760003560e01c80638462151c116100715780638462151c1461014e57806399a2557a146101615780639f6cfaa214610174578063a0e67e2b14610187578063c23dc68f1461019c578063ee4525d5146101bc57600080fd5b80631e030939146100ae57806340398d67146100d75780635bbb2177146100ea5780636e563cdf1461010a5780636f2e2f271461012b575b600080fd5b6100c16100bc366004610c5f565b6101cf565b6040516100ce9190610c7a565b60405180910390f35b6100c16100e5366004610c5f565b61025b565b6100fd6100f8366004610cb2565b61026c565b6040516100ce9190610d64565b61011d610118366004610da6565b610338565b6040519081526020016100ce565b61013e610139366004610dbf565b610398565b60405190151581526020016100ce565b6100c161015c366004610c5f565b6103b0565b6100c161016f366004610de9565b6104b9565b6100c1610182366004610dbf565b61063b565b61018f6106b6565b6040516100ce9190610e1c565b6101af6101aa366004610da6565b6107b2565b6040516100ce9190610e5d565b61018f6101ca366004610da6565b610846565b606060006101dc836103b0565b6040805160008082526020820190925282519293509181905b808310156102505761021f85848151811061021257610212610e81565b602002602001015161095b565b6060015162ffffff1691506102348483610990565b6102455761024284836109e6565b93505b8260010192506101f5565b509195945050505050565b6060610266826103b0565b92915050565b60608160008167ffffffffffffffff81111561028a5761028a610e6b565b6040519080825280602002602001820160405280156102dc57816020015b6040805160808101825260008082526020808301829052928201819052606082015282526000199092019101816102a85790505b50905060005b82811461032f5761030a8686838181106102fe576102fe610e81565b905060200201356107b2565b82828151811061031c5761031c610e81565b60209081029190910101526001016102e2565b50949350505050565b7f22f7a7bee1f0ff7ad985b3310523bd6e78af9b5dd151f1710f5f1cd082ec691780546000919060ff1661037f576040516332b5467d60e01b815260040160405180910390fd5b6103888361095b565b6060015162ffffff169392505050565b6000806103a5848461063b565b511515949350505050565b606060008060006103c085610aa6565b905060008167ffffffffffffffff8111156103dd576103dd610e6b565b604051908082528060200260200182016040528015610406578160200160208202803683370190505b50905061043360408051608081018252600080825260208201819052918101829052606081019190915290565b60005b8386146104ad5761044681610b14565b915081604001516104a55781516001600160a01b03161561046657815194505b876001600160a01b0316856001600160a01b0316036104a5578083878060010198508151811061049857610498610e81565b6020026020010181815250505b600101610436565b50909695505050505050565b6060600080516020610ebf8339815191528284106104ea57604051631960ccad60e11b815260040160405180910390fd5b8054600090808511156104fb578094505b600061050688610aa6565b905085871015610525578686038181101561051f578091505b50610529565b5060005b60008167ffffffffffffffff81111561054457610544610e6b565b60405190808252806020026020018201604052801561056d578160200160208202803683370190505b509050816000036105845794506106349350505050565b600061058f896107b2565b9050600081604001516105a0575080515b895b8981141580156105b25750848714155b15610627576105c081610b14565b9250826040015161061f5782516001600160a01b0316156105e057825191505b8b6001600160a01b0316826001600160a01b03160361061f578084888060010199508151811061061257610612610e81565b6020026020010181815250505b6001016105a2565b5050509283525090925050505b9392505050565b60606000610648846103b0565b8051909150606060005b828110156106ac578561067085838151811061021257610212610e81565b6060015162ffffff16036106a4576106a18285838151811061069457610694610e81565b60200260200101516109e6565b91505b600101610652565b5095945050505050565b600080516020610ebf83398151915280546060919060009067ffffffffffffffff8111156106e6576106e6610e6b565b60405190808252806020026020018201604052801561070f578160200160208202803683370190505b508254909150600080805b838310156107a757505060008181526004850160205260408120548291600160e01b8216900361079c575b806000036107685750600019016000818152600486016020526040902054610745565b8085848151811061077b5761077b610e81565b60200260200101906001600160a01b031690816001600160a01b0316815250505b82600101925061071a565b509295945050505050565b604080516080810182526000808252602082018190529181018290526060810191909152604080516080810182526000808252602082018190529181018290526060810191909152600080516020610ebf8339815191529081548410610819579392505050565b61082284610b14565b9050806040015115610835579392505050565b61083e8461095b565b949350505050565b600080516020610ebf83398151915280546060919060009067ffffffffffffffff81111561087657610876610e6b565b60405190808252806020026020018201604052801561089f578160200160208202803683370190505b508254909150600080805b8383101561094f57505060008181526004850160205260408120548291600160e01b82169003610944575b806000036108f857506000190160008181526004860160205260409020546108d5565b876109028361095b565b6060015162ffffff1603610944578085848151811061092357610923610e81565b60200260200101906001600160a01b031690816001600160a01b0316815250505b8260010192506108aa565b50929695505050505050565b60408051608081018252600080825260208201819052918101829052606081019190915261026661098b83610b7f565b610bfb565b815160009081905b808210156109db57838583815181106109b3576109b3610e81565b6020026020010151036109cb57600192505050610266565b6109d482610e97565b9150610998565b506000949350505050565b815160609060006001820167ffffffffffffffff811115610a0957610a09610e6b565b604051908082528060200260200182016040528015610a32578160200160208202803683370190505b50905060005b82811015610a7f57858181518110610a5257610a52610e81565b6020026020010151828281518110610a6c57610a6c610e81565b6020908102919091010152600101610a38565b84828281518110610a9257610a92610e81565b602090810291909101015250949350505050565b60006001600160a01b038216610acf576040516323d3ad8160e21b815260040160405180910390fd5b506001600160a01b031660009081527fd71f56830ccd643bda4d966483f496c024b01867c423fce4b51d4352a0754401602052604090205467ffffffffffffffff1690565b60408051608081018252600080825260208201819052918101829052606081019190915260008281527fd71f56830ccd643bda4d966483f496c024b01867c423fce4b51d4352a07544006020526040902054600080516020610ebf8339815191529061063490610bfb565b600080600080516020610ebf8339815191529050828154811015610be257600081815260048301602052604081205490600160e01b82169003610be0575b8060000361083e5750600019016000818152600483016020526040902054610bbd565b505b604051636f96cda160e11b815260040160405180910390fd5b604080516080810182526001600160a01b038316815260a083901c67ffffffffffffffff166020820152600160e01b831615159181019190915260e89190911c606082015290565b80356001600160a01b0381168114610c5a57600080fd5b919050565b600060208284031215610c7157600080fd5b61063482610c43565b6020808252825182820181905260009190848201906040850190845b818110156104ad57835183529284019291840191600101610c96565b60008060208385031215610cc557600080fd5b823567ffffffffffffffff80821115610cdd57600080fd5b818501915085601f830112610cf157600080fd5b813581811115610d0057600080fd5b8660208260051b8501011115610d1557600080fd5b60209290920196919550909350505050565b80516001600160a01b0316825260208082015167ffffffffffffffff169083015260408082015115159083015260609081015162ffffff16910152565b6020808252825182820181905260009190848201906040850190845b818110156104ad57610d93838551610d27565b9284019260809290920191600101610d80565b600060208284031215610db857600080fd5b5035919050565b60008060408385031215610dd257600080fd5b610ddb83610c43565b946020939093013593505050565b600080600060608486031215610dfe57600080fd5b610e0784610c43565b95602085013595506040909401359392505050565b6020808252825182820181905260009190848201906040850190845b818110156104ad5783516001600160a01b031683529284019291840191600101610e38565b608081016102668284610d27565b634e487b7160e01b600052604160045260246000fd5b634e487b7160e01b600052603260045260246000fd5b600060018201610eb757634e487b7160e01b600052601160045260246000fd5b506001019056fed71f56830ccd643bda4d966483f496c024b01867c423fce4b51d4352a07543fca2646970667358221220e0b73caf7d1e92402ca5721db6ae9114f15128ca51d9ba876f51ebfcc552e15964736f6c63430008140033",
    "linkReferences": {}
  },
  "methodIdentifiers": {
    "explicitOwnershipOf(uint256)": "c23dc68f",
    "explicitOwnershipsOf(uint256[])": "5bbb2177",
    "getEditionIndex(uint256)": "6e563cdf",
    "getEditionsByOwner(address)": "1e030939",
    "getOwners()": "a0e67e2b",
    "getOwners(uint256)": "ee4525d5",
    "getTokensByOwner(address)": "40398d67",
    "getTokensByOwner(address,uint256)": "9f6cfaa2",
    "ownsEdition(address,uint256)": "6f2e2f27",
    "tokensOfOwner(address)": "8462151c",
    "tokensOfOwnerIn(address,uint256,uint256)": "99a2557a"
  },
  "id": 20
}