{
  "abi": [
    {
      "inputs": [],
      "name": "InvalidPayee",
      "type": "error"
    },
    {
      "inputs": [],
      "name": "Ownable__NotOwner",
      "type": "error"
    },
    {
      "inputs": [],
      "name": "Ownable__NotTransitiveOwner",
      "type": "error"
    },
    {
      "inputs": [],
      "name": "PayeeNotSender",
      "type": "error"
    },
    {
      "inputs": [],
      "name": "PaymentSplitterAlreadyHasShares",
      "type": "error"
    },
    {
      "inputs": [],
      "name": "PaymentSplitterMismatch",
      "type": "error"
    },
    {
      "inputs": [],
      "name": "PaymentSplitterNoPayees",
      "type": "error"
    },
    {
      "inputs": [],
      "name": "PaymentSplitterZeroAddress",
      "type": "error"
    },
    {
      "inputs": [],
      "name": "PaymentSplitterZeroFundsDue",
      "type": "error"
    },
    {
      "inputs": [],
      "name": "PaymentSplitterZeroShares",
      "type": "error"
    },
    {
      "anonymous": false,
      "inputs": [
        {
          "indexed": true,
          "internalType": "contract IERC20",
          "name": "token",
          "type": "address"
        },
        {
          "indexed": false,
          "internalType": "address",
          "name": "to",
          "type": "address"
        },
        {
          "indexed": false,
          "internalType": "uint256",
          "name": "amount",
          "type": "uint256"
        }
      ],
      "name": "ERC20PaymentReleased",
      "type": "event"
    },
    {
      "anonymous": false,
      "inputs": [
        {
          "indexed": true,
          "internalType": "address",
          "name": "previousOwner",
          "type": "address"
        },
        {
          "indexed": true,
          "internalType": "address",
          "name": "newOwner",
          "type": "address"
        }
      ],
      "name": "OwnershipTransferred",
      "type": "event"
    },
    {
      "anonymous": false,
      "inputs": [
        {
          "indexed": false,
          "internalType": "address",
          "name": "account",
          "type": "address"
        },
        {
          "indexed": false,
          "internalType": "uint256",
          "name": "shares",
          "type": "uint256"
        }
      ],
      "name": "PayeeAdded",
      "type": "event"
    },
    {
      "anonymous": false,
      "inputs": [
        {
          "indexed": false,
          "internalType": "address",
          "name": "from",
          "type": "address"
        },
        {
          "indexed": false,
          "internalType": "uint256",
          "name": "amount",
          "type": "uint256"
        }
      ],
      "name": "PaymentReceived",
      "type": "event"
    },
    {
      "anonymous": false,
      "inputs": [
        {
          "indexed": false,
          "internalType": "address",
          "name": "to",
          "type": "address"
        },
        {
          "indexed": false,
          "internalType": "uint256",
          "name": "amount",
          "type": "uint256"
        }
      ],
      "name": "PaymentReleased",
      "type": "event"
    },
    {
      "inputs": [
        {
          "internalType": "address",
          "name": "account",
          "type": "address"
        },
        {
          "internalType": "uint256",
          "name": "shares_",
          "type": "uint256"
        }
      ],
      "name": "addPayee",
      "outputs": [],
      "stateMutability": "nonpayable",
      "type": "function"
    },
    {
      "inputs": [
        {
          "internalType": "uint256",
          "name": "index",
          "type": "uint256"
        }
      ],
      "name": "payee",
      "outputs": [
        {
          "internalType": "address",
          "name": "",
          "type": "address"
        }
      ],
      "stateMutability": "view",
      "type": "function"
    },
    {
      "inputs": [
        {
          "internalType": "address",
          "name": "account",
          "type": "address"
        }
      ],
      "name": "releasable",
      "outputs": [
        {
          "internalType": "uint256",
          "name": "",
          "type": "uint256"
        }
      ],
      "stateMutability": "view",
      "type": "function"
    },
    {
      "inputs": [
        {
          "internalType": "contract IERC20",
          "name": "token",
          "type": "address"
        },
        {
          "internalType": "address",
          "name": "account",
          "type": "address"
        }
      ],
      "name": "releasable",
      "outputs": [
        {
          "internalType": "uint256",
          "name": "",
          "type": "uint256"
        }
      ],
      "stateMutability": "view",
      "type": "function"
    },
    {
      "inputs": [
        {
          "internalType": "address payable",
          "name": "account",
          "type": "address"
        }
      ],
      "name": "release",
      "outputs": [],
      "stateMutability": "nonpayable",
      "type": "function"
    },
    {
      "inputs": [
        {
          "internalType": "contract IERC20",
          "name": "token",
          "type": "address"
        },
        {
          "internalType": "address",
          "name": "account",
          "type": "address"
        }
      ],
      "name": "release",
      "outputs": [],
      "stateMutability": "nonpayable",
      "type": "function"
    },
    {
      "inputs": [
        {
          "internalType": "contract IERC20",
          "name": "token",
          "type": "address"
        },
        {
          "internalType": "address",
          "name": "account",
          "type": "address"
        }
      ],
      "name": "released",
      "outputs": [
        {
          "internalType": "uint256",
          "name": "",
          "type": "uint256"
        }
      ],
      "stateMutability": "view",
      "type": "function"
    },
    {
      "inputs": [
        {
          "internalType": "address",
          "name": "account",
          "type": "address"
        }
      ],
      "name": "released",
      "outputs": [
        {
          "internalType": "uint256",
          "name": "",
          "type": "uint256"
        }
      ],
      "stateMutability": "view",
      "type": "function"
    },
    {
      "inputs": [
        {
          "internalType": "address",
          "name": "account",
          "type": "address"
        }
      ],
      "name": "shares",
      "outputs": [
        {
          "internalType": "uint256",
          "name": "",
          "type": "uint256"
        }
      ],
      "stateMutability": "view",
      "type": "function"
    },
    {
      "inputs": [
        {
          "internalType": "contract IERC20",
          "name": "token",
          "type": "address"
        }
      ],
      "name": "totalReleased",
      "outputs": [
        {
          "internalType": "uint256",
          "name": "",
          "type": "uint256"
        }
      ],
      "stateMutability": "view",
      "type": "function"
    },
    {
      "inputs": [],
      "name": "totalReleased",
      "outputs": [
        {
          "internalType": "uint256",
          "name": "",
          "type": "uint256"
        }
      ],
      "stateMutability": "view",
      "type": "function"
    },
    {
      "inputs": [],
      "name": "totalShares",
      "outputs": [
        {
          "internalType": "uint256",
          "name": "",
          "type": "uint256"
        }
      ],
      "stateMutability": "view",
      "type": "function"
    },
    {
      "inputs": [
        {
          "internalType": "address",
          "name": "_newPayee",
          "type": "address"
        }
      ],
      "name": "updatePaymentSplitterAddress",
      "outputs": [
        {
          "internalType": "bool",
          "name": "success",
          "type": "bool"
        }
      ],
      "stateMutability": "nonpayable",
      "type": "function"
    }
  ],
  "bytecode": {
    "object": "0x608060405234801561001057600080fd5b5061100b806100206000396000f3fe608060405234801561001057600080fd5b50600436106100cf5760003560e01c80639852595c1161008c578063c45ac05011610066578063c45ac050146101b1578063ce7c2ac2146101c4578063d79779b2146101d7578063e33b7de3146101ea57600080fd5b80639852595c14610168578063a3f8eace1461017b578063aeed04a61461018e57600080fd5b806318f9b023146100d457806319165587146100e95780633a98ef39146100fc578063406072a91461011757806348b750441461012a5780638b83209b1461013d575b600080fd5b6100e76100e2366004610da8565b6101f2565b005b6100e76100f7366004610dd4565b61024a565b610104610256565b6040519081526020015b60405180910390f35b610104610125366004610df1565b610273565b6100e7610138366004610df1565b610288565b61015061014b366004610e2a565b610292565b6040516001600160a01b03909116815260200161010e565b610104610176366004610dd4565b61029d565b610104610189366004610dd4565b6102a8565b6101a161019c366004610dd4565b6102b3565b604051901515815260200161010e565b6101046101bf366004610df1565b610400565b6101046101d2366004610dd4565b61040c565b6101046101e5366004610dd4565b610437565b610104610442565b7f8a22373512790c48b83a1fe2efdd2888d4a917bcdc24d0adf63e60f671680460546001600160a01b0316331461023c57604051632f7a8ee160e01b815260040160405180910390fd5b610246828261046c565b5050565b610253816105a3565b50565b600061026e600080516020610f968339815191525490565b905090565b600061027f83836106a7565b90505b92915050565b61024682826106f1565b600061028282610827565b600061028282610867565b6000610282826108a1565b336000818152600080516020610fb683398151915260205260408120549091600080516020610f9683398151915291830361030157604051631670f44760e31b815260040160405180910390fd5b6001600160a01b03808216600081815260028501602081815260408084208054968b168086528286209790975585855260038901835281852080549786529185209690965593835292829055909152908190556004830154905b818110156103f757826001600160a01b031684600401828154811061038257610382610e43565b6000918252602090912001546001600160a01b0316036103e757858460040182815481106103b2576103b2610e43565b600091825260209091200180546001600160a01b0319166001600160a01b039290921691909117905550600195945050505050565b6103f081610e6f565b905061035b565b50505050919050565b600061027f83836108f2565b6001600160a01b0381166000908152600080516020610fb68339815191526020526040812054610282565b600061028282610989565b600061026e7f2f0e6a593a089007647f3882f40330070569292cc3d7e2a73800c263f213916c5490565b6001600160a01b038216610493576040516381233f9960e01b815260040160405180910390fd5b806000036104b457604051632a9cdfa160e01b815260040160405180910390fd5b6001600160a01b0382166000908152600080516020610fb68339815191526020526040902054600080516020610f9683398151915290156105085760405163a1ccf6ef60e01b815260040160405180910390fd5b6004810180546001810182556000918252602080832090910180546001600160a01b0319166001600160a01b0387169081179091558252600283019052604090208290558054610559908390610e88565b8155604080516001600160a01b0385168152602081018490527f40c340f65e17194d14ddddb073d3c9f888e3cb52b5aae0c6c7706b4fbc905fac91015b60405180910390a1505050565b6001600160a01b0381166000908152600080516020610fb68339815191526020526040812054600080516020610f9683398151915291036105f757604051632a9cdfa160e01b815260040160405180910390fd5b6000610602836108a1565b9050806000036106255760405163338d9da560e21b815260040160405180910390fd5b808260010160008282546106399190610e88565b90915550506001600160a01b0383166000908152600383016020526040902080548201905561066883826109c3565b604080516001600160a01b0385168152602081018390527fdf20fd1e76bc69d672e4814fafb2c449bba3a5369d8359adf9e05e6fde87b0569101610596565b6001600160a01b0391821660009081527f2f0e6a593a089007647f3882f40330070569292cc3d7e2a73800c263f21391716020908152604080832093909416825291909152205490565b6001600160a01b0381166000908152600080516020610fb68339815191526020526040812054600080516020610f96833981519152910361074557604051632a9cdfa160e01b815260040160405180910390fd5b600061075184846108f2565b9050806000036107745760405163338d9da560e21b815260040160405180910390fd5b6001600160a01b03841660009081526005830160205260408120805483929061079e908490610e88565b90915550506001600160a01b03808516600090815260068401602090815260408083209387168352929052208054820190556107db848483610ae6565b604080516001600160a01b038581168252602082018490528616917f3be5b7a71e84ed12875d241991c70855ac5817d847039e17a9d895c1ceb0f18a910160405180910390a250505050565b6000600080516020610f96833981519152600401828154811061084c5761084c610e43565b6000918252602090912001546001600160a01b031692915050565b6001600160a01b031660009081527f2f0e6a593a089007647f3882f40330070569292cc3d7e2a73800c263f213916e602052604090205490565b6000806108cc7f2f0e6a593a089007647f3882f40330070569292cc3d7e2a73800c263f213916c5490565b6108d69047610e88565b90506108eb83826108e686610867565b610b38565b9392505050565b6000806108fe84610989565b6040516370a0823160e01b81523060048201526001600160a01b038616906370a0823190602401602060405180830381865afa158015610942573d6000803e3d6000fd5b505050506040513d601f19601f820116820180604052508101906109669190610e9b565b6109709190610e88565b905061098183826108e687876106a7565b949350505050565b6001600160a01b031660009081527f2f0e6a593a089007647f3882f40330070569292cc3d7e2a73800c263f2139170602052604090205490565b80471015610a185760405162461bcd60e51b815260206004820152601d60248201527f416464726573733a20696e73756666696369656e742062616c616e636500000060448201526064015b60405180910390fd5b6000826001600160a01b03168260405160006040518083038185875af1925050503d8060008114610a65576040519150601f19603f3d011682016040523d82523d6000602084013e610a6a565b606091505b5050905080610ae15760405162461bcd60e51b815260206004820152603a60248201527f416464726573733a20756e61626c6520746f2073656e642076616c75652c207260448201527f6563697069656e74206d617920686176652072657665727465640000000000006064820152608401610a0f565b505050565b604080516001600160a01b038416602482015260448082018490528251808303909101815260649091019091526020810180516001600160e01b031663a9059cbb60e01b179052610ae1908490610b9b565b600080516020610f9683398151915280546001600160a01b0385166000908152600080516020610fb683398151915260205260408120549092918491610b7e9087610eb4565b610b889190610ecb565b610b929190610eed565b95945050505050565b6000610bf0826040518060400160405280602081526020017f5361666545524332303a206c6f772d6c6576656c2063616c6c206661696c6564815250856001600160a01b0316610c709092919063ffffffff16565b9050805160001480610c11575080806020019051810190610c119190610f00565b610ae15760405162461bcd60e51b815260206004820152602a60248201527f5361666545524332303a204552433230206f7065726174696f6e20646964206e6044820152691bdd081cdd58d8d9595960b21b6064820152608401610a0f565b6060610981848460008585600080866001600160a01b03168587604051610c979190610f46565b60006040518083038185875af1925050503d8060008114610cd4576040519150601f19603f3d011682016040523d82523d6000602084013e610cd9565b606091505b5091509150610cea87838387610cf5565b979650505050505050565b60608315610d64578251600003610d5d576001600160a01b0385163b610d5d5760405162461bcd60e51b815260206004820152601d60248201527f416464726573733a2063616c6c20746f206e6f6e2d636f6e74726163740000006044820152606401610a0f565b5081610981565b6109818383815115610d795781518083602001fd5b8060405162461bcd60e51b8152600401610a0f9190610f62565b6001600160a01b038116811461025357600080fd5b60008060408385031215610dbb57600080fd5b8235610dc681610d93565b946020939093013593505050565b600060208284031215610de657600080fd5b81356108eb81610d93565b60008060408385031215610e0457600080fd5b8235610e0f81610d93565b91506020830135610e1f81610d93565b809150509250929050565b600060208284031215610e3c57600080fd5b5035919050565b634e487b7160e01b600052603260045260246000fd5b634e487b7160e01b600052601160045260246000fd5b600060018201610e8157610e81610e59565b5060010190565b8082018082111561028257610282610e59565b600060208284031215610ead57600080fd5b5051919050565b808202811582820484141761028257610282610e59565b600082610ee857634e487b7160e01b600052601260045260246000fd5b500490565b8181038181111561028257610282610e59565b600060208284031215610f1257600080fd5b815180151581146108eb57600080fd5b60005b83811015610f3d578181015183820152602001610f25565b50506000910152565b60008251610f58818460208701610f22565b9190910192915050565b6020815260008251806020840152610f81816040850160208701610f22565b601f01601f1916919091016040019291505056fe2f0e6a593a089007647f3882f40330070569292cc3d7e2a73800c263f213916b2f0e6a593a089007647f3882f40330070569292cc3d7e2a73800c263f213916da2646970667358221220f8d3a3c50d6ba0dabe8664045954548209f9075d7f973377a975999f2210d73864736f6c63430008140033",
    "linkReferences": {}
  },
  "methodIdentifiers": {
    "addPayee(address,uint256)": "18f9b023",
    "payee(uint256)": "8b83209b",
    "releasable(address)": "a3f8eace",
    "releasable(address,address)": "c45ac050",
    "release(address)": "19165587",
    "release(address,address)": "48b75044",
    "released(address)": "9852595c",
    "released(address,address)": "406072a9",
    "shares(address)": "ce7c2ac2",
    "totalReleased()": "e33b7de3",
    "totalReleased(address)": "d79779b2",
    "totalShares()": "3a98ef39",
    "updatePaymentSplitterAddress(address)": "aeed04a6"
  },
  "id": 40
}