{
  "abi": [
    {
      "inputs": [],
      "stateMutability": "payable",
      "type": "constructor"
    },
    {
      "inputs": [],
      "name": "AccountAlreadyAllowListed",
      "type": "error"
    },
    {
      "inputs": [],
      "name": "AccountNotAllowListed",
      "type": "error"
    },
    {
      "inputs": [],
      "name": "AllowListAmountExceeded",
      "type": "error"
    },
    {
      "inputs": [],
      "name": "AllowListDisabled",
      "type": "error"
    },
    {
      "inputs": [],
      "name": "AllowListEnabled",
      "type": "error"
    },
    {
      "inputs": [],
      "name": "AllowListMintUnopened",
      "type": "error"
    },
    {
      "inputs": [],
      "name": "ArrayLengthsDiffer",
      "type": "error"
    },
    {
      "inputs": [],
      "name": "ERC1155Base__ArrayLengthMismatch",
      "type": "error"
    },
    {
      "inputs": [],
      "name": "ERC1155Base__BalanceQueryZeroAddress",
      "type": "error"
    },
    {
      "inputs": [],
      "name": "ERC1155Base__BurnExceedsBalance",
      "type": "error"
    },
    {
      "inputs": [],
      "name": "ERC1155Base__BurnFromZeroAddress",
      "type": "error"
    },
    {
      "inputs": [],
      "name": "ERC1155Base__ERC1155ReceiverNotImplemented",
      "type": "error"
    },
    {
      "inputs": [],
      "name": "ERC1155Base__ERC1155ReceiverRejected",
      "type": "error"
    },
    {
      "inputs": [],
      "name": "ERC1155Base__MintToZeroAddress",
      "type": "error"
    },
    {
      "inputs": [],
      "name": "ERC1155Base__NotOwnerOrApproved",
      "type": "error"
    },
    {
      "inputs": [],
      "name": "ERC1155Base__SelfApproval",
      "type": "error"
    },
    {
      "inputs": [],
      "name": "ERC1155Base__TransferExceedsBalance",
      "type": "error"
    },
    {
      "inputs": [],
      "name": "ERC1155Base__TransferToZeroAddress",
      "type": "error"
    },
    {
      "inputs": [],
      "name": "ERC165Base__InvalidInterfaceId",
      "type": "error"
    },
    {
      "inputs": [],
      "name": "EnumerableSet__IndexOutOfBounds",
      "type": "error"
    },
    {
      "inputs": [],
      "name": "ExceedsMaxSupply",
      "type": "error"
    },
    {
      "inputs": [],
      "name": "InvalidAmount",
      "type": "error"
    },
    {
      "inputs": [],
      "name": "InvalidMaxSupply",
      "type": "error"
    },
    {
      "inputs": [],
      "name": "InvalidMintType",
      "type": "error"
    },
    {
      "inputs": [],
      "name": "InvalidTokenID",
      "type": "error"
    },
    {
      "inputs": [],
      "name": "MintNotOpen",
      "type": "error"
    },
    {
      "inputs": [],
      "name": "NotCrossmintUSDCToken",
      "type": "error"
    },
    {
      "inputs": [],
      "name": "NotOnAllowList",
      "type": "error"
    },
    {
      "inputs": [],
      "name": "Pausable__NotPaused",
      "type": "error"
    },
    {
      "inputs": [],
      "name": "Pausable__Paused",
      "type": "error"
    },
    {
      "anonymous": false,
      "inputs": [
        {
          "indexed": false,
          "internalType": "address",
          "name": "account",
          "type": "address"
        },
        {
          "indexed": false,
          "internalType": "uint256",
          "name": "allowance",
          "type": "uint256"
        }
      ],
      "name": "AllowListAdded",
      "type": "event"
    },
    {
      "anonymous": false,
      "inputs": [
        {
          "indexed": false,
          "internalType": "address[]",
          "name": "accounts",
          "type": "address[]"
        },
        {
          "indexed": false,
          "internalType": "uint256",
          "name": "allowance",
          "type": "uint256"
        }
      ],
      "name": "AllowListAdded",
      "type": "event"
    },
    {
      "anonymous": false,
      "inputs": [
        {
          "indexed": false,
          "internalType": "uint256",
          "name": "tokenId",
          "type": "uint256"
        },
        {
          "indexed": false,
          "internalType": "address",
          "name": "account",
          "type": "address"
        },
        {
          "indexed": false,
          "internalType": "uint256",
          "name": "allowance",
          "type": "uint256"
        }
      ],
      "name": "AllowListAdded",
      "type": "event"
    },
    {
      "anonymous": false,
      "inputs": [
        {
          "indexed": false,
          "internalType": "uint256",
          "name": "tokenId",
          "type": "uint256"
        },
        {
          "indexed": false,
          "internalType": "address[]",
          "name": "accounts",
          "type": "address[]"
        },
        {
          "indexed": false,
          "internalType": "uint256",
          "name": "allowance",
          "type": "uint256"
        }
      ],
      "name": "AllowListAdded",
      "type": "event"
    },
    {
      "anonymous": false,
      "inputs": [
        {
          "indexed": false,
          "internalType": "address",
          "name": "account",
          "type": "address"
        }
      ],
      "name": "AllowListRemoved",
      "type": "event"
    },
    {
      "anonymous": false,
      "inputs": [
        {
          "indexed": false,
          "internalType": "address[]",
          "name": "accounts",
          "type": "address[]"
        }
      ],
      "name": "AllowListRemoved",
      "type": "event"
    },
    {
      "anonymous": false,
      "inputs": [
        {
          "indexed": false,
          "internalType": "uint256",
          "name": "tokenId",
          "type": "uint256"
        },
        {
          "indexed": false,
          "internalType": "address",
          "name": "account",
          "type": "address"
        }
      ],
      "name": "AllowListRemoved",
      "type": "event"
    },
    {
      "anonymous": false,
      "inputs": [
        {
          "indexed": false,
          "internalType": "uint256",
          "name": "tokenId",
          "type": "uint256"
        },
        {
          "indexed": false,
          "internalType": "address[]",
          "name": "accounts",
          "type": "address[]"
        }
      ],
      "name": "AllowListRemoved",
      "type": "event"
    },
    {
      "anonymous": false,
      "inputs": [
        {
          "indexed": false,
          "internalType": "bool",
          "name": "status",
          "type": "bool"
        }
      ],
      "name": "AllowListStatus",
      "type": "event"
    },
    {
      "anonymous": false,
      "inputs": [
        {
          "indexed": false,
          "internalType": "uint256",
          "name": "tokenId",
          "type": "uint256"
        },
        {
          "indexed": false,
          "internalType": "bool",
          "name": "status",
          "type": "bool"
        }
      ],
      "name": "AllowListStatus",
      "type": "event"
    },
    {
      "anonymous": false,
      "inputs": [
        {
          "indexed": true,
          "internalType": "address",
          "name": "account",
          "type": "address"
        },
        {
          "indexed": true,
          "internalType": "address",
          "name": "operator",
          "type": "address"
        },
        {
          "indexed": false,
          "internalType": "bool",
          "name": "approved",
          "type": "bool"
        }
      ],
      "name": "ApprovalForAll",
      "type": "event"
    },
    {
      "anonymous": false,
      "inputs": [
        {
          "indexed": false,
          "internalType": "address",
          "name": "account",
          "type": "address"
        }
      ],
      "name": "Paused",
      "type": "event"
    },
    {
      "anonymous": false,
      "inputs": [
        {
          "indexed": false,
          "internalType": "address",
          "name": "from",
          "type": "address"
        },
        {
          "indexed": false,
          "internalType": "uint256",
          "name": "amount",
          "type": "uint256"
        }
      ],
      "name": "PaymentReceived",
      "type": "event"
    },
    {
      "anonymous": false,
      "inputs": [
        {
          "indexed": true,
          "internalType": "address",
          "name": "operator",
          "type": "address"
        },
        {
          "indexed": true,
          "internalType": "address",
          "name": "from",
          "type": "address"
        },
        {
          "indexed": true,
          "internalType": "address",
          "name": "to",
          "type": "address"
        },
        {
          "indexed": false,
          "internalType": "uint256[]",
          "name": "ids",
          "type": "uint256[]"
        },
        {
          "indexed": false,
          "internalType": "uint256[]",
          "name": "values",
          "type": "uint256[]"
        }
      ],
      "name": "TransferBatch",
      "type": "event"
    },
    {
      "anonymous": false,
      "inputs": [
        {
          "indexed": true,
          "internalType": "address",
          "name": "operator",
          "type": "address"
        },
        {
          "indexed": true,
          "internalType": "address",
          "name": "from",
          "type": "address"
        },
        {
          "indexed": true,
          "internalType": "address",
          "name": "to",
          "type": "address"
        },
        {
          "indexed": false,
          "internalType": "uint256",
          "name": "id",
          "type": "uint256"
        },
        {
          "indexed": false,
          "internalType": "uint256",
          "name": "value",
          "type": "uint256"
        }
      ],
      "name": "TransferSingle",
      "type": "event"
    },
    {
      "anonymous": false,
      "inputs": [
        {
          "indexed": false,
          "internalType": "string",
          "name": "value",
          "type": "string"
        },
        {
          "indexed": true,
          "internalType": "uint256",
          "name": "tokenId",
          "type": "uint256"
        }
      ],
      "name": "URI",
      "type": "event"
    },
    {
      "anonymous": false,
      "inputs": [
        {
          "indexed": false,
          "internalType": "address",
          "name": "account",
          "type": "address"
        }
      ],
      "name": "Unpaused",
      "type": "event"
    },
    {
      "inputs": [
        {
          "internalType": "uint256",
          "name": "id",
          "type": "uint256"
        }
      ],
      "name": "accountsByToken",
      "outputs": [
        {
          "internalType": "address[]",
          "name": "",
          "type": "address[]"
        }
      ],
      "stateMutability": "view",
      "type": "function"
    },
    {
      "inputs": [
        {
          "internalType": "address",
          "name": "account",
          "type": "address"
        },
        {
          "internalType": "uint256",
          "name": "id",
          "type": "uint256"
        }
      ],
      "name": "balanceOf",
      "outputs": [
        {
          "internalType": "uint256",
          "name": "",
          "type": "uint256"
        }
      ],
      "stateMutability": "view",
      "type": "function"
    },
    {
      "inputs": [
        {
          "internalType": "address[]",
          "name": "accounts",
          "type": "address[]"
        },
        {
          "internalType": "uint256[]",
          "name": "ids",
          "type": "uint256[]"
        }
      ],
      "name": "balanceOfBatch",
      "outputs": [
        {
          "internalType": "uint256[]",
          "name": "",
          "type": "uint256[]"
        }
      ],
      "stateMutability": "view",
      "type": "function"
    },
    {
      "inputs": [
        {
          "internalType": "address",
          "name": "account",
          "type": "address"
        },
        {
          "internalType": "uint256",
          "name": "id",
          "type": "uint256"
        },
        {
          "internalType": "uint256",
          "name": "amount",
          "type": "uint256"
        }
      ],
      "name": "crossmintMint",
      "outputs": [],
      "stateMutability": "nonpayable",
      "type": "function"
    },
    {
      "inputs": [
        {
          "internalType": "address",
          "name": "account",
          "type": "address"
        },
        {
          "internalType": "uint256",
          "name": "packId",
          "type": "uint256"
        },
        {
          "internalType": "uint256",
          "name": "amount",
          "type": "uint256"
        }
      ],
      "name": "crossmintPackMint",
      "outputs": [],
      "stateMutability": "nonpayable",
      "type": "function"
    },
    {
      "inputs": [
        {
          "internalType": "address",
          "name": "account",
          "type": "address"
        },
        {
          "internalType": "address",
          "name": "operator",
          "type": "address"
        }
      ],
      "name": "isApprovedForAll",
      "outputs": [
        {
          "internalType": "bool",
          "name": "",
          "type": "bool"
        }
      ],
      "stateMutability": "view",
      "type": "function"
    },
    {
      "inputs": [
        {
          "internalType": "address",
          "name": "account",
          "type": "address"
        },
        {
          "internalType": "uint256",
          "name": "id",
          "type": "uint256"
        },
        {
          "internalType": "uint256",
          "name": "amount",
          "type": "uint256"
        },
        {
          "internalType": "enum ERC1155.MintType",
          "name": "mintType",
          "type": "uint8"
        }
      ],
      "name": "mint",
      "outputs": [],
      "stateMutability": "nonpayable",
      "type": "function"
    },
    {
      "inputs": [
        {
          "internalType": "address",
          "name": "from",
          "type": "address"
        },
        {
          "internalType": "address",
          "name": "to",
          "type": "address"
        },
        {
          "internalType": "uint256[]",
          "name": "ids",
          "type": "uint256[]"
        },
        {
          "internalType": "uint256[]",
          "name": "amounts",
          "type": "uint256[]"
        },
        {
          "internalType": "bytes",
          "name": "data",
          "type": "bytes"
        }
      ],
      "name": "safeBatchTransferFrom",
      "outputs": [],
      "stateMutability": "nonpayable",
      "type": "function"
    },
    {
      "inputs": [
        {
          "internalType": "address",
          "name": "from",
          "type": "address"
        },
        {
          "internalType": "address",
          "name": "to",
          "type": "address"
        },
        {
          "internalType": "uint256",
          "name": "id",
          "type": "uint256"
        },
        {
          "internalType": "uint256",
          "name": "amount",
          "type": "uint256"
        },
        {
          "internalType": "bytes",
          "name": "data",
          "type": "bytes"
        }
      ],
      "name": "safeTransferFrom",
      "outputs": [],
      "stateMutability": "nonpayable",
      "type": "function"
    },
    {
      "inputs": [
        {
          "internalType": "address",
          "name": "operator",
          "type": "address"
        },
        {
          "internalType": "bool",
          "name": "status",
          "type": "bool"
        }
      ],
      "name": "setApprovalForAll",
      "outputs": [],
      "stateMutability": "nonpayable",
      "type": "function"
    },
    {
      "inputs": [
        {
          "internalType": "bytes4",
          "name": "interfaceId",
          "type": "bytes4"
        }
      ],
      "name": "supportsInterface",
      "outputs": [
        {
          "internalType": "bool",
          "name": "",
          "type": "bool"
        }
      ],
      "stateMutability": "view",
      "type": "function"
    },
    {
      "inputs": [
        {
          "internalType": "address",
          "name": "account",
          "type": "address"
        }
      ],
      "name": "tokensByAccount",
      "outputs": [
        {
          "internalType": "uint256[]",
          "name": "",
          "type": "uint256[]"
        }
      ],
      "stateMutability": "view",
      "type": "function"
    },
    {
      "inputs": [
        {
          "internalType": "uint256",
          "name": "id",
          "type": "uint256"
        }
      ],
      "name": "totalHolders",
      "outputs": [
        {
          "internalType": "uint256",
          "name": "",
          "type": "uint256"
        }
      ],
      "stateMutability": "view",
      "type": "function"
    },
    {
      "inputs": [
        {
          "internalType": "uint256",
          "name": "id",
          "type": "uint256"
        }
      ],
      "name": "totalSupply",
      "outputs": [
        {
          "internalType": "uint256",
          "name": "",
          "type": "uint256"
        }
      ],
      "stateMutability": "view",
      "type": "function"
    },
    {
      "inputs": [
        {
          "internalType": "uint256",
          "name": "tokenId",
          "type": "uint256"
        }
      ],
      "name": "uri",
      "outputs": [
        {
          "internalType": "string",
          "name": "",
          "type": "string"
        }
      ],
      "stateMutability": "view",
      "type": "function"
    }
  ],
  "bytecode": {
    "object": "0x60a06040526200000e62000020565b6001600160a01b0316608052620000bd565b60006001461480620000335750617a6946145b1562000052575073a0b86991c6218b36c1d19d4a2e9eb0ce3606eb4890565b60894603620000745750732791bca1f2de4661ed88a30c99a7a9449aa8417490565b600546036200009657507398339d8c260052b7ad81c28c16c0b98420f2b46a90565b620138814603620000ba575073feca406da9727a25e71e732f9961f680059ef1f990565b90565b60805161299c620000e7600039600081816104a001528181610bb10152610ef2015261299c6000f3fe608060405234801561001057600080fd5b50600436106100f45760003560e01c80636451f53d11610097578063bd85b03911610066578063bd85b03914610216578063d6b9605014610229578063e985e9c51461023c578063f242432a1461024f57600080fd5b80636451f53d146101bd5780636dcfd841146101d057806385bff2e7146101f0578063a22cb4651461020357600080fd5b80630e89341c116100d35780630e89341c1461015757806313ba55df146101775780632eb2c2d61461018a5780634e1273f41461019d57600080fd5b8062fdd58e146100f957806301ffc9a71461011f5780630bf93dcb14610142575b600080fd5b61010c61010736600461206a565b610262565b6040519081526020015b60405180910390f35b61013261012d3660046120ad565b610277565b6040519015158152602001610116565b6101556101503660046120d1565b6102b8565b005b61016a610165366004612104565b6105dd565b604051610116919061216d565b61010c610185366004612104565b6107ac565b6101556101983660046122cc565b6107b7565b6101b06101ab366004612376565b610809565b604051610116919061247c565b6101556101cb3660046120d1565b610974565b6101e36101de366004612104565b611000565b604051610116919061248f565b6101b06101fe3660046124dc565b61100b565b610155610211366004612505565b611016565b61010c610224366004612104565b6110ca565b61015561023736600461253c565b6110fd565b61013261024a366004612588565b611169565b61015561025d3660046125bb565b6111b6565b600061026e8383611201565b90505b92915050565b6001600160e01b0319811660009081527ffc606c433378e3a7e0a6a531deac289b66caa1b4aa8554fd4ab2c6f1570f92d8602052604081205460ff16610271565b60008281527fc69eb5f2b1f69527d60d580fcb33cfddae1f4237df70e8a7f7b3bb15e86726506020526040812060028101547fc69eb5f2b1f69527d60d580fcb33cfddae1f4237df70e8a7f7b3bb15e8672643928167ffffffffffffffff81111561032557610325612180565b60405190808252806020026020018201604052801561034e578160200160208202803683370190505b50905060008060005b8483101561040d5785600201838154811061037457610374612620565b6000918252602080832090910154808352600a8a01909152604090912054909250905080156103fd5780886103d48460009081527fb31c2c74f86ca3ce94d901f5f5bbe66f7161eec2f7b5aa0b75a86371436424ea602052604090205490565b6103de919061264c565b11156103fd5760405163c30436e960e01b815260040160405180910390fd5b6104068361265f565b9250610357565b7f8a22373512790c48b83a1fe2efdd2888d4a917bcdc24d0adf63e60f671680460546001600160a01b031633146104635785600101544210156104635760405163951b974f60e01b815260040160405180910390fd5b600092505b8483101561049e578784848151811061048357610483612620565b60209081029190910101526104978361265f565b9250610468565b7f00000000000000000000000000000000000000000000000000000000000000006001600160a01b03166323b872dd33308b8a600001546104df9190612678565b6104eb90612710612678565b6040516001600160e01b031960e086901b1681526001600160a01b03938416600482015292909116602483015260448201526064016020604051808303816000875af115801561053f573d6000803e3d6000fd5b505050506040513d601f19601f82011682018060405250810190610563919061268f565b506105d18a876002018054806020026020016040519081016040528092919081815260200182805480156105b657602002820191906000526020600020905b8154815260200190600101908083116105a2575b5050505050866040518060200160405280600081525061125f565b50505050505050505050565b60008181527f4281b61aefbe70b3d3f684b428efca5f33077bc240e76f2808f9177c307617f56020526040812080546060927f4281b61aefbe70b3d3f684b428efca5f33077bc240e76f2808f9177c307617f492909161063c906126ac565b80601f0160208091040260200160405190810160405280929190818152602001828054610668906126ac565b80156106b55780601f1061068a576101008083540402835291602001916106b5565b820191906000526020600020905b81548152906001019060200180831161069857829003601f168201915b5050505050905060008260000180546106cd906126ac565b80601f01602080910402602001604051908101604052809291908181526020018280546106f9906126ac565b80156107465780601f1061071b57610100808354040283529160200191610746565b820191906000526020600020905b81548152906001019060200180831161072957829003601f168201915b50505050509050805160000361075e57509392505050565b8151156107915780826040516020016107789291906126e6565b6040516020818303038152906040529350505050919050565b8061079b866113b6565b6040516020016107789291906126e6565b6000610271826114bf565b6001600160a01b03851633148015906107d757506107d58533611169565b155b156107f4576040516212efed60e91b815260040160405180910390fd5b6108023386868686866114f5565b5050505050565b6060815183511461082d57604051633e7e0b6d60e11b815260040160405180910390fd5b82516000805160206129478339815191529060009067ffffffffffffffff81111561085a5761085a612180565b604051908082528060200260200182016040528015610883578160200160208202803683370190505b50905060005b855181101561096b5760006001600160a01b03168682815181106108af576108af612620565b60200260200101516001600160a01b0316036108de5760405163db5d879760e01b815260040160405180910390fd5b8260008683815181106108f3576108f3612620565b60200260200101518152602001908152602001600020600087838151811061091d5761091d612620565b60200260200101516001600160a01b03166001600160a01b031681526020019081526020016000205482828151811061095857610958612620565b6020908102919091010152600101610889565b50949350505050565b6000828152600080516020612927833981519152602052604090206002015482906001600160a01b03166109bb57604051636aa2a93760e01b815260040160405180910390fd5b60008381526000805160206129278339815191526020526040902054839083908015610a155780826109ec856110ca565b6109f6919061264c565b1115610a155760405163c30436e960e01b815260040160405180910390fd5b600086815260008051602061292783398151915260205260409020600501547f8a22373512790c48b83a1fe2efdd2888d4a917bcdc24d0adf63e60f6716804605487918791600191906001600160a01b0316331480610a7357504281105b15610c965760008a815260008051602061292783398151915260209081526040808320815160e0810183528154815260018201549381019390935260028101546001600160a01b0316918301919091526003810180549395508593606084019190610add906126ac565b80601f0160208091040260200160405190810160405280929190818152602001828054610b09906126ac565b8015610b565780601f10610b2b57610100808354040283529160200191610b56565b820191906000526020600020905b815481529060010190602001808311610b3957829003601f168201915b5050509183525050600482015460ff9081161515602083015260058301546040830152600690920154909116151560609091015260c0810151909150610baf5760405163885a01b760e01b815260040160405180910390fd5b7f00000000000000000000000000000000000000000000000000000000000000006001600160a01b03166323b872dd33308d8560200151610bf09190612678565b610bfc90612710612678565b6040516001600160e01b031960e086901b1681526001600160a01b03938416600482015292909116602483015260448201526064016020604051808303816000875af1158015610c50573d6000803e3d6000fd5b505050506040513d601f19601f82011682018060405250810190610c74919061268f565b50610c908c8c8c60405180602001604052806000815250611519565b50610fd4565b60008481527f8b3e8f46c99cb795ebda06e2a368cb0f3c8a09025665de4b1aef35b0dd2b497d602052604090205460ff1615610fd45760008481527f8b3e8f46c99cb795ebda06e2a368cb0f3c8a09025665de4b1aef35b0dd2b497e602052604090207f8b3e8f46c99cb795ebda06e2a368cb0f3c8a09025665de4b1aef35b0dd2b497d90610d2590336115f2565b610d42576040516321ba6abf60e01b815260040160405180910390fd5b60008581526003820160209081526040808320338452909152902054421115610d7e57604051636f08805760e11b815260040160405180910390fd5b600085815260048201602090815260408083203384529091529020548410610db9576040516323bd2c1360e01b815260040160405180910390fd5b60008b815260008051602061292783398151915260209081526040808320815160e0810183528154815260018201549381019390935260028101546001600160a01b0316918301919091526003810180549396508693606084019190610e1e906126ac565b80601f0160208091040260200160405190810160405280929190818152602001828054610e4a906126ac565b8015610e975780601f10610e6c57610100808354040283529160200191610e97565b820191906000526020600020905b815481529060010190602001808311610e7a57829003601f168201915b5050509183525050600482015460ff9081161515602083015260058301546040830152600690920154909116151560609091015260c0810151909150610ef05760405163885a01b760e01b815260040160405180910390fd5b7f00000000000000000000000000000000000000000000000000000000000000006001600160a01b03166323b872dd33308e8560200151610f319190612678565b610f3d90612710612678565b6040516001600160e01b031960e086901b1681526001600160a01b03938416600482015292909116602483015260448201526064016020604051808303816000875af1158015610f91573d6000803e3d6000fd5b505050506040513d601f19601f82011682018060405250810190610fb5919061268f565b50610fd18d8d8d60405180602001604052806000815250611519565b50505b8115610ff35760405163951b974f60e01b815260040160405180910390fd5b5050505050505050505050565b606061027182611614565b6060610271826116e8565b6001600160a01b038216330361103f57604051637b30a93360e11b815260040160405180910390fd5b3360008181527f1799cf914cb0cb442ca7c7ac709ee40d0cb89e87351dc08d517fbda27d50c68c602090815260408083206001600160a01b03871680855290835292819020805460ff191686151590811790915590519081529192917f17307eab39ab6107e8899845ad3d59bd9653f200f220920489ca2b5937696c31910160405180910390a35050565b60008181527fb31c2c74f86ca3ce94d901f5f5bbe66f7161eec2f7b5aa0b75a86371436424ea6020526040812054610271565b600281600381111561111157611111612715565b0361112657611121848484610974565b611163565b600381600381111561113a5761113a612715565b0361114a576111218484846102b8565b604051631288c1f560e31b815260040160405180910390fd5b50505050565b6001600160a01b0391821660009081527f1799cf914cb0cb442ca7c7ac709ee40d0cb89e87351dc08d517fbda27d50c68c6020908152604080832093909416825291909152205460ff1690565b6001600160a01b03851633148015906111d657506111d48533611169565b155b156111f3576040516212efed60e91b815260040160405180910390fd5b6108023386868686866117b1565b60006001600160a01b03831661122a5760405163db5d879760e01b815260040160405180910390fd5b6000805160206129478339815191526000928352602090815260408084206001600160a01b0395909516845293905250205490565b6001600160a01b038416611286576040516301c8efbf60e11b815260040160405180910390fd5b81518351146112a857604051633e7e0b6d60e11b815260040160405180910390fd5b6112b7336000868686866117cd565b60008051602061294783398151915260005b8451811015611356578381815181106112e4576112e4612620565b602002602001015182600087848151811061130157611301612620565b602002602001015181526020019081526020016000206000886001600160a01b03166001600160a01b031681526020019081526020016000206000828254611349919061264c565b90915550506001016112c9565b50846001600160a01b031660006001600160a01b0316336001600160a01b03167f4a39dc06d4c0dbc64b70af90fd698a233a518aa5d07e595d983b8c0526c8f7fb87876040516113a792919061272b565b60405180910390a45050505050565b6060816000036113dd5750506040805180820190915260018152600360fc1b602082015290565b8160005b811561140757806113f18161265f565b91506114009050600a8361276f565b91506113e1565b60008167ffffffffffffffff81111561142257611422612180565b6040519080825280601f01601f19166020018201604052801561144c576020820181803683370190505b5090505b84156114b757611461600183612783565b915061146e600a86612796565b61147990603061264c565b60f81b81838151811061148e5761148e612620565b60200101906001600160f81b031916908160001a9053506114b0600a8661276f565b9450611450565b949350505050565b60008181527fb31c2c74f86ca3ce94d901f5f5bbe66f7161eec2f7b5aa0b75a86371436424eb60205260408120610271906117db565b6115038686868686866117e5565b61151186868686868661198e565b505050505050565b6001600160a01b038416611540576040516301c8efbf60e11b815260040160405180910390fd5b61155f3360008661155087611ab0565b61155987611ab0565b866117cd565b6000838152600080516020612947833981519152602090815260408083206001600160a01b03881684529091528120805484929061159e90849061264c565b909155505060408051848152602081018490526001600160a01b0386169160009133917fc3d58168c5ae7397731d063d5bbf3d657854427343f4c083240f7aacaa2d0f62910160405180910390a450505050565b6001600160a01b0381166000908152600183016020526040812054151561026e565b60008181527fb31c2c74f86ca3ce94d901f5f5bbe66f7161eec2f7b5aa0b75a86371436424eb6020526040812060609161164d826117db565b67ffffffffffffffff81111561166557611665612180565b60405190808252806020026020018201604052801561168e578160200160208202803683370190505b50905060005b61169d836117db565b8110156116e0576116ae8382611afb565b8282815181106116c0576116c0612620565b6001600160a01b0390921660209283029190910190910152600101611694565b509392505050565b6001600160a01b03811660009081527fb31c2c74f86ca3ce94d901f5f5bbe66f7161eec2f7b5aa0b75a86371436424ec6020526040812060609161172b826117db565b67ffffffffffffffff81111561174357611743612180565b60405190808252806020026020018201604052801561176c578160200160208202803683370190505b50905060005b61177b836117db565b8110156116e05761178c8382611afb565b82828151811061179e5761179e612620565b6020908102919091010152600101611772565b6117bf868686868686611b07565b611511868686868686611c1d565b611511868686868686611cd9565b6000610271825490565b6001600160a01b03841661180c5760405163f5cadad560e01b815260040160405180910390fd5b815183511461182e57604051633e7e0b6d60e11b815260040160405180910390fd5b61183c8686868686866117cd565b60008051602061294783398151915260005b845181101561192d57600085828151811061186b5761186b612620565b60200260200101519050600085838151811061188957611889612620565b602090810291909101810151600084815286835260408082206001600160a01b038e1683529093529190912054909150808211156118da5760405163119ac6bb60e31b815260040160405180910390fd5b6000838152602086815260408083206001600160a01b038e811685529252808320938590039093558a16815290812080546001959095019483929061192090849061264c565b9091555061184e92505050565b50846001600160a01b0316866001600160a01b0316886001600160a01b03167f4a39dc06d4c0dbc64b70af90fd698a233a518aa5d07e595d983b8c0526c8f7fb878760405161197d92919061272b565b60405180910390a450505050505050565b6001600160a01b0384163b156115115760405163bc197c8160e01b81526001600160a01b0385169063bc197c81906119d290899089908890889088906004016127aa565b6020604051808303816000875af1925050508015611a0d575060408051601f3d908101601f19168201909252611a0a91810190612808565b60015b611a7657611a19612825565b806308c379a003611a5b5750611a2d612841565b80611a385750611a5d565b8060405162461bcd60e51b8152600401611a52919061216d565b60405180910390fd5b505b60405163380147a960e01b815260040160405180910390fd5b6001600160e01b0319811663bc197c8160e01b14611aa757604051633744db2960e01b815260040160405180910390fd5b50505050505050565b60408051600180825281830190925260609160009190602080830190803683370190505090508281600081518110611aea57611aea612620565b602090810291909101015292915050565b600061026e8383611eb8565b6001600160a01b038416611b2e5760405163f5cadad560e01b815260040160405180910390fd5b611b3d86868661155087611ab0565b6000838152600080516020612947833981519152602081815260408084206001600160a01b038a1685529091529091205480841115611b8f5760405163119ac6bb60e31b815260040160405180910390fd5b6000858152602083815260408083206001600160a01b038b81168552925280832093879003909355871681529081208054859290611bce90849061264c565b909155505060408051858152602081018590526001600160a01b038088169289821692918b16917fc3d58168c5ae7397731d063d5bbf3d657854427343f4c083240f7aacaa2d0f62910161197d565b6001600160a01b0384163b156115115760405163f23a6e6160e01b81526001600160a01b0385169063f23a6e6190611c6190899089908890889088906004016128cb565b6020604051808303816000875af1925050508015611c9c575060408051601f3d908101601f19168201909252611c9991810190612808565b60015b611ca857611a19612825565b6001600160e01b0319811663f23a6e6160e01b14611aa757604051633744db2960e01b815260040160405180910390fd5b836001600160a01b0316856001600160a01b031614611511576001600160a01b0385811660009081527fb31c2c74f86ca3ce94d901f5f5bbe66f7161eec2f7b5aa0b75a86371436424ec6020526040808220928716825281207fb31c2c74f86ca3ce94d901f5f5bbe66f7161eec2f7b5aa0b75a86371436424ea927fb31c2c74f86ca3ce94d901f5f5bbe66f7161eec2f7b5aa0b75a86371436424eb929091905b8751811015610ff3576000878281518110611d9757611d97612620565b602002602001015190506000811115611eaf576000898381518110611dbe57611dbe612620565b6020026020010151905060006001600160a01b03168c6001600160a01b031603611e0b5760008181526020889052604081208054849290611e0090849061264c565b90915550611e409050565b81611e168d83611201565b03611e40576000818152602087905260409020611e33908d611f04565b50611e3e8582611f19565b505b6001600160a01b038b16611e775760008181526020889052604081208054849290611e6c908490612783565b90915550611ead9050565b611e818b82611201565b600003611ead576000818152602087905260409020611ea0908c611f25565b50611eab8482611f3a565b505b505b50600101611d7a565b81546000908210611edc5760405163e637bf3b60e01b815260040160405180910390fd5b826000018281548110611ef157611ef1612620565b9060005260206000200154905092915050565b600061026e836001600160a01b038416611f46565b600061026e8383611f46565b600061026e836001600160a01b03841661200b565b600061026e838361200b565b6000818152600183016020526040812054801561200457835460009085906000198101908110611f7857611f78612620565b9060005260206000200154905080856000016001840381548110611f9e57611f9e612620565b6000918252602080832090910192909255918252600186019052604090208190558354849080611fd057611fd0612910565b6001900381819060005260206000200160009055905583600101600084815260200190815260200160002060009055600191505b5092915050565b6000818152600183016020526040812054610271575081546001808201845560008481526020808220909301849055845493815293810190915260409092205590565b80356001600160a01b038116811461206557600080fd5b919050565b6000806040838503121561207d57600080fd5b6120868361204e565b946020939093013593505050565b6001600160e01b0319811681146120aa57600080fd5b50565b6000602082840312156120bf57600080fd5b81356120ca81612094565b9392505050565b6000806000606084860312156120e657600080fd5b6120ef8461204e565b95602085013595506040909401359392505050565b60006020828403121561211657600080fd5b5035919050565b60005b83811015612138578181015183820152602001612120565b50506000910152565b6000815180845261215981602086016020860161211d565b601f01601f19169290920160200192915050565b60208152600061026e6020830184612141565b634e487b7160e01b600052604160045260246000fd5b601f8201601f1916810167ffffffffffffffff811182821017156121bc576121bc612180565b6040525050565b600067ffffffffffffffff8211156121dd576121dd612180565b5060051b60200190565b600082601f8301126121f857600080fd5b81356020612205826121c3565b6040516122128282612196565b83815260059390931b850182019282810191508684111561223257600080fd5b8286015b8481101561224d5780358352918301918301612236565b509695505050505050565b600082601f83011261226957600080fd5b813567ffffffffffffffff81111561228357612283612180565b60405161229a601f8301601f191660200182612196565b8181528460208386010111156122af57600080fd5b816020850160208301376000918101602001919091529392505050565b600080600080600060a086880312156122e457600080fd5b6122ed8661204e565b94506122fb6020870161204e565b9350604086013567ffffffffffffffff8082111561231857600080fd5b61232489838a016121e7565b9450606088013591508082111561233a57600080fd5b61234689838a016121e7565b9350608088013591508082111561235c57600080fd5b5061236988828901612258565b9150509295509295909350565b6000806040838503121561238957600080fd5b823567ffffffffffffffff808211156123a157600080fd5b818501915085601f8301126123b557600080fd5b813560206123c2826121c3565b6040516123cf8282612196565b83815260059390931b85018201928281019150898411156123ef57600080fd5b948201945b83861015612414576124058661204e565b825294820194908201906123f4565b9650508601359250508082111561242a57600080fd5b50612437858286016121e7565b9150509250929050565b600081518084526020808501945080840160005b8381101561247157815187529582019590820190600101612455565b509495945050505050565b60208152600061026e6020830184612441565b6020808252825182820181905260009190848201906040850190845b818110156124d05783516001600160a01b0316835292840192918401916001016124ab565b50909695505050505050565b6000602082840312156124ee57600080fd5b61026e8261204e565b80151581146120aa57600080fd5b6000806040838503121561251857600080fd5b6125218361204e565b91506020830135612531816124f7565b809150509250929050565b6000806000806080858703121561255257600080fd5b61255b8561204e565b9350602085013592506040850135915060608501356004811061257d57600080fd5b939692955090935050565b6000806040838503121561259b57600080fd5b6125a48361204e565b91506125b26020840161204e565b90509250929050565b600080600080600060a086880312156125d357600080fd5b6125dc8661204e565b94506125ea6020870161204e565b93506040860135925060608601359150608086013567ffffffffffffffff81111561261457600080fd5b61236988828901612258565b634e487b7160e01b600052603260045260246000fd5b634e487b7160e01b600052601160045260246000fd5b8082018082111561027157610271612636565b60006001820161267157612671612636565b5060010190565b808202811582820484141761027157610271612636565b6000602082840312156126a157600080fd5b81516120ca816124f7565b600181811c908216806126c057607f821691505b6020821081036126e057634e487b7160e01b600052602260045260246000fd5b50919050565b600083516126f881846020880161211d565b83519083019061270c81836020880161211d565b01949350505050565b634e487b7160e01b600052602160045260246000fd5b60408152600061273e6040830185612441565b82810360208401526127508185612441565b95945050505050565b634e487b7160e01b600052601260045260246000fd5b60008261277e5761277e612759565b500490565b8181038181111561027157610271612636565b6000826127a5576127a5612759565b500690565b6001600160a01b0386811682528516602082015260a0604082018190526000906127d690830186612441565b82810360608401526127e88186612441565b905082810360808401526127fc8185612141565b98975050505050505050565b60006020828403121561281a57600080fd5b81516120ca81612094565b600060033d111561283e5760046000803e5060005160e01c5b90565b600060443d101561284f5790565b6040516003193d81016004833e81513d67ffffffffffffffff816024840111818411171561287f57505050505090565b82850191508151818111156128975750505050505090565b843d87010160208285010111156128b15750505050505090565b6128c060208286010187612196565b509095945050505050565b6001600160a01b03868116825285166020820152604081018490526060810183905260a06080820181905260009061290590830184612141565b979650505050505050565b634e487b7160e01b600052603160045260246000fdfec69eb5f2b1f69527d60d580fcb33cfddae1f4237df70e8a7f7b3bb15e867264d1799cf914cb0cb442ca7c7ac709ee40d0cb89e87351dc08d517fbda27d50c68ba2646970667358221220ee7d50eb4b9390e0a76f5f2f8b139781a08bc6b5b20cf4129ac1619a6971f26564736f6c63430008140033",
    "linkReferences": {}
  },
  "methodIdentifiers": {
    "accountsByToken(uint256)": "6dcfd841",
    "balanceOf(address,uint256)": "00fdd58e",
    "balanceOfBatch(address[],uint256[])": "4e1273f4",
    "crossmintMint(address,uint256,uint256)": "6451f53d",
    "crossmintPackMint(address,uint256,uint256)": "0bf93dcb",
    "isApprovedForAll(address,address)": "e985e9c5",
    "mint(address,uint256,uint256,uint8)": "d6b96050",
    "safeBatchTransferFrom(address,address,uint256[],uint256[],bytes)": "2eb2c2d6",
    "safeTransferFrom(address,address,uint256,uint256,bytes)": "f242432a",
    "setApprovalForAll(address,bool)": "a22cb465",
    "supportsInterface(bytes4)": "01ffc9a7",
    "tokensByAccount(address)": "85bff2e7",
    "totalHolders(uint256)": "13ba55df",
    "totalSupply(uint256)": "bd85b039",
    "uri(uint256)": "0e89341c"
  },
  "id": 3
}