{
  "abi": [
    {
      "inputs": [],
      "name": "AccountAlreadyAllowListed",
      "type": "error"
    },
    {
      "inputs": [],
      "name": "AccountNotAllowListed",
      "type": "error"
    },
    {
      "inputs": [],
      "name": "AllowListAmountExceeded",
      "type": "error"
    },
    {
      "inputs": [],
      "name": "AllowListDisabled",
      "type": "error"
    },
    {
      "inputs": [],
      "name": "AllowListEnabled",
      "type": "error"
    },
    {
      "inputs": [],
      "name": "AllowListMintUnopened",
      "type": "error"
    },
    {
      "inputs": [],
      "name": "EnumerableSet__IndexOutOfBounds",
      "type": "error"
    },
    {
      "inputs": [],
      "name": "MintNotOpen",
      "type": "error"
    },
    {
      "inputs": [],
      "name": "NotOnAllowList",
      "type": "error"
    },
    {
      "inputs": [],
      "name": "Ownable__NotOwner",
      "type": "error"
    },
    {
      "inputs": [],
      "name": "Ownable__NotTransitiveOwner",
      "type": "error"
    },
    {
      "anonymous": false,
      "inputs": [
        {
          "indexed": false,
          "internalType": "address",
          "name": "account",
          "type": "address"
        },
        {
          "indexed": false,
          "internalType": "uint256",
          "name": "allowance",
          "type": "uint256"
        }
      ],
      "name": "AllowListAdded",
      "type": "event"
    },
    {
      "anonymous": false,
      "inputs": [
        {
          "indexed": false,
          "internalType": "address[]",
          "name": "accounts",
          "type": "address[]"
        },
        {
          "indexed": false,
          "internalType": "uint256",
          "name": "allowance",
          "type": "uint256"
        }
      ],
      "name": "AllowListAdded",
      "type": "event"
    },
    {
      "anonymous": false,
      "inputs": [
        {
          "indexed": false,
          "internalType": "uint256",
          "name": "tokenId",
          "type": "uint256"
        },
        {
          "indexed": false,
          "internalType": "address",
          "name": "account",
          "type": "address"
        },
        {
          "indexed": false,
          "internalType": "uint256",
          "name": "allowance",
          "type": "uint256"
        }
      ],
      "name": "AllowListAdded",
      "type": "event"
    },
    {
      "anonymous": false,
      "inputs": [
        {
          "indexed": false,
          "internalType": "uint256",
          "name": "tokenId",
          "type": "uint256"
        },
        {
          "indexed": false,
          "internalType": "address[]",
          "name": "accounts",
          "type": "address[]"
        },
        {
          "indexed": false,
          "internalType": "uint256",
          "name": "allowance",
          "type": "uint256"
        }
      ],
      "name": "AllowListAdded",
      "type": "event"
    },
    {
      "anonymous": false,
      "inputs": [
        {
          "indexed": false,
          "internalType": "address",
          "name": "account",
          "type": "address"
        }
      ],
      "name": "AllowListRemoved",
      "type": "event"
    },
    {
      "anonymous": false,
      "inputs": [
        {
          "indexed": false,
          "internalType": "address[]",
          "name": "accounts",
          "type": "address[]"
        }
      ],
      "name": "AllowListRemoved",
      "type": "event"
    },
    {
      "anonymous": false,
      "inputs": [
        {
          "indexed": false,
          "internalType": "uint256",
          "name": "tokenId",
          "type": "uint256"
        },
        {
          "indexed": false,
          "internalType": "address",
          "name": "account",
          "type": "address"
        }
      ],
      "name": "AllowListRemoved",
      "type": "event"
    },
    {
      "anonymous": false,
      "inputs": [
        {
          "indexed": false,
          "internalType": "uint256",
          "name": "tokenId",
          "type": "uint256"
        },
        {
          "indexed": false,
          "internalType": "address[]",
          "name": "accounts",
          "type": "address[]"
        }
      ],
      "name": "AllowListRemoved",
      "type": "event"
    },
    {
      "anonymous": false,
      "inputs": [
        {
          "indexed": false,
          "internalType": "bool",
          "name": "status",
          "type": "bool"
        }
      ],
      "name": "AllowListStatus",
      "type": "event"
    },
    {
      "anonymous": false,
      "inputs": [
        {
          "indexed": false,
          "internalType": "uint256",
          "name": "tokenId",
          "type": "uint256"
        },
        {
          "indexed": false,
          "internalType": "bool",
          "name": "status",
          "type": "bool"
        }
      ],
      "name": "AllowListStatus",
      "type": "event"
    },
    {
      "anonymous": false,
      "inputs": [
        {
          "indexed": true,
          "internalType": "address",
          "name": "previousOwner",
          "type": "address"
        },
        {
          "indexed": true,
          "internalType": "address",
          "name": "newOwner",
          "type": "address"
        }
      ],
      "name": "OwnershipTransferred",
      "type": "event"
    },
    {
      "inputs": [
        {
          "internalType": "uint256",
          "name": "tokenId",
          "type": "uint256"
        },
        {
          "internalType": "address",
          "name": "account",
          "type": "address"
        }
      ],
      "name": "addToAllowList",
      "outputs": [],
      "stateMutability": "nonpayable",
      "type": "function"
    },
    {
      "inputs": [
        {
          "internalType": "uint256",
          "name": "tokenId",
          "type": "uint256"
        },
        {
          "internalType": "address[]",
          "name": "accounts",
          "type": "address[]"
        },
        {
          "internalType": "uint256",
          "name": "allowance",
          "type": "uint256"
        }
      ],
      "name": "addToAllowList",
      "outputs": [],
      "stateMutability": "nonpayable",
      "type": "function"
    },
    {
      "inputs": [
        {
          "internalType": "uint256",
          "name": "tokenId",
          "type": "uint256"
        },
        {
          "internalType": "address",
          "name": "account",
          "type": "address"
        },
        {
          "internalType": "uint256",
          "name": "allowance",
          "type": "uint256"
        },
        {
          "internalType": "uint256",
          "name": "allowTime",
          "type": "uint256"
        }
      ],
      "name": "addToAllowList",
      "outputs": [],
      "stateMutability": "nonpayable",
      "type": "function"
    },
    {
      "inputs": [
        {
          "internalType": "uint256",
          "name": "tokenId",
          "type": "uint256"
        },
        {
          "internalType": "address[]",
          "name": "accounts",
          "type": "address[]"
        }
      ],
      "name": "addToAllowList",
      "outputs": [],
      "stateMutability": "nonpayable",
      "type": "function"
    },
    {
      "inputs": [
        {
          "internalType": "uint256",
          "name": "tokenId",
          "type": "uint256"
        },
        {
          "internalType": "address",
          "name": "account",
          "type": "address"
        },
        {
          "internalType": "uint256",
          "name": "allowance",
          "type": "uint256"
        }
      ],
      "name": "addToAllowList",
      "outputs": [],
      "stateMutability": "nonpayable",
      "type": "function"
    },
    {
      "inputs": [
        {
          "internalType": "uint256",
          "name": "tokenId",
          "type": "uint256"
        },
        {
          "internalType": "address[]",
          "name": "accounts",
          "type": "address[]"
        },
        {
          "internalType": "uint256",
          "name": "allowance",
          "type": "uint256"
        },
        {
          "internalType": "uint256",
          "name": "allowTime",
          "type": "uint256"
        }
      ],
      "name": "addToAllowList",
      "outputs": [],
      "stateMutability": "nonpayable",
      "type": "function"
    },
    {
      "inputs": [
        {
          "internalType": "uint256",
          "name": "_tokenId",
          "type": "uint256"
        }
      ],
      "name": "allowList",
      "outputs": [
        {
          "components": [
            {
              "internalType": "address",
              "name": "account",
              "type": "address"
            },
            {
              "internalType": "uint256",
              "name": "allowance",
              "type": "uint256"
            }
          ],
          "internalType": "struct AllowListFacet.AllowListMap[]",
          "name": "allowListMap",
          "type": "tuple[]"
        }
      ],
      "stateMutability": "view",
      "type": "function"
    },
    {
      "inputs": [
        {
          "internalType": "uint256",
          "name": "tokenId",
          "type": "uint256"
        },
        {
          "internalType": "address",
          "name": "account",
          "type": "address"
        }
      ],
      "name": "allowListContains",
      "outputs": [
        {
          "internalType": "bool",
          "name": "contains",
          "type": "bool"
        }
      ],
      "stateMutability": "view",
      "type": "function"
    },
    {
      "inputs": [
        {
          "internalType": "uint256",
          "name": "_tokenId",
          "type": "uint256"
        }
      ],
      "name": "allowListEnabled",
      "outputs": [
        {
          "internalType": "bool",
          "name": "enabled",
          "type": "bool"
        }
      ],
      "stateMutability": "view",
      "type": "function"
    },
    {
      "inputs": [
        {
          "internalType": "uint256",
          "name": "_tokenId",
          "type": "uint256"
        }
      ],
      "name": "disableAllowList",
      "outputs": [],
      "stateMutability": "nonpayable",
      "type": "function"
    },
    {
      "inputs": [
        {
          "internalType": "uint256",
          "name": "_tokenId",
          "type": "uint256"
        }
      ],
      "name": "enableAllowList",
      "outputs": [],
      "stateMutability": "nonpayable",
      "type": "function"
    },
    {
      "inputs": [
        {
          "internalType": "uint256",
          "name": "tokenId",
          "type": "uint256"
        },
        {
          "internalType": "address",
          "name": "account",
          "type": "address"
        }
      ],
      "name": "removeFromAllowList",
      "outputs": [],
      "stateMutability": "nonpayable",
      "type": "function"
    },
    {
      "inputs": [
        {
          "internalType": "uint256",
          "name": "tokenId",
          "type": "uint256"
        },
        {
          "internalType": "address[]",
          "name": "accounts",
          "type": "address[]"
        }
      ],
      "name": "removeFromAllowList",
      "outputs": [],
      "stateMutability": "nonpayable",
      "type": "function"
    }
  ],
  "bytecode": {
    "object": "0x608060405234801561001057600080fd5b5061124b806100206000396000f3fe608060405234801561001057600080fd5b50600436106100cf5760003560e01c806379857c231161008c5780639c667626116100665780639c667626146101a7578063afa71cb8146101d7578063d65795c3146101ea578063fef9cf9b146101fd57600080fd5b806379857c231461016e578063842075651461018157806398ecc01a1461019457600080fd5b80630d112049146100d457806359bd6ff4146100e957806362a6d197146100fc578063666f198d146101255780636e09dd16146101385780637958bc8c1461014b575b600080fd5b6100e76100e2366004610e66565b610210565b005b6100e76100f7366004610ede565b61025a565b61010f61010a366004610f31565b6102a7565b60405161011c9190610f4a565b60405180910390f35b6100e7610133366004610f31565b6103ea565b6100e7610146366004610fa2565b61042f565b61015e610159366004610e66565b610474565b604051901515815260200161011c565b6100e761017c366004610fdd565b610489565b6100e761018f366004610e66565b6104d5565b6100e76101a2366004610f31565b610518565b61015e6101b5366004610f31565b60009081526000805160206111d6833981519152602052604090205460ff1690565b6100e76101e5366004610fdd565b61055a565b6100e76101f8366004611029565b61059e565b6100e761020b36600461105e565b6105e4565b610218610631565b6001600160a01b0316336001600160a01b03161461024957604051632f7a8ee160e01b815260040160405180910390fd5b610256828260008061065f565b5050565b610262610631565b6001600160a01b0316336001600160a01b03161461029357604051632f7a8ee160e01b815260040160405180910390fd5b6102a1848484846000610754565b50505050565b60008181526000805160206111f6833981519152602052604081206060916000805160206111d6833981519152916102de9061091b565b90508067ffffffffffffffff8111156102f9576102f96110bc565b60405190808252806020026020018201604052801561033e57816020015b60408051808201909152600080825260208201528152602001906001900390816103175790505b50925060005b818110156103e257600085815260018401602052604081206103669083610925565b90508085838151811061037b5761037b6110d2565b6020908102919091018101516001600160a01b03928316905260008881526002870182526040808220938516825292909152205485518690849081106103c3576103c36110d2565b60209081029190910181015101526103da826110e8565b915050610344565b505050919050565b6103f2610631565b6001600160a01b0316336001600160a01b03161461042357604051632f7a8ee160e01b815260040160405180910390fd5b61042c81610931565b50565b610437610631565b6001600160a01b0316336001600160a01b03161461046857604051632f7a8ee160e01b815260040160405180910390fd5b6102a18484848461065f565b600061048083836109c3565b90505b92915050565b610491610631565b6001600160a01b0316336001600160a01b0316146104c257604051632f7a8ee160e01b815260040160405180910390fd5b6104d0838383600080610754565b505050565b6104dd610631565b6001600160a01b0316336001600160a01b03161461050e57604051632f7a8ee160e01b815260040160405180910390fd5b61025682826109e8565b610520610631565b6001600160a01b0316336001600160a01b03161461055157604051632f7a8ee160e01b815260040160405180910390fd5b61042c81610abb565b610562610631565b6001600160a01b0316336001600160a01b03161461059357604051632f7a8ee160e01b815260040160405180910390fd5b6104d0838383610b4a565b6105a6610631565b6001600160a01b0316336001600160a01b0316146105d757604051632f7a8ee160e01b815260040160405180910390fd5b6104d0838383600061065f565b6105ec610631565b6001600160a01b0316336001600160a01b03161461061d57604051632f7a8ee160e01b815260040160405180910390fd5b61062a8585858585610754565b5050505050565b7f8a22373512790c48b83a1fe2efdd2888d4a917bcdc24d0adf63e60f671680460546001600160a01b031690565b60008481526000805160206111f6833981519152602052604090206000805160206111d6833981519152906106949085610caa565b156106b25760405163c18a4f8760e01b815260040160405180910390fd5b600085815260018201602052604090206106cc9085610ccc565b50600085815260028201602090815260408083206001600160a01b0388168085529083528184208790558884526003850183528184208185528352928190208590558051888152918201929092529081018490527f28fe12e21bec3527bc7a181a87ca5e7a646218458e8cb90ce845bbe5cf7a17669060600160405180910390a15050505050565b6000805160206111d68339815191528360005b818110156108d4576107af878783818110610784576107846110d2565b9050602002016020810190610799919061110f565b60008a8152600186016020526040902090610caa565b156107cd5760405163c18a4f8760e01b815260040160405180910390fd5b61080d8787838181106107e2576107e26110d2565b90506020020160208101906107f7919061110f565b60008a8152600186016020526040902090610ccc565b50600088815260028401602052604081208691898985818110610832576108326110d2565b9050602002016020810190610847919061110f565b6001600160a01b03166001600160a01b0316815260200190815260200160002081905550838360030160008a81526020019081526020016000206000898985818110610895576108956110d2565b90506020020160208101906108aa919061110f565b6001600160a01b031681526020810191909152604001600020556108cd816110e8565b9050610767565b7f88d7a64ca203aeae11370903ed741761b75b74a9b5326424f737435d05f8531c888888886040516109099493929190611171565b60405180910390a15050505050505050565b6000610483825490565b60006104808383610ce1565b60008181526000805160206111d6833981519152602081905260409091205460ff166109705760405163989aa33b60e01b815260040160405180910390fd5b600082815260208281526040808320805460ff191690558051858152918201929092527f37b57eb22f2f6cd66cdec8f97236a500e2bcd46e574738fe319c240339e756d891015b60405180910390a15050565b60008281526000805160206111f6833981519152602052604081206104809083610caa565b60008281526000805160206111f6833981519152602052604090206000805160206111d683398151915290610a1d9083610caa565b610a3a576040516321ba6abf60e01b815260040160405180910390fd5b60008381526001820160205260409020610a549083610d2d565b50600083815260028201602090815260408083206001600160a01b038616808552908352818420939093558051868152918201929092527f286976365d14354f2f275133839a23cf944d19c9e56cd78fe3d07c84c88c0bfd910160405180910390a1505050565b60008181526000805160206111d6833981519152602081905260409091205460ff1615610afb5760405163989aa33b60e01b815260040160405180910390fd5b60008281526020828152604091829020805460ff191660019081179091558251858152918201527f37b57eb22f2f6cd66cdec8f97236a500e2bcd46e574738fe319c240339e756d891016109b7565b6000805160206111d68339815191528160005b81811015610c6757610ba5858583818110610b7a57610b7a6110d2565b9050602002016020810190610b8f919061110f565b6000888152600186016020526040902090610caa565b610bc2576040516321ba6abf60e01b815260040160405180910390fd5b610c02858583818110610bd757610bd76110d2565b9050602002016020810190610bec919061110f565b6000888152600186016020526040902090610d2d565b506000868152600284016020526040812090868684818110610c2657610c266110d2565b9050602002016020810190610c3b919061110f565b6001600160a01b031681526020810191909152604001600090812055610c60816110e8565b9050610b5d565b7f94400dfbb04fc4e1b8c67dfab336eb5c8c568afbc1eeae4c1244831db69778ae868686604051610c9a9392919061119c565b60405180910390a1505050505050565b6001600160a01b03811660009081526001830160205260408120541515610480565b6000610480836001600160a01b038416610d42565b81546000908210610d055760405163e637bf3b60e01b815260040160405180910390fd5b826000018281548110610d1a57610d1a6110d2565b9060005260206000200154905092915050565b6000610480836001600160a01b038416610d85565b6000818152600183016020526040812054610483575081546001808201845560008481526020808220909301849055845493815293810190915260409092205590565b60008181526001830160205260408120548015610e4357835460009085906000198101908110610db757610db76110d2565b9060005260206000200154905080856000016001840381548110610ddd57610ddd6110d2565b6000918252602080832090910192909255918252600186019052604090208190558354849080610e0f57610e0f6111bf565b6001900381819060005260206000200160009055905583600101600084815260200190815260200160002060009055600191505b5092915050565b80356001600160a01b0381168114610e6157600080fd5b919050565b60008060408385031215610e7957600080fd5b82359150610e8960208401610e4a565b90509250929050565b60008083601f840112610ea457600080fd5b50813567ffffffffffffffff811115610ebc57600080fd5b6020830191508360208260051b8501011115610ed757600080fd5b9250929050565b60008060008060608587031215610ef457600080fd5b84359350602085013567ffffffffffffffff811115610f1257600080fd5b610f1e87828801610e92565b9598909750949560400135949350505050565b600060208284031215610f4357600080fd5b5035919050565b602080825282518282018190526000919060409081850190868401855b82811015610f9557815180516001600160a01b03168552860151868501529284019290850190600101610f67565b5091979650505050505050565b60008060008060808587031215610fb857600080fd5b84359350610fc860208601610e4a565b93969395505050506040820135916060013590565b600080600060408486031215610ff257600080fd5b83359250602084013567ffffffffffffffff81111561101057600080fd5b61101c86828701610e92565b9497909650939450505050565b60008060006060848603121561103e57600080fd5b8335925061104e60208501610e4a565b9150604084013590509250925092565b60008060008060006080868803121561107657600080fd5b85359450602086013567ffffffffffffffff81111561109457600080fd5b6110a088828901610e92565b9699909850959660408101359660609091013595509350505050565b634e487b7160e01b600052604160045260246000fd5b634e487b7160e01b600052603260045260246000fd5b60006001820161110857634e487b7160e01b600052601160045260246000fd5b5060010190565b60006020828403121561112157600080fd5b61048082610e4a565b8183526000602080850194508260005b85811015611166576001600160a01b0361115383610e4a565b168752958201959082019060010161113a565b509495945050505050565b84815260606020820152600061118b60608301858761112a565b905082604083015295945050505050565b8381526040602082015260006111b660408301848661112a565b95945050505050565b634e487b7160e01b600052603160045260246000fdfe8b3e8f46c99cb795ebda06e2a368cb0f3c8a09025665de4b1aef35b0dd2b497d8b3e8f46c99cb795ebda06e2a368cb0f3c8a09025665de4b1aef35b0dd2b497ea264697066735822122058c08c1622b0ffb00dc86d72dfc6d11a1b6c9be53d004cdbb9ec2521ead6887a64736f6c63430008140033",
    "linkReferences": {}
  },
  "methodIdentifiers": {
    "addToAllowList(uint256,address)": "0d112049",
    "addToAllowList(uint256,address,uint256)": "d65795c3",
    "addToAllowList(uint256,address,uint256,uint256)": "6e09dd16",
    "addToAllowList(uint256,address[])": "79857c23",
    "addToAllowList(uint256,address[],uint256)": "59bd6ff4",
    "addToAllowList(uint256,address[],uint256,uint256)": "fef9cf9b",
    "allowList(uint256)": "62a6d197",
    "allowListContains(uint256,address)": "7958bc8c",
    "allowListEnabled(uint256)": "9c667626",
    "disableAllowList(uint256)": "666f198d",
    "enableAllowList(uint256)": "98ecc01a",
    "removeFromAllowList(uint256,address)": "84207565",
    "removeFromAllowList(uint256,address[])": "afa71cb8"
  },
  "id": 34
}