{
  "abi": [
    {
      "inputs": [],
      "name": "__transitiveOwner",
      "outputs": [
        {
          "internalType": "address",
          "name": "",
          "type": "address"
        }
      ],
      "stateMutability": "view",
      "type": "function"
    },
    {
      "inputs": [
        {
          "internalType": "address",
          "name": "account",
          "type": "address"
        },
        {
          "internalType": "uint256",
          "name": "shares_",
          "type": "uint256"
        }
      ],
      "name": "addPayee",
      "outputs": [],
      "stateMutability": "nonpayable",
      "type": "function"
    },
    {
      "inputs": [
        {
          "internalType": "uint256",
          "name": "tokenId",
          "type": "uint256"
        },
        {
          "internalType": "address",
          "name": "account",
          "type": "address"
        }
      ],
      "name": "addToAllowList",
      "outputs": [],
      "stateMutability": "nonpayable",
      "type": "function"
    },
    {
      "inputs": [
        {
          "internalType": "uint256",
          "name": "tokenId",
          "type": "uint256"
        },
        {
          "internalType": "address[]",
          "name": "accounts",
          "type": "address[]"
        },
        {
          "internalType": "uint256",
          "name": "allowance",
          "type": "uint256"
        }
      ],
      "name": "addToAllowList",
      "outputs": [],
      "stateMutability": "nonpayable",
      "type": "function"
    },
    {
      "inputs": [
        {
          "internalType": "uint256",
          "name": "tokenId",
          "type": "uint256"
        },
        {
          "internalType": "address",
          "name": "account",
          "type": "address"
        },
        {
          "internalType": "uint256",
          "name": "allowance",
          "type": "uint256"
        },
        {
          "internalType": "uint256",
          "name": "allowTime",
          "type": "uint256"
        }
      ],
      "name": "addToAllowList",
      "outputs": [],
      "stateMutability": "nonpayable",
      "type": "function"
    },
    {
      "inputs": [
        {
          "internalType": "uint256",
          "name": "tokenId",
          "type": "uint256"
        },
        {
          "internalType": "address[]",
          "name": "accounts",
          "type": "address[]"
        }
      ],
      "name": "addToAllowList",
      "outputs": [],
      "stateMutability": "nonpayable",
      "type": "function"
    },
    {
      "inputs": [
        {
          "internalType": "uint256",
          "name": "tokenId",
          "type": "uint256"
        },
        {
          "internalType": "address",
          "name": "account",
          "type": "address"
        },
        {
          "internalType": "uint256",
          "name": "allowance",
          "type": "uint256"
        }
      ],
      "name": "addToAllowList",
      "outputs": [],
      "stateMutability": "nonpayable",
      "type": "function"
    },
    {
      "inputs": [
        {
          "internalType": "uint256",
          "name": "tokenId",
          "type": "uint256"
        },
        {
          "internalType": "address[]",
          "name": "accounts",
          "type": "address[]"
        },
        {
          "internalType": "uint256",
          "name": "allowance",
          "type": "uint256"
        },
        {
          "internalType": "uint256",
          "name": "allowTime",
          "type": "uint256"
        }
      ],
      "name": "addToAllowList",
      "outputs": [],
      "stateMutability": "nonpayable",
      "type": "function"
    },
    {
      "inputs": [],
      "name": "airdrop",
      "outputs": [
        {
          "internalType": "bool",
          "name": "",
          "type": "bool"
        }
      ],
      "stateMutability": "view",
      "type": "function"
    },
    {
      "inputs": [
        {
          "internalType": "uint256",
          "name": "_tokenId",
          "type": "uint256"
        }
      ],
      "name": "allowList",
      "outputs": [
        {
          "components": [
            {
              "internalType": "address",
              "name": "account",
              "type": "address"
            },
            {
              "internalType": "uint256",
              "name": "allowance",
              "type": "uint256"
            }
          ],
          "internalType": "struct DummyDiamond721Implementation.Tuple576603[]",
          "name": "allowListMap",
          "type": "tuple[]"
        }
      ],
      "stateMutability": "view",
      "type": "function"
    },
    {
      "inputs": [
        {
          "internalType": "uint256",
          "name": "tokenId",
          "type": "uint256"
        },
        {
          "internalType": "address",
          "name": "account",
          "type": "address"
        }
      ],
      "name": "allowListContains",
      "outputs": [
        {
          "internalType": "bool",
          "name": "contains",
          "type": "bool"
        }
      ],
      "stateMutability": "view",
      "type": "function"
    },
    {
      "inputs": [
        {
          "internalType": "uint256",
          "name": "_tokenId",
          "type": "uint256"
        }
      ],
      "name": "allowListEnabled",
      "outputs": [
        {
          "internalType": "bool",
          "name": "enabled",
          "type": "bool"
        }
      ],
      "stateMutability": "view",
      "type": "function"
    },
    {
      "inputs": [
        {
          "internalType": "address",
          "name": "to",
          "type": "address"
        },
        {
          "internalType": "uint256",
          "name": "tokenId",
          "type": "uint256"
        }
      ],
      "name": "approve",
      "outputs": [],
      "stateMutability": "nonpayable",
      "type": "function"
    },
    {
      "inputs": [
        {
          "internalType": "address",
          "name": "owner",
          "type": "address"
        }
      ],
      "name": "balanceOf",
      "outputs": [
        {
          "internalType": "uint256",
          "name": "",
          "type": "uint256"
        }
      ],
      "stateMutability": "view",
      "type": "function"
    },
    {
      "inputs": [
        {
          "internalType": "uint256",
          "name": "tokenId",
          "type": "uint256"
        }
      ],
      "name": "burn",
      "outputs": [],
      "stateMutability": "nonpayable",
      "type": "function"
    },
    {
      "inputs": [],
      "name": "contractURI",
      "outputs": [
        {
          "internalType": "string",
          "name": "",
          "type": "string"
        }
      ],
      "stateMutability": "view",
      "type": "function"
    },
    {
      "inputs": [
        {
          "internalType": "string",
          "name": "_name",
          "type": "string"
        },
        {
          "internalType": "uint256",
          "name": "_maxSupply",
          "type": "uint256"
        },
        {
          "internalType": "uint256",
          "name": "_price",
          "type": "uint256"
        }
      ],
      "name": "createEdition",
      "outputs": [],
      "stateMutability": "nonpayable",
      "type": "function"
    },
    {
      "inputs": [
        {
          "components": [
            {
              "internalType": "address",
              "name": "facetAddress",
              "type": "address"
            },
            {
              "internalType": "uint8",
              "name": "action",
              "type": "uint8"
            },
            {
              "internalType": "bytes4[]",
              "name": "functionSelectors",
              "type": "bytes4[]"
            }
          ],
          "internalType": "struct DummyDiamond721Implementation.Tuple6871229[]",
          "name": "_diamondCut",
          "type": "tuple[]"
        },
        {
          "internalType": "address",
          "name": "_init",
          "type": "address"
        },
        {
          "internalType": "bytes",
          "name": "_calldata",
          "type": "bytes"
        }
      ],
      "name": "diamondCut",
      "outputs": [],
      "stateMutability": "nonpayable",
      "type": "function"
    },
    {
      "inputs": [
        {
          "internalType": "uint256",
          "name": "_tokenId",
          "type": "uint256"
        }
      ],
      "name": "disableAllowList",
      "outputs": [],
      "stateMutability": "nonpayable",
      "type": "function"
    },
    {
      "inputs": [
        {
          "internalType": "uint256",
          "name": "_tokenId",
          "type": "uint256"
        }
      ],
      "name": "enableAllowList",
      "outputs": [],
      "stateMutability": "nonpayable",
      "type": "function"
    },
    {
      "inputs": [],
      "name": "enableEditions",
      "outputs": [],
      "stateMutability": "nonpayable",
      "type": "function"
    },
    {
      "inputs": [
        {
          "internalType": "uint256",
          "name": "tokenId",
          "type": "uint256"
        }
      ],
      "name": "explicitOwnershipOf",
      "outputs": [
        {
          "components": [
            {
              "internalType": "address",
              "name": "addr",
              "type": "address"
            },
            {
              "internalType": "uint64",
              "name": "startTimestamp",
              "type": "uint64"
            },
            {
              "internalType": "bool",
              "name": "burned",
              "type": "bool"
            },
            {
              "internalType": "uint24",
              "name": "extraData",
              "type": "uint24"
            }
          ],
          "internalType": "struct DummyDiamond721Implementation.Tuple4362849",
          "name": "",
          "type": "tuple"
        }
      ],
      "stateMutability": "view",
      "type": "function"
    },
    {
      "inputs": [
        {
          "internalType": "uint256[]",
          "name": "tokenIds",
          "type": "uint256[]"
        }
      ],
      "name": "explicitOwnershipsOf",
      "outputs": [
        {
          "components": [
            {
              "internalType": "address",
              "name": "addr",
              "type": "address"
            },
            {
              "internalType": "uint64",
              "name": "startTimestamp",
              "type": "uint64"
            },
            {
              "internalType": "bool",
              "name": "burned",
              "type": "bool"
            },
            {
              "internalType": "uint24",
              "name": "extraData",
              "type": "uint24"
            }
          ],
          "internalType": "struct DummyDiamond721Implementation.Tuple4244095[]",
          "name": "",
          "type": "tuple[]"
        }
      ],
      "stateMutability": "view",
      "type": "function"
    },
    {
      "inputs": [
        {
          "internalType": "bytes4",
          "name": "_functionSelector",
          "type": "bytes4"
        }
      ],
      "name": "facetAddress",
      "outputs": [
        {
          "internalType": "address",
          "name": "facetAddress_",
          "type": "address"
        }
      ],
      "stateMutability": "view",
      "type": "function"
    },
    {
      "inputs": [],
      "name": "facetAddresses",
      "outputs": [
        {
          "internalType": "address[]",
          "name": "facetAddresses_",
          "type": "address[]"
        }
      ],
      "stateMutability": "view",
      "type": "function"
    },
    {
      "inputs": [
        {
          "internalType": "address",
          "name": "_facet",
          "type": "address"
        }
      ],
      "name": "facetFunctionSelectors",
      "outputs": [
        {
          "internalType": "bytes4[]",
          "name": "_facetFunctionSelectors",
          "type": "bytes4[]"
        }
      ],
      "stateMutability": "view",
      "type": "function"
    },
    {
      "inputs": [],
      "name": "facets",
      "outputs": [
        {
          "components": [
            {
              "internalType": "address",
              "name": "facetAddress",
              "type": "address"
            },
            {
              "internalType": "bytes4[]",
              "name": "functionSelectors",
              "type": "bytes4[]"
            }
          ],
          "internalType": "struct DummyDiamond721Implementation.Tuple1236461[]",
          "name": "facets_",
          "type": "tuple[]"
        }
      ],
      "stateMutability": "view",
      "type": "function"
    },
    {
      "inputs": [
        {
          "internalType": "uint256",
          "name": "tokenId",
          "type": "uint256"
        }
      ],
      "name": "getApproved",
      "outputs": [
        {
          "internalType": "address",
          "name": "",
          "type": "address"
        }
      ],
      "stateMutability": "view",
      "type": "function"
    },
    {
      "inputs": [
        {
          "internalType": "uint256",
          "name": "_tokenId",
          "type": "uint256"
        }
      ],
      "name": "getEditionIndex",
      "outputs": [
        {
          "internalType": "uint256",
          "name": "",
          "type": "uint256"
        }
      ],
      "stateMutability": "view",
      "type": "function"
    },
    {
      "inputs": [
        {
          "internalType": "address",
          "name": "_owner",
          "type": "address"
        }
      ],
      "name": "getEditionsByOwner",
      "outputs": [
        {
          "internalType": "uint256[]",
          "name": "",
          "type": "uint256[]"
        }
      ],
      "stateMutability": "view",
      "type": "function"
    },
    {
      "inputs": [],
      "name": "getOwners",
      "outputs": [
        {
          "internalType": "address[]",
          "name": "",
          "type": "address[]"
        }
      ],
      "stateMutability": "view",
      "type": "function"
    },
    {
      "inputs": [
        {
          "internalType": "uint256",
          "name": "_editionIndex",
          "type": "uint256"
        }
      ],
      "name": "getOwners",
      "outputs": [
        {
          "internalType": "address[]",
          "name": "",
          "type": "address[]"
        }
      ],
      "stateMutability": "view",
      "type": "function"
    },
    {
      "inputs": [
        {
          "internalType": "address",
          "name": "_owner",
          "type": "address"
        }
      ],
      "name": "getTokensByOwner",
      "outputs": [
        {
          "internalType": "uint256[]",
          "name": "",
          "type": "uint256[]"
        }
      ],
      "stateMutability": "view",
      "type": "function"
    },
    {
      "inputs": [
        {
          "internalType": "address",
          "name": "_owner",
          "type": "address"
        },
        {
          "internalType": "uint256",
          "name": "_editionIndex",
          "type": "uint256"
        }
      ],
      "name": "getTokensByOwner",
      "outputs": [
        {
          "internalType": "uint256[]",
          "name": "",
          "type": "uint256[]"
        }
      ],
      "stateMutability": "view",
      "type": "function"
    },
    {
      "inputs": [],
      "name": "implementation",
      "outputs": [
        {
          "internalType": "address",
          "name": "",
          "type": "address"
        }
      ],
      "stateMutability": "view",
      "type": "function"
    },
    {
      "inputs": [
        {
          "internalType": "address",
          "name": "owner",
          "type": "address"
        },
        {
          "internalType": "address",
          "name": "operator",
          "type": "address"
        }
      ],
      "name": "isApprovedForAll",
      "outputs": [
        {
          "internalType": "bool",
          "name": "",
          "type": "bool"
        }
      ],
      "stateMutability": "view",
      "type": "function"
    },
    {
      "inputs": [],
      "name": "isSoulbound",
      "outputs": [
        {
          "internalType": "bool",
          "name": "",
          "type": "bool"
        }
      ],
      "stateMutability": "view",
      "type": "function"
    },
    {
      "inputs": [],
      "name": "maxMintPerAddress",
      "outputs": [
        {
          "internalType": "uint256",
          "name": "",
          "type": "uint256"
        }
      ],
      "stateMutability": "view",
      "type": "function"
    },
    {
      "inputs": [],
      "name": "maxMintPerTx",
      "outputs": [
        {
          "internalType": "uint256",
          "name": "",
          "type": "uint256"
        }
      ],
      "stateMutability": "view",
      "type": "function"
    },
    {
      "inputs": [
        {
          "internalType": "uint256",
          "name": "_editionIndex",
          "type": "uint256"
        }
      ],
      "name": "maxSupply",
      "outputs": [
        {
          "internalType": "uint256",
          "name": "",
          "type": "uint256"
        }
      ],
      "stateMutability": "view",
      "type": "function"
    },
    {
      "inputs": [],
      "name": "maxSupply",
      "outputs": [
        {
          "internalType": "uint256",
          "name": "",
          "type": "uint256"
        }
      ],
      "stateMutability": "view",
      "type": "function"
    },
    {
      "inputs": [
        {
          "internalType": "address",
          "name": "to",
          "type": "address"
        },
        {
          "internalType": "uint256",
          "name": "amount",
          "type": "uint256"
        },
        {
          "internalType": "uint256",
          "name": "editionIndex",
          "type": "uint256"
        }
      ],
      "name": "mint",
      "outputs": [],
      "stateMutability": "payable",
      "type": "function"
    },
    {
      "inputs": [
        {
          "internalType": "address",
          "name": "to",
          "type": "address"
        },
        {
          "internalType": "uint256",
          "name": "amount",
          "type": "uint256"
        }
      ],
      "name": "mint",
      "outputs": [],
      "stateMutability": "payable",
      "type": "function"
    },
    {
      "inputs": [
        {
          "internalType": "address",
          "name": "to",
          "type": "address"
        }
      ],
      "name": "mint",
      "outputs": [],
      "stateMutability": "payable",
      "type": "function"
    },
    {
      "inputs": [],
      "name": "name",
      "outputs": [
        {
          "internalType": "string",
          "name": "",
          "type": "string"
        }
      ],
      "stateMutability": "view",
      "type": "function"
    },
    {
      "inputs": [],
      "name": "owner",
      "outputs": [
        {
          "internalType": "address",
          "name": "",
          "type": "address"
        }
      ],
      "stateMutability": "view",
      "type": "function"
    },
    {
      "inputs": [
        {
          "internalType": "uint256",
          "name": "tokenId",
          "type": "uint256"
        }
      ],
      "name": "ownerOf",
      "outputs": [
        {
          "internalType": "address",
          "name": "",
          "type": "address"
        }
      ],
      "stateMutability": "view",
      "type": "function"
    },
    {
      "inputs": [
        {
          "internalType": "address",
          "name": "_owner",
          "type": "address"
        },
        {
          "internalType": "uint256",
          "name": "editionIndex",
          "type": "uint256"
        }
      ],
      "name": "ownsEdition",
      "outputs": [
        {
          "internalType": "bool",
          "name": "",
          "type": "bool"
        }
      ],
      "stateMutability": "view",
      "type": "function"
    },
    {
      "inputs": [],
      "name": "pause",
      "outputs": [],
      "stateMutability": "nonpayable",
      "type": "function"
    },
    {
      "inputs": [],
      "name": "paused",
      "outputs": [
        {
          "internalType": "bool",
          "name": "",
          "type": "bool"
        }
      ],
      "stateMutability": "view",
      "type": "function"
    },
    {
      "inputs": [
        {
          "internalType": "uint256",
          "name": "index",
          "type": "uint256"
        }
      ],
      "name": "payee",
      "outputs": [
        {
          "internalType": "address",
          "name": "",
          "type": "address"
        }
      ],
      "stateMutability": "view",
      "type": "function"
    },
    {
      "inputs": [
        {
          "internalType": "uint256",
          "name": "_editionIndex",
          "type": "uint256"
        }
      ],
      "name": "price",
      "outputs": [
        {
          "internalType": "uint256",
          "name": "",
          "type": "uint256"
        }
      ],
      "stateMutability": "view",
      "type": "function"
    },
    {
      "inputs": [],
      "name": "price",
      "outputs": [
        {
          "internalType": "uint256",
          "name": "",
          "type": "uint256"
        }
      ],
      "stateMutability": "view",
      "type": "function"
    },
    {
      "inputs": [
        {
          "internalType": "address",
          "name": "account",
          "type": "address"
        }
      ],
      "name": "releasable",
      "outputs": [
        {
          "internalType": "uint256",
          "name": "",
          "type": "uint256"
        }
      ],
      "stateMutability": "view",
      "type": "function"
    },
    {
      "inputs": [
        {
          "internalType": "address",
          "name": "token",
          "type": "address"
        },
        {
          "internalType": "address",
          "name": "account",
          "type": "address"
        }
      ],
      "name": "releasable",
      "outputs": [
        {
          "internalType": "uint256",
          "name": "",
          "type": "uint256"
        }
      ],
      "stateMutability": "view",
      "type": "function"
    },
    {
      "inputs": [
        {
          "internalType": "address",
          "name": "account",
          "type": "address"
        }
      ],
      "name": "release",
      "outputs": [],
      "stateMutability": "nonpayable",
      "type": "function"
    },
    {
      "inputs": [
        {
          "internalType": "address",
          "name": "token",
          "type": "address"
        },
        {
          "internalType": "address",
          "name": "account",
          "type": "address"
        }
      ],
      "name": "release",
      "outputs": [],
      "stateMutability": "nonpayable",
      "type": "function"
    },
    {
      "inputs": [
        {
          "internalType": "address",
          "name": "token",
          "type": "address"
        },
        {
          "internalType": "address",
          "name": "account",
          "type": "address"
        }
      ],
      "name": "released",
      "outputs": [
        {
          "internalType": "uint256",
          "name": "",
          "type": "uint256"
        }
      ],
      "stateMutability": "view",
      "type": "function"
    },
    {
      "inputs": [
        {
          "internalType": "address",
          "name": "account",
          "type": "address"
        }
      ],
      "name": "released",
      "outputs": [
        {
          "internalType": "uint256",
          "name": "",
          "type": "uint256"
        }
      ],
      "stateMutability": "view",
      "type": "function"
    },
    {
      "inputs": [
        {
          "internalType": "uint256",
          "name": "tokenId",
          "type": "uint256"
        },
        {
          "internalType": "address",
          "name": "account",
          "type": "address"
        }
      ],
      "name": "removeFromAllowList",
      "outputs": [],
      "stateMutability": "nonpayable",
      "type": "function"
    },
    {
      "inputs": [
        {
          "internalType": "uint256",
          "name": "tokenId",
          "type": "uint256"
        },
        {
          "internalType": "address[]",
          "name": "accounts",
          "type": "address[]"
        }
      ],
      "name": "removeFromAllowList",
      "outputs": [],
      "stateMutability": "nonpayable",
      "type": "function"
    },
    {
      "inputs": [
        {
          "internalType": "uint256",
          "name": "tokenId",
          "type": "uint256"
        },
        {
          "internalType": "uint256",
          "name": "salePrice",
          "type": "uint256"
        }
      ],
      "name": "royaltyInfo",
      "outputs": [
        {
          "internalType": "address",
          "name": "",
          "type": "address"
        },
        {
          "internalType": "uint256",
          "name": "",
          "type": "uint256"
        }
      ],
      "stateMutability": "view",
      "type": "function"
    },
    {
      "inputs": [
        {
          "internalType": "address",
          "name": "from",
          "type": "address"
        },
        {
          "internalType": "address",
          "name": "to",
          "type": "address"
        },
        {
          "internalType": "uint256",
          "name": "tokenId",
          "type": "uint256"
        }
      ],
      "name": "safeTransferFrom",
      "outputs": [],
      "stateMutability": "nonpayable",
      "type": "function"
    },
    {
      "inputs": [
        {
          "internalType": "address",
          "name": "from",
          "type": "address"
        },
        {
          "internalType": "address",
          "name": "to",
          "type": "address"
        },
        {
          "internalType": "uint256",
          "name": "tokenId",
          "type": "uint256"
        },
        {
          "internalType": "bytes",
          "name": "_data",
          "type": "bytes"
        }
      ],
      "name": "safeTransferFrom",
      "outputs": [],
      "stateMutability": "nonpayable",
      "type": "function"
    },
    {
      "inputs": [
        {
          "internalType": "bool",
          "name": "_airdrop",
          "type": "bool"
        }
      ],
      "name": "setAirdrop",
      "outputs": [],
      "stateMutability": "nonpayable",
      "type": "function"
    },
    {
      "inputs": [
        {
          "internalType": "address",
          "name": "operator",
          "type": "address"
        },
        {
          "internalType": "bool",
          "name": "approved",
          "type": "bool"
        }
      ],
      "name": "setApprovalForAll",
      "outputs": [],
      "stateMutability": "nonpayable",
      "type": "function"
    },
    {
      "inputs": [
        {
          "internalType": "bool",
          "name": "_automaticUSDConversion",
          "type": "bool"
        }
      ],
      "name": "setAutomaticUSDConversion",
      "outputs": [],
      "stateMutability": "nonpayable",
      "type": "function"
    },
    {
      "inputs": [
        {
          "internalType": "uint16",
          "name": "_defaultRoyaltyBPS",
          "type": "uint16"
        },
        {
          "internalType": "address",
          "name": "_defaultRoyalyReceiver",
          "type": "address"
        }
      ],
      "name": "setDefaultRoyalty",
      "outputs": [],
      "stateMutability": "nonpayable",
      "type": "function"
    },
    {
      "inputs": [
        {
          "internalType": "address",
          "name": "_implementation",
          "type": "address"
        }
      ],
      "name": "setDummyImplementation",
      "outputs": [],
      "stateMutability": "nonpayable",
      "type": "function"
    },
    {
      "inputs": [
        {
          "internalType": "bool",
          "name": "_isPriceUSD",
          "type": "bool"
        }
      ],
      "name": "setIsPriceUSD",
      "outputs": [],
      "stateMutability": "nonpayable",
      "type": "function"
    },
    {
      "inputs": [
        {
          "internalType": "uint256",
          "name": "_maxMintPerAddress",
          "type": "uint256"
        }
      ],
      "name": "setMaxMintPerAddress",
      "outputs": [],
      "stateMutability": "nonpayable",
      "type": "function"
    },
    {
      "inputs": [
        {
          "internalType": "uint256",
          "name": "_maxMintPerTx",
          "type": "uint256"
        }
      ],
      "name": "setMaxMintPerTx",
      "outputs": [],
      "stateMutability": "nonpayable",
      "type": "function"
    },
    {
      "inputs": [
        {
          "internalType": "uint256",
          "name": "_maxSupply",
          "type": "uint256"
        },
        {
          "internalType": "uint256",
          "name": "_editionIndex",
          "type": "uint256"
        }
      ],
      "name": "setMaxSupply",
      "outputs": [],
      "stateMutability": "nonpayable",
      "type": "function"
    },
    {
      "inputs": [
        {
          "internalType": "uint256",
          "name": "_maxSupply",
          "type": "uint256"
        }
      ],
      "name": "setMaxSupply",
      "outputs": [],
      "stateMutability": "nonpayable",
      "type": "function"
    },
    {
      "inputs": [
        {
          "internalType": "string",
          "name": "_name",
          "type": "string"
        }
      ],
      "name": "setName",
      "outputs": [],
      "stateMutability": "nonpayable",
      "type": "function"
    },
    {
      "inputs": [
        {
          "internalType": "uint256",
          "name": "_price",
          "type": "uint256"
        }
      ],
      "name": "setPrice",
      "outputs": [],
      "stateMutability": "nonpayable",
      "type": "function"
    },
    {
      "inputs": [
        {
          "internalType": "uint256",
          "name": "_price",
          "type": "uint256"
        },
        {
          "internalType": "uint256",
          "name": "_editionIndex",
          "type": "uint256"
        }
      ],
      "name": "setPrice",
      "outputs": [],
      "stateMutability": "nonpayable",
      "type": "function"
    },
    {
      "inputs": [
        {
          "internalType": "bool",
          "name": "_isSoulbound",
          "type": "bool"
        }
      ],
      "name": "setSoulbound",
      "outputs": [],
      "stateMutability": "nonpayable",
      "type": "function"
    },
    {
      "inputs": [
        {
          "internalType": "string",
          "name": "_symbol",
          "type": "string"
        }
      ],
      "name": "setSymbol",
      "outputs": [],
      "stateMutability": "nonpayable",
      "type": "function"
    },
    {
      "inputs": [
        {
          "internalType": "string",
          "name": "tokenURI",
          "type": "string"
        }
      ],
      "name": "setTokenURI",
      "outputs": [],
      "stateMutability": "nonpayable",
      "type": "function"
    },
    {
      "inputs": [
        {
          "internalType": "address",
          "name": "account",
          "type": "address"
        }
      ],
      "name": "shares",
      "outputs": [
        {
          "internalType": "uint256",
          "name": "",
          "type": "uint256"
        }
      ],
      "stateMutability": "view",
      "type": "function"
    },
    {
      "inputs": [
        {
          "internalType": "bytes4",
          "name": "interfaceId",
          "type": "bytes4"
        }
      ],
      "name": "supportsInterface",
      "outputs": [
        {
          "internalType": "bool",
          "name": "",
          "type": "bool"
        }
      ],
      "stateMutability": "view",
      "type": "function"
    },
    {
      "inputs": [],
      "name": "symbol",
      "outputs": [
        {
          "internalType": "string",
          "name": "",
          "type": "string"
        }
      ],
      "stateMutability": "view",
      "type": "function"
    },
    {
      "inputs": [
        {
          "internalType": "uint256",
          "name": "tokenId",
          "type": "uint256"
        }
      ],
      "name": "tokenURI",
      "outputs": [
        {
          "internalType": "string",
          "name": "",
          "type": "string"
        }
      ],
      "stateMutability": "view",
      "type": "function"
    },
    {
      "inputs": [
        {
          "internalType": "address",
          "name": "owner",
          "type": "address"
        }
      ],
      "name": "tokensOfOwner",
      "outputs": [
        {
          "internalType": "uint256[]",
          "name": "",
          "type": "uint256[]"
        }
      ],
      "stateMutability": "view",
      "type": "function"
    },
    {
      "inputs": [
        {
          "internalType": "address",
          "name": "owner",
          "type": "address"
        },
        {
          "internalType": "uint256",
          "name": "start",
          "type": "uint256"
        },
        {
          "internalType": "uint256",
          "name": "stop",
          "type": "uint256"
        }
      ],
      "name": "tokensOfOwnerIn",
      "outputs": [
        {
          "internalType": "uint256[]",
          "name": "",
          "type": "uint256[]"
        }
      ],
      "stateMutability": "view",
      "type": "function"
    },
    {
      "inputs": [
        {
          "internalType": "address",
          "name": "token",
          "type": "address"
        }
      ],
      "name": "totalReleased",
      "outputs": [
        {
          "internalType": "uint256",
          "name": "",
          "type": "uint256"
        }
      ],
      "stateMutability": "view",
      "type": "function"
    },
    {
      "inputs": [],
      "name": "totalReleased",
      "outputs": [
        {
          "internalType": "uint256",
          "name": "",
          "type": "uint256"
        }
      ],
      "stateMutability": "view",
      "type": "function"
    },
    {
      "inputs": [],
      "name": "totalShares",
      "outputs": [
        {
          "internalType": "uint256",
          "name": "",
          "type": "uint256"
        }
      ],
      "stateMutability": "view",
      "type": "function"
    },
    {
      "inputs": [],
      "name": "totalSupply",
      "outputs": [
        {
          "internalType": "uint256",
          "name": "",
          "type": "uint256"
        }
      ],
      "stateMutability": "view",
      "type": "function"
    },
    {
      "inputs": [
        {
          "internalType": "uint256",
          "name": "_editionIndex",
          "type": "uint256"
        }
      ],
      "name": "totalSupply",
      "outputs": [
        {
          "internalType": "uint256",
          "name": "",
          "type": "uint256"
        }
      ],
      "stateMutability": "view",
      "type": "function"
    },
    {
      "inputs": [
        {
          "internalType": "address",
          "name": "from",
          "type": "address"
        },
        {
          "internalType": "address",
          "name": "to",
          "type": "address"
        },
        {
          "internalType": "uint256",
          "name": "tokenId",
          "type": "uint256"
        }
      ],
      "name": "transferFrom",
      "outputs": [],
      "stateMutability": "nonpayable",
      "type": "function"
    },
    {
      "inputs": [
        {
          "internalType": "address",
          "name": "account",
          "type": "address"
        }
      ],
      "name": "transferOwnership",
      "outputs": [],
      "stateMutability": "nonpayable",
      "type": "function"
    },
    {
      "inputs": [],
      "name": "unpause",
      "outputs": [],
      "stateMutability": "nonpayable",
      "type": "function"
    },
    {
      "inputs": [
        {
          "internalType": "address",
          "name": "_newPayee",
          "type": "address"
        }
      ],
      "name": "updatePaymentSplitterAddress",
      "outputs": [
        {
          "internalType": "bool",
          "name": "success",
          "type": "bool"
        }
      ],
      "stateMutability": "nonpayable",
      "type": "function"
    },
    {
      "inputs": [
        {
          "internalType": "uint256",
          "name": "_totalSuppy",
          "type": "uint256"
        },
        {
          "internalType": "uint256",
          "name": "_editionIndex",
          "type": "uint256"
        }
      ],
      "name": "updateTotalSupply",
      "outputs": [],
      "stateMutability": "nonpayable",
      "type": "function"
    }
  ],
  "bytecode": {
    "object": "0x608060405234801561001057600080fd5b506115e6806100206000396000f3fe6080604052600436106105235760003560e01c8063815e6ea1116102a2578063bd85b03911610165578063de7fcb1d116100cc578063ee4525d511610085578063ee4525d514610af3578063f2fde38b14610654578063f7d9757714610760578063f7eca6d01461077b578063f8b4ab7a14610760578063fef9cf9b14610b0e57600080fd5b8063de7fcb1d14610636578063df30e54b14610605578063e0df5b6f14610a01578063e33b7de314610636578063e8a3d4851461057f578063e985e9c514610ad857600080fd5b8063cdffacc61161011e578063cdffacc614610aa2578063ce7c2ac2146108d4578063cff37ca214610605578063d5abeb0114610636578063d65795c314610abd578063d79779b2146108d457600080fd5b8063bd85b039146106ee578063c23dc68f14610a37578063c39aa07d14610654578063c45ac0501461079b578063c47f002714610a01578063c87b56dd14610a8757600080fd5b80639c66762611610209578063a3f8eace116101c2578063a3f8eace146108d4578063adfca15e146109be578063aeed04a6146109e6578063afa71cb81461090a578063b84c824614610a01578063b88d4fde14610a1c57600080fd5b80639c667626146109655780639f6cfaa214610980578063a035b1fe14610636578063a0e67e2b14610802578063a1d4afa21461078f578063a22cb465146109a357600080fd5b80638da5cb5b1161025b5780638da5cb5b1461074c57806391b7f5ed1461069d57806395d89b411461057f5780639852595c146108d457806398ecc01a1461069d57806399a2557a1461094157600080fd5b8063815e6ea11461060557806384207565146105ea5780638456cb591461078f5780638462151c1461066f578063869f7594146106ee5780638b83209b1461059c57600080fd5b806340c10f19116103ea57806362a6d197116103515780636f2e2f271161030a5780636f2e2f27146108b95780636f8b44b01461069d57806370a08231146108d45780637958bc8c146108ef57806379857c231461090a5780637a0ed6271461092557600080fd5b806362a6d197146108625780636352211e1461059c578063666f198d1461069d5780636a6278421461088a5780636e09dd16146108985780636e563cdf146106ee57600080fd5b8063572849c4116103a3578063572849c41461063657806359bd6ff41461081f5780635bbb21771461083a5780635c60da1b1461074c5780635c975abb1461077b578063616cdb1e1461069d57600080fd5b806340c10f19146107be57806342842e0e146106d357806342966c681461069d57806348b75044146107cc5780634d6d50fb146107e757806352ef6b2c1461080257600080fd5b80631e14d44b1161048e57806337da577c1161044757806337da577c146107605780633884d6351461077b5780633a98ef39146106365780633f4ba83a1461078f57806340398d671461066f578063406072a91461079b57600080fd5b80631e14d44b1461069d5780631f931c1c146106b857806323b872dd146106d357806326a49e37146106ee5780632a55205a146107095780633344ca2e1461074c57600080fd5b806311111487116104e05780631111148714610605578063156e29f61461062357806318160ddd1461063657806318f9b023146105cf57806319165587146106545780631e0309391461066f57600080fd5b806301ffc9a71461052857806305b4d1d61461055e57806306fdde031461057f578063081812fc1461059c578063095ea7b3146105cf5780630d112049146105ea575b600080fd5b34801561053457600080fd5b50610549610543366004610b46565b50600090565b60405190151581526020015b60405180910390f35b34801561056a57600080fd5b5061057d610579366004610b7f565b5050565b005b34801561058b57600080fd5b5060605b6040516105559190610bbb565b3480156105a857600080fd5b506105b7610543366004610c09565b6040516001600160a01b039091168152602001610555565b3480156105db57600080fd5b5061057d610579366004610c22565b3480156105f657600080fd5b5061057d610579366004610c4c565b34801561061157600080fd5b5061057d610620366004610c7f565b50565b61057d610631366004610c9a565b505050565b34801561064257600080fd5b5060005b604051908152602001610555565b34801561066057600080fd5b5061057d610620366004610ccd565b34801561067b57600080fd5b5061069061068a366004610ccd565b50606090565b6040516105559190610ce8565b3480156106a957600080fd5b5061057d610620366004610c09565b3480156106c457600080fd5b5061057d610631366004610e2c565b3480156106df57600080fd5b5061057d610631366004610fd4565b3480156106fa57600080fd5b50610646610543366004610c09565b34801561071557600080fd5b5061072d610724366004611010565b50600091829150565b604080516001600160a01b039093168352602083019190915201610555565b34801561075857600080fd5b5060006105b7565b34801561076c57600080fd5b5061057d610579366004611010565b34801561078757600080fd5b506000610549565b34801561057d57600080fd5b3480156107a757600080fd5b506106466107b6366004611032565b600092915050565b61057d610579366004610c22565b3480156107d857600080fd5b5061057d610579366004611032565b3480156107f357600080fd5b5061057d61063136600461104e565b34801561080e57600080fd5b5060605b604051610555919061109b565b34801561082b57600080fd5b5061057d610631366004611149565b34801561084657600080fd5b5061085561068a366004611198565b6040516105559190611264565b34801561086e57600080fd5b5061087d61068a366004610c09565b60405161055591906112a6565b61057d610620366004610ccd565b3480156108a457600080fd5b5061057d6108b33660046112fe565b50505050565b3480156108c557600080fd5b506105496107b6366004610c22565b3480156108e057600080fd5b50610646610543366004610ccd565b3480156108fb57600080fd5b506105496107b6366004610c4c565b34801561091657600080fd5b5061057d610579366004611339565b34801561093157600080fd5b50606060405161055591906113c4565b34801561094d57600080fd5b5061069061095c366004610c9a565b60609392505050565b34801561097157600080fd5b50610549610543366004610c09565b34801561098c57600080fd5b5061069061099b366004610c22565b606092915050565b3480156109af57600080fd5b5061057d610579366004611441565b3480156109ca57600080fd5b506109d961068a366004610ccd565b604051610555919061146b565b3480156109f257600080fd5b50610549610543366004610ccd565b348015610a0d57600080fd5b5061057d61062036600461147e565b348015610a2857600080fd5b5061057d6108b33660046114ba565b348015610a4357600080fd5b50610a7a610a52366004610c09565b5060408051608081018252600080825260208201819052918101829052606081019190915290565b6040516105559190611521565b348015610a9357600080fd5b5061058f61068a366004610c09565b348015610aae57600080fd5b506105b7610543366004610b46565b348015610ac957600080fd5b5061057d610631366004611535565b348015610ae457600080fd5b506105496107b6366004611032565b348015610aff57600080fd5b5061081261068a366004610c09565b348015610b1a57600080fd5b5061057d6108b336600461155a565b919050565b80356001600160e01b031981168114610b2957600080fd5b600060208284031215610b5857600080fd5b610b6182610b2e565b9392505050565b80356001600160a01b0381168114610b2957600080fd5b60008060408385031215610b9257600080fd5b823561ffff81168114610ba457600080fd5b9150610bb260208401610b68565b90509250929050565b600060208083528351808285015260005b81811015610be857858101830151858201604001528201610bcc565b506000604082860101526040601f19601f8301168501019250505092915050565b600060208284031215610c1b57600080fd5b5035919050565b60008060408385031215610c3557600080fd5b610c3e83610b68565b946020939093013593505050565b60008060408385031215610c5f57600080fd5b82359150610bb260208401610b68565b80358015158114610b2957600080fd5b600060208284031215610c9157600080fd5b610b6182610c6f565b600080600060608486031215610caf57600080fd5b610cb884610b68565b95602085013595506040909401359392505050565b600060208284031215610cdf57600080fd5b610b6182610b68565b6020808252825182820181905260009190848201906040850190845b81811015610d2057835183529284019291840191600101610d04565b50909695505050505050565b634e487b7160e01b600052604160045260246000fd5b604051606081016001600160401b0381118282101715610d6457610d64610d2c565b60405290565b604051601f8201601f191681016001600160401b0381118282101715610d9257610d92610d2c565b604052919050565b60006001600160401b03821115610db357610db3610d2c565b5060051b60200190565b600082601f830112610dce57600080fd5b81356001600160401b03811115610de757610de7610d2c565b610dfa601f8201601f1916602001610d6a565b818152846020838601011115610e0f57600080fd5b816020850160208301376000918101602001919091529392505050565b600080600060608486031215610e4157600080fd5b6001600160401b038085351115610e5757600080fd5b8435850186601f820112610e6a57600080fd5b610e7c610e778235610d9a565b610d6a565b81358082526020808301929160051b84010189811115610e9b57600080fd5b602084015b81811015610f95578581351115610eb657600080fd5b803585016060818d03601f19011215610ece57600080fd5b610ed6610d42565b610ee260208301610b68565b8152604082013560ff81168114610ef857600080fd5b6020820152606082013588811115610f0f57600080fd5b8083019250508c603f830112610f2457600080fd5b6020820135610f35610e7782610d9a565b81815260059190911b83016040019060208101908f831115610f5657600080fd5b6040850194505b82851015610f7f57610f6e85610b2e565b825260209485019490910190610f5d565b6040840152505085525060209384019301610ea0565b5050809650505050610fa960208601610b68565b9250604085013581811115610fbd57600080fd5b610fc987828801610dbd565b925050509250925092565b600080600060608486031215610fe957600080fd5b610ff284610b68565b925061100060208501610b68565b9150604084013590509250925092565b6000806040838503121561102357600080fd5b50508035926020909101359150565b6000806040838503121561104557600080fd5b610ba483610b68565b60008060006060848603121561106357600080fd5b83356001600160401b0381111561107957600080fd5b61108586828701610dbd565b9660208601359650604090950135949350505050565b6020808252825182820181905260009190848201906040850190845b81811015610d205783516001600160a01b0316835292840192918401916001016110b7565b600082601f8301126110ed57600080fd5b813560206110fd610e7783610d9a565b82815260059290921b8401810191818101908684111561111c57600080fd5b8286015b8481101561113e5761113181610b68565b8352918301918301611120565b509695505050505050565b60008060006060848603121561115e57600080fd5b8335925060208401356001600160401b0381111561117b57600080fd5b611187868287016110dc565b925050604084013590509250925092565b600060208083850312156111ab57600080fd5b82356001600160401b038111156111c157600080fd5b8301601f810185136111d257600080fd5b80356111e0610e7782610d9a565b81815260059190911b820183019083810190878311156111ff57600080fd5b928401925b8284101561121d57833582529284019290840190611204565b979650505050505050565b80516001600160a01b031682526020808201516001600160401b03169083015260408082015115159083015260609081015162ffffff16910152565b6020808252825182820181905260009190848201906040850190845b81811015610d2057611293838551611228565b9284019260809290920191600101611280565b602080825282518282018190526000919060409081850190868401855b828110156112f157815180516001600160a01b031685528601518685015292840192908501906001016112c3565b5091979650505050505050565b6000806000806080858703121561131457600080fd5b8435935061132460208601610b68565b93969395505050506040820135916060013590565b6000806040838503121561134c57600080fd5b8235915060208301356001600160401b0381111561136957600080fd5b611375858286016110dc565b9150509250929050565b600081518084526020808501945080840160005b838110156113b95781516001600160e01b03191687529582019590820190600101611393565b509495945050505050565b60006020808301818452808551808352604092508286019150828160051b87010184880160005b8381101561143357888303603f19018552815180516001600160a01b031684528701518784018790526114208785018261137f565b95880195935050908601906001016113eb565b509098975050505050505050565b6000806040838503121561145457600080fd5b61145d83610b68565b9150610bb260208401610c6f565b602081526000610b61602083018461137f565b60006020828403121561149057600080fd5b81356001600160401b038111156114a657600080fd5b6114b284828501610dbd565b949350505050565b600080600080608085870312156114d057600080fd5b6114d985610b68565b93506114e760208601610b68565b92506040850135915060608501356001600160401b0381111561150957600080fd5b61151587828801610dbd565b91505092959194509250565b6080810161152f8284611228565b92915050565b60008060006060848603121561154a57600080fd5b8335925061100060208501610b68565b6000806000806080858703121561157057600080fd5b8435935060208501356001600160401b0381111561158d57600080fd5b611599878288016110dc565b94979496505050506040830135926060013591905056fea26469706673582212203ddbc723d54d3c08f84c3f57da07ce9a88efcf9e4ab975625f8d88e9dea1a94b64736f6c63430008140033",
    "linkReferences": {}
  },
  "methodIdentifiers": {
    "__transitiveOwner()": "3344ca2e",
    "addPayee(address,uint256)": "18f9b023",
    "addToAllowList(uint256,address)": "0d112049",
    "addToAllowList(uint256,address,uint256)": "d65795c3",
    "addToAllowList(uint256,address,uint256,uint256)": "6e09dd16",
    "addToAllowList(uint256,address[])": "79857c23",
    "addToAllowList(uint256,address[],uint256)": "59bd6ff4",
    "addToAllowList(uint256,address[],uint256,uint256)": "fef9cf9b",
    "airdrop()": "3884d635",
    "allowList(uint256)": "62a6d197",
    "allowListContains(uint256,address)": "7958bc8c",
    "allowListEnabled(uint256)": "9c667626",
    "approve(address,uint256)": "095ea7b3",
    "balanceOf(address)": "70a08231",
    "burn(uint256)": "42966c68",
    "contractURI()": "e8a3d485",
    "createEdition(string,uint256,uint256)": "4d6d50fb",
    "diamondCut((address,uint8,bytes4[])[],address,bytes)": "1f931c1c",
    "disableAllowList(uint256)": "666f198d",
    "enableAllowList(uint256)": "98ecc01a",
    "enableEditions()": "a1d4afa2",
    "explicitOwnershipOf(uint256)": "c23dc68f",
    "explicitOwnershipsOf(uint256[])": "5bbb2177",
    "facetAddress(bytes4)": "cdffacc6",
    "facetAddresses()": "52ef6b2c",
    "facetFunctionSelectors(address)": "adfca15e",
    "facets()": "7a0ed627",
    "getApproved(uint256)": "081812fc",
    "getEditionIndex(uint256)": "6e563cdf",
    "getEditionsByOwner(address)": "1e030939",
    "getOwners()": "a0e67e2b",
    "getOwners(uint256)": "ee4525d5",
    "getTokensByOwner(address)": "40398d67",
    "getTokensByOwner(address,uint256)": "9f6cfaa2",
    "implementation()": "5c60da1b",
    "isApprovedForAll(address,address)": "e985e9c5",
    "isSoulbound()": "f7eca6d0",
    "maxMintPerAddress()": "572849c4",
    "maxMintPerTx()": "de7fcb1d",
    "maxSupply()": "d5abeb01",
    "maxSupply(uint256)": "869f7594",
    "mint(address)": "6a627842",
    "mint(address,uint256)": "40c10f19",
    "mint(address,uint256,uint256)": "156e29f6",
    "name()": "06fdde03",
    "owner()": "8da5cb5b",
    "ownerOf(uint256)": "6352211e",
    "ownsEdition(address,uint256)": "6f2e2f27",
    "pause()": "8456cb59",
    "paused()": "5c975abb",
    "payee(uint256)": "8b83209b",
    "price()": "a035b1fe",
    "price(uint256)": "26a49e37",
    "releasable(address)": "a3f8eace",
    "releasable(address,address)": "c45ac050",
    "release(address)": "19165587",
    "release(address,address)": "48b75044",
    "released(address)": "9852595c",
    "released(address,address)": "406072a9",
    "removeFromAllowList(uint256,address)": "84207565",
    "removeFromAllowList(uint256,address[])": "afa71cb8",
    "royaltyInfo(uint256,uint256)": "2a55205a",
    "safeTransferFrom(address,address,uint256)": "42842e0e",
    "safeTransferFrom(address,address,uint256,bytes)": "b88d4fde",
    "setAirdrop(bool)": "11111487",
    "setApprovalForAll(address,bool)": "a22cb465",
    "setAutomaticUSDConversion(bool)": "815e6ea1",
    "setDefaultRoyalty(uint16,address)": "05b4d1d6",
    "setDummyImplementation(address)": "c39aa07d",
    "setIsPriceUSD(bool)": "cff37ca2",
    "setMaxMintPerAddress(uint256)": "1e14d44b",
    "setMaxMintPerTx(uint256)": "616cdb1e",
    "setMaxSupply(uint256)": "6f8b44b0",
    "setMaxSupply(uint256,uint256)": "37da577c",
    "setName(string)": "c47f0027",
    "setPrice(uint256)": "91b7f5ed",
    "setPrice(uint256,uint256)": "f7d97577",
    "setSoulbound(bool)": "df30e54b",
    "setSymbol(string)": "b84c8246",
    "setTokenURI(string)": "e0df5b6f",
    "shares(address)": "ce7c2ac2",
    "supportsInterface(bytes4)": "01ffc9a7",
    "symbol()": "95d89b41",
    "tokenURI(uint256)": "c87b56dd",
    "tokensOfOwner(address)": "8462151c",
    "tokensOfOwnerIn(address,uint256,uint256)": "99a2557a",
    "totalReleased()": "e33b7de3",
    "totalReleased(address)": "d79779b2",
    "totalShares()": "3a98ef39",
    "totalSupply()": "18160ddd",
    "totalSupply(uint256)": "bd85b039",
    "transferFrom(address,address,uint256)": "23b872dd",
    "transferOwnership(address)": "f2fde38b",
    "unpause()": "3f4ba83a",
    "updatePaymentSplitterAddress(address)": "aeed04a6",
    "updateTotalSupply(uint256,uint256)": "f8b4ab7a"
  },
  "id": 33
}