{
  "abi": [
    {
      "inputs": [],
      "name": "Ownable__NotOwner",
      "type": "error"
    },
    {
      "inputs": [],
      "name": "Ownable__NotTransitiveOwner",
      "type": "error"
    },
    {
      "anonymous": false,
      "inputs": [
        {
          "indexed": true,
          "internalType": "address",
          "name": "previousOwner",
          "type": "address"
        },
        {
          "indexed": true,
          "internalType": "address",
          "name": "newOwner",
          "type": "address"
        }
      ],
      "name": "OwnershipTransferred",
      "type": "event"
    },
    {
      "inputs": [],
      "name": "__transitiveOwner",
      "outputs": [
        {
          "internalType": "address",
          "name": "",
          "type": "address"
        }
      ],
      "stateMutability": "view",
      "type": "function"
    },
    {
      "inputs": [],
      "name": "owner",
      "outputs": [
        {
          "internalType": "address",
          "name": "",
          "type": "address"
        }
      ],
      "stateMutability": "view",
      "type": "function"
    },
    {
      "inputs": [
        {
          "internalType": "address",
          "name": "account",
          "type": "address"
        }
      ],
      "name": "transferOwnership",
      "outputs": [],
      "stateMutability": "nonpayable",
      "type": "function"
    }
  ],
  "bytecode": {
    "object": "0x608060405234801561001057600080fd5b506102a7806100206000396000f3fe608060405234801561001057600080fd5b50600436106100415760003560e01c80633344ca2e146100465780638da5cb5b1461006a578063f2fde38b14610072575b600080fd5b61004e610087565b6040516001600160a01b03909116815260200160405180910390f35b61004e610096565b610085610080366004610230565b6100a0565b005b60006100916100e5565b905090565b600061009161016b565b6100a861016b565b6001600160a01b0316336001600160a01b0316146100d957604051632f7a8ee160e01b815260040160405180910390fd5b6100e281610199565b50565b60006100ef61016b565b90505b6001600160a01b0381163b1561016857806001600160a01b0316638da5cb5b6040518163ffffffff1660e01b8152600401602060405180830381865afa92505050801561015c575060408051601f3d908101601f1916820190925261015991810190610254565b60015b156101685790506100f2565b90565b7f8a22373512790c48b83a1fe2efdd2888d4a917bcdc24d0adf63e60f671680460546001600160a01b031690565b7f8a22373512790c48b83a1fe2efdd2888d4a917bcdc24d0adf63e60f67168046080546040516100e292849290916001600160a01b038085169216907f8be0079c531659141344cd1fd0a4f28419497f9722a3daafe3b4186f6b6457e090600090a380546001600160a01b0319166001600160a01b0392909216919091179055565b6001600160a01b03811681146100e257600080fd5b60006020828403121561024257600080fd5b813561024d8161021b565b9392505050565b60006020828403121561026657600080fd5b815161024d8161021b56fea2646970667358221220463d1aafdc6e2143f6529cf749fa121b823751a281a7ce11ebd601d339c7824364736f6c63430008140033",
    "linkReferences": {}
  },
  "methodIdentifiers": {
    "__transitiveOwner()": "3344ca2e",
    "owner()": "8da5cb5b",
    "transferOwnership(address)": "f2fde38b"
  },
  "id": 38
}