{
  "abi": [
    {
      "inputs": [],
      "name": "AccountAlreadyAllowListed",
      "type": "error"
    },
    {
      "inputs": [],
      "name": "AccountNotAllowListed",
      "type": "error"
    },
    {
      "inputs": [],
      "name": "AllowListAmountExceeded",
      "type": "error"
    },
    {
      "inputs": [],
      "name": "AllowListDisabled",
      "type": "error"
    },
    {
      "inputs": [],
      "name": "AllowListEnabled",
      "type": "error"
    },
    {
      "inputs": [],
      "name": "AllowListMintUnopened",
      "type": "error"
    },
    {
      "inputs": [],
      "name": "ApprovalCallerNotOwnerNorApproved",
      "type": "error"
    },
    {
      "inputs": [],
      "name": "ApprovalQueryForNonexistentToken",
      "type": "error"
    },
    {
      "inputs": [],
      "name": "BalanceQueryForZeroAddress",
      "type": "error"
    },
    {
      "inputs": [],
      "name": "EditionsEnabled",
      "type": "error"
    },
    {
      "inputs": [],
      "name": "ExceedsMaxMintPerAddress",
      "type": "error"
    },
    {
      "inputs": [],
      "name": "ExceedsMaxMintPerTx",
      "type": "error"
    },
    {
      "inputs": [],
      "name": "ExceedsMaxSupply",
      "type": "error"
    },
    {
      "inputs": [],
      "name": "InvalidAirdropCaller",
      "type": "error"
    },
    {
      "inputs": [],
      "name": "InvalidMerkleProof",
      "type": "error"
    },
    {
      "inputs": [],
      "name": "InvalidValueSent",
      "type": "error"
    },
    {
      "inputs": [],
      "name": "MintERC2309QuantityExceedsLimit",
      "type": "error"
    },
    {
      "inputs": [],
      "name": "MintNotOpen",
      "type": "error"
    },
    {
      "inputs": [],
      "name": "MintToZeroAddress",
      "type": "error"
    },
    {
      "inputs": [],
      "name": "MintZeroQuantity",
      "type": "error"
    },
    {
      "inputs": [],
      "name": "NotOnAllowList",
      "type": "error"
    },
    {
      "inputs": [],
      "name": "Ownable__NotOwner",
      "type": "error"
    },
    {
      "inputs": [],
      "name": "Ownable__NotTransitiveOwner",
      "type": "error"
    },
    {
      "inputs": [],
      "name": "OwnerQueryForNonexistentToken",
      "type": "error"
    },
    {
      "inputs": [],
      "name": "OwnerQueryForNonexistentToken",
      "type": "error"
    },
    {
      "inputs": [],
      "name": "OwnershipNotInitializedForExtraData",
      "type": "error"
    },
    {
      "inputs": [],
      "name": "Pausable__NotPaused",
      "type": "error"
    },
    {
      "inputs": [],
      "name": "Pausable__Paused",
      "type": "error"
    },
    {
      "inputs": [],
      "name": "TokenIsSoulbound",
      "type": "error"
    },
    {
      "inputs": [],
      "name": "TransferCallerNotOwnerNorApproved",
      "type": "error"
    },
    {
      "inputs": [],
      "name": "TransferFromIncorrectOwner",
      "type": "error"
    },
    {
      "inputs": [],
      "name": "TransferToNonERC721ReceiverImplementer",
      "type": "error"
    },
    {
      "inputs": [],
      "name": "TransferToZeroAddress",
      "type": "error"
    },
    {
      "inputs": [],
      "name": "URIQueryForNonexistentToken",
      "type": "error"
    },
    {
      "anonymous": false,
      "inputs": [
        {
          "indexed": false,
          "internalType": "address",
          "name": "account",
          "type": "address"
        },
        {
          "indexed": false,
          "internalType": "uint256",
          "name": "allowance",
          "type": "uint256"
        }
      ],
      "name": "AllowListAdded",
      "type": "event"
    },
    {
      "anonymous": false,
      "inputs": [
        {
          "indexed": false,
          "internalType": "address[]",
          "name": "accounts",
          "type": "address[]"
        },
        {
          "indexed": false,
          "internalType": "uint256",
          "name": "allowance",
          "type": "uint256"
        }
      ],
      "name": "AllowListAdded",
      "type": "event"
    },
    {
      "anonymous": false,
      "inputs": [
        {
          "indexed": false,
          "internalType": "uint256",
          "name": "tokenId",
          "type": "uint256"
        },
        {
          "indexed": false,
          "internalType": "address",
          "name": "account",
          "type": "address"
        },
        {
          "indexed": false,
          "internalType": "uint256",
          "name": "allowance",
          "type": "uint256"
        }
      ],
      "name": "AllowListAdded",
      "type": "event"
    },
    {
      "anonymous": false,
      "inputs": [
        {
          "indexed": false,
          "internalType": "uint256",
          "name": "tokenId",
          "type": "uint256"
        },
        {
          "indexed": false,
          "internalType": "address[]",
          "name": "accounts",
          "type": "address[]"
        },
        {
          "indexed": false,
          "internalType": "uint256",
          "name": "allowance",
          "type": "uint256"
        }
      ],
      "name": "AllowListAdded",
      "type": "event"
    },
    {
      "anonymous": false,
      "inputs": [
        {
          "indexed": false,
          "internalType": "address",
          "name": "account",
          "type": "address"
        }
      ],
      "name": "AllowListRemoved",
      "type": "event"
    },
    {
      "anonymous": false,
      "inputs": [
        {
          "indexed": false,
          "internalType": "address[]",
          "name": "accounts",
          "type": "address[]"
        }
      ],
      "name": "AllowListRemoved",
      "type": "event"
    },
    {
      "anonymous": false,
      "inputs": [
        {
          "indexed": false,
          "internalType": "uint256",
          "name": "tokenId",
          "type": "uint256"
        },
        {
          "indexed": false,
          "internalType": "address",
          "name": "account",
          "type": "address"
        }
      ],
      "name": "AllowListRemoved",
      "type": "event"
    },
    {
      "anonymous": false,
      "inputs": [
        {
          "indexed": false,
          "internalType": "uint256",
          "name": "tokenId",
          "type": "uint256"
        },
        {
          "indexed": false,
          "internalType": "address[]",
          "name": "accounts",
          "type": "address[]"
        }
      ],
      "name": "AllowListRemoved",
      "type": "event"
    },
    {
      "anonymous": false,
      "inputs": [
        {
          "indexed": false,
          "internalType": "bool",
          "name": "status",
          "type": "bool"
        }
      ],
      "name": "AllowListStatus",
      "type": "event"
    },
    {
      "anonymous": false,
      "inputs": [
        {
          "indexed": false,
          "internalType": "uint256",
          "name": "tokenId",
          "type": "uint256"
        },
        {
          "indexed": false,
          "internalType": "bool",
          "name": "status",
          "type": "bool"
        }
      ],
      "name": "AllowListStatus",
      "type": "event"
    },
    {
      "anonymous": false,
      "inputs": [
        {
          "indexed": true,
          "internalType": "address",
          "name": "owner",
          "type": "address"
        },
        {
          "indexed": true,
          "internalType": "address",
          "name": "approved",
          "type": "address"
        },
        {
          "indexed": true,
          "internalType": "uint256",
          "name": "tokenId",
          "type": "uint256"
        }
      ],
      "name": "Approval",
      "type": "event"
    },
    {
      "anonymous": false,
      "inputs": [
        {
          "indexed": true,
          "internalType": "address",
          "name": "owner",
          "type": "address"
        },
        {
          "indexed": true,
          "internalType": "address",
          "name": "operator",
          "type": "address"
        },
        {
          "indexed": false,
          "internalType": "bool",
          "name": "approved",
          "type": "bool"
        }
      ],
      "name": "ApprovalForAll",
      "type": "event"
    },
    {
      "anonymous": false,
      "inputs": [
        {
          "indexed": true,
          "internalType": "uint256",
          "name": "fromTokenId",
          "type": "uint256"
        },
        {
          "indexed": false,
          "internalType": "uint256",
          "name": "toTokenId",
          "type": "uint256"
        },
        {
          "indexed": true,
          "internalType": "address",
          "name": "from",
          "type": "address"
        },
        {
          "indexed": true,
          "internalType": "address",
          "name": "to",
          "type": "address"
        }
      ],
      "name": "ConsecutiveTransfer",
      "type": "event"
    },
    {
      "anonymous": false,
      "inputs": [
        {
          "indexed": true,
          "internalType": "address",
          "name": "previousOwner",
          "type": "address"
        },
        {
          "indexed": true,
          "internalType": "address",
          "name": "newOwner",
          "type": "address"
        }
      ],
      "name": "OwnershipTransferred",
      "type": "event"
    },
    {
      "anonymous": false,
      "inputs": [
        {
          "indexed": false,
          "internalType": "address",
          "name": "account",
          "type": "address"
        }
      ],
      "name": "Paused",
      "type": "event"
    },
    {
      "anonymous": false,
      "inputs": [
        {
          "indexed": false,
          "internalType": "address",
          "name": "from",
          "type": "address"
        },
        {
          "indexed": false,
          "internalType": "uint256",
          "name": "amount",
          "type": "uint256"
        }
      ],
      "name": "PaymentReceived",
      "type": "event"
    },
    {
      "anonymous": false,
      "inputs": [
        {
          "indexed": true,
          "internalType": "address",
          "name": "from",
          "type": "address"
        },
        {
          "indexed": true,
          "internalType": "address",
          "name": "to",
          "type": "address"
        },
        {
          "indexed": true,
          "internalType": "uint256",
          "name": "tokenId",
          "type": "uint256"
        }
      ],
      "name": "Transfer",
      "type": "event"
    },
    {
      "anonymous": false,
      "inputs": [
        {
          "indexed": false,
          "internalType": "address",
          "name": "account",
          "type": "address"
        }
      ],
      "name": "Unpaused",
      "type": "event"
    },
    {
      "inputs": [],
      "name": "airdrop",
      "outputs": [
        {
          "internalType": "bool",
          "name": "",
          "type": "bool"
        }
      ],
      "stateMutability": "view",
      "type": "function"
    },
    {
      "inputs": [
        {
          "internalType": "address",
          "name": "to",
          "type": "address"
        },
        {
          "internalType": "uint256",
          "name": "tokenId",
          "type": "uint256"
        }
      ],
      "name": "approve",
      "outputs": [],
      "stateMutability": "nonpayable",
      "type": "function"
    },
    {
      "inputs": [
        {
          "internalType": "address",
          "name": "owner",
          "type": "address"
        }
      ],
      "name": "balanceOf",
      "outputs": [
        {
          "internalType": "uint256",
          "name": "",
          "type": "uint256"
        }
      ],
      "stateMutability": "view",
      "type": "function"
    },
    {
      "inputs": [
        {
          "internalType": "uint256",
          "name": "tokenId",
          "type": "uint256"
        }
      ],
      "name": "burn",
      "outputs": [],
      "stateMutability": "nonpayable",
      "type": "function"
    },
    {
      "inputs": [
        {
          "internalType": "uint256",
          "name": "tokenId",
          "type": "uint256"
        }
      ],
      "name": "getApproved",
      "outputs": [
        {
          "internalType": "address",
          "name": "",
          "type": "address"
        }
      ],
      "stateMutability": "view",
      "type": "function"
    },
    {
      "inputs": [
        {
          "internalType": "address",
          "name": "owner",
          "type": "address"
        },
        {
          "internalType": "address",
          "name": "operator",
          "type": "address"
        }
      ],
      "name": "isApprovedForAll",
      "outputs": [
        {
          "internalType": "bool",
          "name": "",
          "type": "bool"
        }
      ],
      "stateMutability": "view",
      "type": "function"
    },
    {
      "inputs": [],
      "name": "isSoulbound",
      "outputs": [
        {
          "internalType": "bool",
          "name": "",
          "type": "bool"
        }
      ],
      "stateMutability": "view",
      "type": "function"
    },
    {
      "inputs": [],
      "name": "maxMintPerAddress",
      "outputs": [
        {
          "internalType": "uint256",
          "name": "",
          "type": "uint256"
        }
      ],
      "stateMutability": "view",
      "type": "function"
    },
    {
      "inputs": [],
      "name": "maxMintPerTx",
      "outputs": [
        {
          "internalType": "uint256",
          "name": "",
          "type": "uint256"
        }
      ],
      "stateMutability": "view",
      "type": "function"
    },
    {
      "inputs": [],
      "name": "maxSupply",
      "outputs": [
        {
          "internalType": "uint256",
          "name": "",
          "type": "uint256"
        }
      ],
      "stateMutability": "view",
      "type": "function"
    },
    {
      "inputs": [
        {
          "internalType": "address",
          "name": "to",
          "type": "address"
        },
        {
          "internalType": "uint256",
          "name": "amount",
          "type": "uint256"
        }
      ],
      "name": "mint",
      "outputs": [],
      "stateMutability": "payable",
      "type": "function"
    },
    {
      "inputs": [
        {
          "internalType": "address",
          "name": "to",
          "type": "address"
        }
      ],
      "name": "mint",
      "outputs": [],
      "stateMutability": "payable",
      "type": "function"
    },
    {
      "inputs": [],
      "name": "name",
      "outputs": [
        {
          "internalType": "string",
          "name": "",
          "type": "string"
        }
      ],
      "stateMutability": "view",
      "type": "function"
    },
    {
      "inputs": [
        {
          "internalType": "uint256",
          "name": "tokenId",
          "type": "uint256"
        }
      ],
      "name": "ownerOf",
      "outputs": [
        {
          "internalType": "address",
          "name": "",
          "type": "address"
        }
      ],
      "stateMutability": "view",
      "type": "function"
    },
    {
      "inputs": [],
      "name": "price",
      "outputs": [
        {
          "internalType": "uint256",
          "name": "",
          "type": "uint256"
        }
      ],
      "stateMutability": "view",
      "type": "function"
    },
    {
      "inputs": [
        {
          "internalType": "address",
          "name": "from",
          "type": "address"
        },
        {
          "internalType": "address",
          "name": "to",
          "type": "address"
        },
        {
          "internalType": "uint256",
          "name": "tokenId",
          "type": "uint256"
        }
      ],
      "name": "safeTransferFrom",
      "outputs": [],
      "stateMutability": "nonpayable",
      "type": "function"
    },
    {
      "inputs": [
        {
          "internalType": "address",
          "name": "from",
          "type": "address"
        },
        {
          "internalType": "address",
          "name": "to",
          "type": "address"
        },
        {
          "internalType": "uint256",
          "name": "tokenId",
          "type": "uint256"
        },
        {
          "internalType": "bytes",
          "name": "_data",
          "type": "bytes"
        }
      ],
      "name": "safeTransferFrom",
      "outputs": [],
      "stateMutability": "nonpayable",
      "type": "function"
    },
    {
      "inputs": [
        {
          "internalType": "bool",
          "name": "_airdrop",
          "type": "bool"
        }
      ],
      "name": "setAirdrop",
      "outputs": [],
      "stateMutability": "nonpayable",
      "type": "function"
    },
    {
      "inputs": [
        {
          "internalType": "address",
          "name": "operator",
          "type": "address"
        },
        {
          "internalType": "bool",
          "name": "approved",
          "type": "bool"
        }
      ],
      "name": "setApprovalForAll",
      "outputs": [],
      "stateMutability": "nonpayable",
      "type": "function"
    },
    {
      "inputs": [
        {
          "internalType": "bool",
          "name": "_automaticUSDConversion",
          "type": "bool"
        }
      ],
      "name": "setAutomaticUSDConversion",
      "outputs": [],
      "stateMutability": "nonpayable",
      "type": "function"
    },
    {
      "inputs": [
        {
          "internalType": "bool",
          "name": "_isPriceUSD",
          "type": "bool"
        }
      ],
      "name": "setIsPriceUSD",
      "outputs": [],
      "stateMutability": "nonpayable",
      "type": "function"
    },
    {
      "inputs": [
        {
          "internalType": "uint256",
          "name": "_maxMintPerAddress",
          "type": "uint256"
        }
      ],
      "name": "setMaxMintPerAddress",
      "outputs": [],
      "stateMutability": "nonpayable",
      "type": "function"
    },
    {
      "inputs": [
        {
          "internalType": "uint256",
          "name": "_maxMintPerTx",
          "type": "uint256"
        }
      ],
      "name": "setMaxMintPerTx",
      "outputs": [],
      "stateMutability": "nonpayable",
      "type": "function"
    },
    {
      "inputs": [
        {
          "internalType": "uint256",
          "name": "_maxSupply",
          "type": "uint256"
        }
      ],
      "name": "setMaxSupply",
      "outputs": [],
      "stateMutability": "nonpayable",
      "type": "function"
    },
    {
      "inputs": [
        {
          "internalType": "string",
          "name": "_name",
          "type": "string"
        }
      ],
      "name": "setName",
      "outputs": [],
      "stateMutability": "nonpayable",
      "type": "function"
    },
    {
      "inputs": [
        {
          "internalType": "uint256",
          "name": "_price",
          "type": "uint256"
        }
      ],
      "name": "setPrice",
      "outputs": [],
      "stateMutability": "nonpayable",
      "type": "function"
    },
    {
      "inputs": [
        {
          "internalType": "bool",
          "name": "_isSoulbound",
          "type": "bool"
        }
      ],
      "name": "setSoulbound",
      "outputs": [],
      "stateMutability": "nonpayable",
      "type": "function"
    },
    {
      "inputs": [
        {
          "internalType": "string",
          "name": "_symbol",
          "type": "string"
        }
      ],
      "name": "setSymbol",
      "outputs": [],
      "stateMutability": "nonpayable",
      "type": "function"
    },
    {
      "inputs": [
        {
          "internalType": "string",
          "name": "tokenURI",
          "type": "string"
        }
      ],
      "name": "setTokenURI",
      "outputs": [],
      "stateMutability": "nonpayable",
      "type": "function"
    },
    {
      "inputs": [],
      "name": "symbol",
      "outputs": [
        {
          "internalType": "string",
          "name": "",
          "type": "string"
        }
      ],
      "stateMutability": "view",
      "type": "function"
    },
    {
      "inputs": [
        {
          "internalType": "uint256",
          "name": "tokenId",
          "type": "uint256"
        }
      ],
      "name": "tokenURI",
      "outputs": [
        {
          "internalType": "string",
          "name": "",
          "type": "string"
        }
      ],
      "stateMutability": "view",
      "type": "function"
    },
    {
      "inputs": [],
      "name": "totalSupply",
      "outputs": [
        {
          "internalType": "uint256",
          "name": "",
          "type": "uint256"
        }
      ],
      "stateMutability": "view",
      "type": "function"
    },
    {
      "inputs": [
        {
          "internalType": "address",
          "name": "from",
          "type": "address"
        },
        {
          "internalType": "address",
          "name": "to",
          "type": "address"
        },
        {
          "internalType": "uint256",
          "name": "tokenId",
          "type": "uint256"
        }
      ],
      "name": "transferFrom",
      "outputs": [],
      "stateMutability": "nonpayable",
      "type": "function"
    }
  ],
  "bytecode": {
    "object": "0x608060405234801561001057600080fd5b50612b15806100206000396000f3fe6080604052600436106101ee5760003560e01c806370a082311161010d578063c47f0027116100a0578063de7fcb1d1161006f578063de7fcb1d1461055a578063df30e54b1461056f578063e0df5b6f1461058f578063e985e9c5146105af578063f7eca6d0146105cf57600080fd5b8063c47f0027146104e5578063c87b56dd14610505578063cff37ca214610525578063d5abeb011461054557600080fd5b8063a035b1fe116100dc578063a035b1fe14610470578063a22cb46514610485578063b84c8246146104a5578063b88d4fde146104c557600080fd5b806370a08231146103fb578063815e6ea11461041b57806391b7f5ed1461043b57806395d89b411461045b57600080fd5b806340c10f1911610185578063616cdb1e11610154578063616cdb1e146103885780636352211e146103a85780636a627842146103c85780636f8b44b0146103db57600080fd5b806340c10f191461032057806342842e0e1461033357806342966c6814610353578063572849c41461037357600080fd5b806318160ddd116101c157806318160ddd146102985780631e14d44b146102bb57806323b872dd146102db5780633884d635146102fb57600080fd5b806306fdde03146101f3578063081812fc1461021e578063095ea7b3146102565780631111148714610278575b600080fd5b3480156101ff57600080fd5b506102086105e4565b60405161021591906124b4565b60405180910390f35b34801561022a57600080fd5b5061023e6102393660046124c7565b610685565b6040516001600160a01b039091168152602001610215565b34801561026257600080fd5b506102766102713660046124fc565b6106d5565b005b34801561028457600080fd5b50610276610293366004612534565b610788565b3480156102a457600080fd5b506102ad6107e1565b604051908152602001610215565b3480156102c757600080fd5b506102766102d63660046124c7565b6107fa565b3480156102e757600080fd5b506102766102f6366004612551565b610847565b34801561030757600080fd5b50610310610a3b565b6040519015158152602001610215565b61027661032e3660046124fc565b610a53565b34801561033f57600080fd5b5061027661034e366004612551565b610b80565b34801561035f57600080fd5b5061027661036e3660046124c7565b610bd1565b34801561037f57600080fd5b506102ad610d3f565b34801561039457600080fd5b506102766103a33660046124c7565b610d72565b3480156103b457600080fd5b5061023e6103c33660046124c7565b610dbf565b6102766103d636600461258d565b610dd0565b3480156103e757600080fd5b506102766103f63660046124c7565b610ef8565b34801561040757600080fd5b506102ad61041636600461258d565b610f45565b34801561042757600080fd5b50610276610436366004612534565b610fa4565b34801561044757600080fd5b506102766104563660046124c7565b611016565b34801561046757600080fd5b50610208611063565b34801561047c57600080fd5b506102ad611080565b34801561049157600080fd5b506102766104a03660046125a8565b6110f7565b3480156104b157600080fd5b506102766104c03660046125df565b611172565b3480156104d157600080fd5b506102766104e0366004612667565b6111c6565b3480156104f157600080fd5b506102766105003660046125df565b61123b565b34801561051157600080fd5b506102086105203660046124c7565b61128f565b34801561053157600080fd5b50610276610540366004612534565b6113b2565b34801561055157600080fd5b506102ad61141d565b34801561056657600080fd5b506102ad611449565b34801561057b57600080fd5b5061027661058a366004612534565b61146c565b34801561059b57600080fd5b506102766105aa3660046125df565b6114c5565b3480156105bb57600080fd5b506103106105ca366004612743565b611519565b3480156105db57600080fd5b50610310611558565b606060006105f0611570565b905080600201805461060190612776565b80601f016020809104026020016040519081016040528092919081815260200182805461062d90612776565b801561067a5780601f1061064f5761010080835404028352916020019161067a565b820191906000526020600020905b81548152906001019060200180831161065d57829003601f168201915b505050505091505090565b600061069082611594565b6106ad576040516333d1c03960e21b815260040160405180910390fd5b60006106b7611570565b6000938452600601602052505060409020546001600160a01b031690565b60006106e0826115cc565b9050336001600160a01b03821614610719576106fc8133611519565b610719576040516367d9dca160e11b815260040160405180910390fd5b6000610723611570565b600084815260068201602052604080822080546001600160a01b0319166001600160a01b03898116918217909255915193945086939192908616917f8c5be1e5ebec7d5bd14f71427d1e84f3dd0314c0f7b2291e5b200ac8c7c3b9259190a450505050565b6107906115d7565b6001600160a01b0316336001600160a01b0316146107c157604051632f7a8ee160e01b815260040160405180910390fd5b60006107cb611570565b600b01805460ff19169215159290921790915550565b6000806107ec611570565b600181015490540392915050565b6108026115d7565b6001600160a01b0316336001600160a01b03161461083357604051632f7a8ee160e01b815260040160405180910390fd5b600061083d611570565b600d019190915550565b600080516020612aa08339815191525460ff1615610878576040516302ca8ced60e11b815260040160405180910390fd5b600061088382611605565b9050836001600160a01b0316816001600160a01b0316146108b65760405162a1148160e81b815260040160405180910390fd5b6000806108c28461167a565b915091506108e781876108d23390565b6001600160a01b039081169116811491141790565b610912576108f58633611519565b61091257604051632ce44b5f60e11b815260040160405180910390fd5b6001600160a01b03851661093957604051633a954ecd60e21b815260040160405180910390fd5b61094686868660016116a2565b801561095157600082555b600061095b611570565b6001600160a01b0388811660009081526005830160205260408082208054600019019055918916808252919020805460010190559091504260a01b6001600160e81b031986161717600160e11b176000868152600483016020526040812091909155600160e11b85169003610a03576001850160008181526004830160205260408120549003610a015781548114610a0157600081815260048301602052604090208590555b505b84866001600160a01b0316886001600160a01b0316600080516020612ac083398151915260405160405180910390a450505050505050565b600080610a46611570565b600b015460ff1692915050565b600080527f8b3e8f46c99cb795ebda06e2a368cb0f3c8a09025665de4b1aef35b0dd2b497d60208190527f877a590680429fa2ff3e42026356d2d5ca8d129e0a8d68eedc95e207c06995d0548391907f22f7a7bee1f0ff7ad985b3310523bd6e78af9b5dd151f1710f5f1cd082ec69179060ff1615610b1b57610ad76000336116fa565b610b1b5760405162461bcd60e51b815260206004820152601060248201526f139bdd081a5b88185b1b1bdddb1a5cdd60821b60448201526064015b60405180910390fd5b805460ff1615610b3e576040516345c43e8f60e11b815260040160405180910390fd5b600080516020612aa08339815191525460ff1615610b6f576040516302ca8ced60e11b815260040160405180910390fd5b610b798585611731565b5050505050565b600080516020612aa08339815191525460ff1615610bb1576040516302ca8ced60e11b815260040160405180910390fd5b610bcc838383604051806020016040528060008152506111c6565b505050565b610bd96115d7565b6001600160a01b0316336001600160a01b031614610c0a57604051632f7a8ee160e01b815260040160405180910390fd5b7fc8fcad8db84d3cc18b4c41d551ea0ee66dd599cde068d998e57d5e09332c131c610c36826000611817565b6344860cf160e11b6000818152602083815260408083205481516024808201899052835180830390910181526044909101835292830180516001600160e01b0316909517909452517f890c19e2ff9eced5b6806602f49305ae8e5d011daabd1a358df296069c8b37779360601c92908390610cb29084906127b0565b600060405180830381855af49150503d8060008114610ced576040519150601f19603f3d011682016040523d82523d6000602084013e610cf2565b606091505b5050905080610d375760405162461bcd60e51b81526020600482015260116024820152701b5e519d5b98dd1a5bdb8819985a5b1959607a1b6044820152606401610b12565b505050505050565b600080610d4a611570565b905080600d0154600014610d625780600d0154610d6c565b67ffffffffffffffff5b91505090565b610d7a6115d7565b6001600160a01b0316336001600160a01b031614610dab57604051632f7a8ee160e01b815260040160405180910390fd5b6000610db5611570565b600c019190915550565b6000610dca826115cc565b92915050565b600080527f8b3e8f46c99cb795ebda06e2a368cb0f3c8a09025665de4b1aef35b0dd2b497d60208190527f877a590680429fa2ff3e42026356d2d5ca8d129e0a8d68eedc95e207c06995d0548291907f22f7a7bee1f0ff7ad985b3310523bd6e78af9b5dd151f1710f5f1cd082ec69179060ff1615610e9357610e546000336116fa565b610e935760405162461bcd60e51b815260206004820152601060248201526f139bdd081a5b88185b1b1bdddb1a5cdd60821b6044820152606401610b12565b805460ff1615610eb6576040516345c43e8f60e11b815260040160405180910390fd5b600080516020612aa08339815191525460ff1615610ee7576040516302ca8ced60e11b815260040160405180910390fd5b610ef2846001611731565b50505050565b610f006115d7565b6001600160a01b0316336001600160a01b031614610f3157604051632f7a8ee160e01b815260040160405180910390fd5b6000610f3b611570565b6009019190915550565b600080610f50611570565b90506001600160a01b038316610f79576040516323d3ad8160e21b815260040160405180910390fd5b6001600160a01b039092166000908152600590920160205250604090205467ffffffffffffffff1690565b610fac6115d7565b6001600160a01b0316336001600160a01b031614610fdd57604051632f7a8ee160e01b815260040160405180910390fd5b7f2f0e6a593a089007647f3882f40330070569292cc3d7e2a73800c263f213917280549115156101000261ff0019909216919091179055565b61101e6115d7565b6001600160a01b0316336001600160a01b03161461104f57604051632f7a8ee160e01b815260040160405180910390fd5b6000611059611570565b6008019190915550565b6060600061106f611570565b905080600301805461060190612776565b60008061108b611570565b7f2f0e6a593a089007647f3882f40330070569292cc3d7e2a73800c263f2139172549091507f2f0e6a593a089007647f3882f40330070569292cc3d7e2a73800c263f213916b9060ff166110e35781600801546110f0565b6110f08260080154611971565b9250505090565b6000611101611570565b33600081815260078301602090815260408083206001600160a01b03891680855290835292819020805460ff1916881515908117909155905190815293945090927f17307eab39ab6107e8899845ad3d59bd9653f200f220920489ca2b5937696c31910160405180910390a3505050565b61117a6115d7565b6001600160a01b0316336001600160a01b0316146111ab57604051632f7a8ee160e01b815260040160405180910390fd5b60006111b5611570565b905060038101610ef2838583612812565b600080516020612aa08339815191525460ff16156111f7576040516302ca8ced60e11b815260040160405180910390fd5b611202848484610847565b6001600160a01b0383163b15610ef25761121e848484846119a6565b610ef2576040516368d2bf6b60e11b815260040160405180910390fd5b6112436115d7565b6001600160a01b0316336001600160a01b03161461127457604051632f7a8ee160e01b815260040160405180910390fd5b600061127e611570565b905060028101610ef2838583612812565b60607f22f7a7bee1f0ff7ad985b3310523bd6e78af9b5dd151f1710f5f1cd082ec69176112bb83611594565b6112d857604051630a14c4b560e41b815260040160405180910390fd5b60006112e2611a91565b825490915060ff16156113615760006112fa85611aae565b6060015162ffffff16905081516000036113235760405180602001604052806000815250611358565b8161132d86611b26565b61133683611b26565b604051602001611348939291906128d2565b6040516020818303038152906040525b95945050505050565b805160000361137f57604051806020016040528060008152506113aa565b8061138985611b26565b60405160200161139a929190612922565b6040516020818303038152906040525b949350505050565b6113ba6115d7565b6001600160a01b0316336001600160a01b0316146113eb57604051632f7a8ee160e01b815260040160405180910390fd5b7f2f0e6a593a089007647f3882f40330070569292cc3d7e2a73800c263f2139172805460ff1916911515919091179055565b600080611428611570565b90508060090154600014611440578060090154610d6c565b60001991505090565b600080611454611570565b905080600c01546000146114405780600c0154610d6c565b6114746115d7565b6001600160a01b0316336001600160a01b0316146114a557604051632f7a8ee160e01b815260040160405180910390fd5b60006114af611570565b600e01805460ff19169215159290921790915550565b6114cd6115d7565b6001600160a01b0316336001600160a01b0316146114fe57604051632f7a8ee160e01b815260040160405180910390fd5b6000611508611570565b9050600a8101610ef2838583612812565b600080611524611570565b6001600160a01b03948516600090815260079190910160209081526040808320959096168252939093525050205460ff1690565b600080611563611570565b600e015460ff1692915050565b7fd71f56830ccd643bda4d966483f496c024b01867c423fce4b51d4352a07543fc90565b60008061159f611570565b90508054831080156115c557506000838152600482016020526040902054600160e01b16155b9392505050565b6000610dca82611605565b7f8a22373512790c48b83a1fe2efdd2888d4a917bcdc24d0adf63e60f671680460546001600160a01b031690565b600080611610611570565b905082815481101561166157600081815260048301602052604081205490600160e01b8216900361165f575b806000036113aa575060001901600081815260048301602052604090205461163c565b505b604051636f96cda160e11b815260040160405180910390fd5b6000806000611687611570565b60009485526006016020525050604090912080549092909150565b60006116ac611570565b600e81015490915060ff1615610b79576001600160a01b038516158015906116dc57506001600160a01b03841615155b15610b79576040516358b2164f60e11b815260040160405180910390fd5b60008281527f8b3e8f46c99cb795ebda06e2a368cb0f3c8a09025665de4b1aef35b0dd2b497e602052604081206115c59083611b5e565b600080516020612aa08339815191525460ff1615611762576040516302ca8ced60e11b815260040160405180910390fd5b600061176c611570565b90507f2f0e6a593a089007647f3882f40330070569292cc3d7e2a73800c263f213916b6117998484611b80565b600b82015460ff166117b3576117ae83611c11565b6117bb565b6117bb611c46565b604080513381523460208201527f6ef95f06320e7a25a04a175ca677b7052bdd97131872c2192525a629f51be770910160405180910390a16007810154610100900460ff161561180d5761180d611c92565b610ef28484611ca2565b6000611821611570565b9050600061182e84611605565b90508060008061183d8761167a565b91509150851561187d576118528184336108d2565b61187d576118608333611519565b61187d57604051632ce44b5f60e11b815260040160405180910390fd5b61188b8360008960016116a2565b801561189657600082555b6001600160a01b0383166000818152600587016020526040902080546fffffffffffffffffffffffffffffffff0190554260a01b6001600160e81b031986161717600360e01b176000888152600487016020526040812091909155600160e11b85169003611937576001870160008181526004870160205260408120549003611935578554811461193557600081815260048701602052604090208590555b505b60405187906000906001600160a01b03861690600080516020612ac0833981519152908390a4505050506001908101805490910190555050565b600081620f4240611980611d9e565b61198a9190612951565b61199c90670de0b6b3a7640000612951565b610dca9190612973565b604051630a85bd0160e11b81526000906001600160a01b0385169063150b7a02906119db903390899088908890600401612998565b6020604051808303816000875af1925050508015611a16575060408051601f3d908101601f19168201909252611a13918101906129d5565b60015b611a74573d808015611a44576040519150601f19603f3d011682016040523d82523d6000602084013e611a49565b606091505b508051600003611a6c576040516368d2bf6b60e11b815260040160405180910390fd5b805181602001fd5b6001600160e01b031916630a85bd0160e11b149050949350505050565b60606000611a9d611570565b905080600a01805461060190612776565b604080516080810182526000808252602082018190529181018290526060810191909152610dca611ade83611605565b604080516080810182526001600160a01b038316815260a083901c67ffffffffffffffff166020820152600160e01b831615159181019190915260e89190911c606082015290565b604080516080019081905280825b600183039250600a81066030018353600a900480611b345750819003601f19909101908152919050565b6001600160a01b038116600090815260018301602052604081205415156115c5565b6000611b8a611570565b9050611b9461141d565b815483011115611bb75760405163c30436e960e01b815260040160405180910390fd5b611bbf610d3f565b82611bc985611e1b565b011115611be957604051635d3cd26560e01b815260040160405180910390fd5b611bf1611449565b821115610bcc5760405163ccf0a4cb60e01b815260040160405180910390fd5b611c19611080565b611c239082612973565b341015611c4357604051630e450ad560e21b815260040160405180910390fd5b50565b7f8a22373512790c48b83a1fe2efdd2888d4a917bcdc24d0adf63e60f671680460546001600160a01b03163314611c905760405163511cd8ed60e01b815260040160405180910390fd5b565b611c9a611e56565b611c90611eb1565b6000611cac611570565b80549091506000839003611cd35760405163b562e8dd60e01b815260040160405180910390fd5b611ce060008583866116a2565b6001600160a01b0384166000818152600584016020908152604080832080546801000000000000000189020190558483526004860190915281206001861460e11b4260a01b17831790558285019083908390600080516020612ac08339815191528180a4600183015b818114611d6f5780836000600080516020612ac0833981519152600080a4600101611d49565b5081600003611d9057604051622e076360e81b815260040160405180910390fd5b835550610ef2600085838684565b600080611da961206c565b90506000816001600160a01b031663feaf968c6040518163ffffffff1660e01b815260040160a060405180830381865afa158015611deb573d6000803e3d6000fd5b505050506040513d601f19601f82011682018060405250810190611e0f9190612a19565b50919695505050505050565b600080611e26611570565b6001600160a01b0390931660009081526005909301602052505060409081902054901c67ffffffffffffffff1690565b6000611e60612077565b9050806001600160a01b031663d0e30db0346040518263ffffffff1660e01b81526004016000604051808303818588803b158015611e9d57600080fd5b505af1158015610d37573d6000803e3d6000fd5b6000611ebb61210f565b90506000611ec7612077565b6040516370a0823160e01b81523060048201529091506000906001600160a01b038316906370a0823190602401602060405180830381865afa158015611f11573d6000803e3d6000fd5b505050506040513d601f19601f82011682018060405250810190611f359190612a69565b9050610bb8611f46833080856121a4565b611f658373e592427a0aece92de3edee1f18e0157c05861564846122a6565b60408051610100810182526001600160a01b0385811682528681166020830190815262ffffff8581168486019081523060608601908152426080870190815260a087018a8152600060c0890181815260e08a01918252995163414bf38960e01b815289518916600482015296518816602488015293519094166044860152905185166064850152516084840152905160a4830152935160c482015292511660e48301529073e592427a0aece92de3edee1f18e0157c058615649063414bf38990610104016020604051808303816000875af1158015612048573d6000803e3d6000fd5b505050506040513d601f19601f82011682018060405250810190610d379190612a69565b600080610dca61239f565b600060014614806120895750617a6946145b156120a7575073c02aaa39b223fe8d0a0e5c4f27ead9083c756cc290565b608946036120c85750737ceb23fd6bc0add59e62ac25578270cff1b9f61990565b600546036120e9575073b4fbf271143f4fbf7b91a5ded31805e42b2208d690565b62013881460361210c575073a6fa4fb5f76172d178d61b04b0ecd319c5d1c0aa90565b90565b600060014614806121215750617a6946145b1561213f575073a0b86991c6218b36c1d19d4a2e9eb0ce3606eb4890565b608946036121605750732791bca1f2de4661ed88a30c99a7a9449aa8417490565b6005460361218157507398339d8c260052b7ad81c28c16c0b98420f2b46a90565b62013881460361210c575073feca406da9727a25e71e732f9961f680059ef1f990565b604080516001600160a01b0385811660248301528481166044830152606480830185905283518084039091018152608490920183526020820180516001600160e01b03166323b872dd60e01b179052915160009283929088169161220891906127b0565b6000604051808303816000865af19150503d8060008114612245576040519150601f19603f3d011682016040523d82523d6000602084013e61224a565b606091505b50915091508180156122745750805115806122745750808060200190518101906122749190612a82565b610d375760405162461bcd60e51b815260206004820152600360248201526229aa2360e91b6044820152606401610b12565b604080516001600160a01b038481166024830152604480830185905283518084039091018152606490920183526020820180516001600160e01b031663095ea7b360e01b179052915160009283929087169161230291906127b0565b6000604051808303816000865af19150503d806000811461233f576040519150601f19603f3d011682016040523d82523d6000602084013e612344565b606091505b509150915081801561236e57508051158061236e57508080602001905181019061236e9190612a82565b610b795760405162461bcd60e51b8152602060048201526002602482015261534160f01b6044820152606401610b12565b60004660018114806123b25750617a6981145b156123d257735f4ec3df9cbd43714fe2740f5e3616155c5b841991505090565b600481036123f557738a753747a1fa494ec906ce90e9f37563a8af630e91505090565b600581036124185773d4a33860578de61dbabdc8bfdb98fd742fa7028e91505090565b6089810361243b5773ab594600376ec9fd91f8e885dadf0ce036862de091505090565b6201388181036124605773d0d5e3db44de05e9f294bb0a3beeaf030de24ada91505090565b5090565b60005b8381101561247f578181015183820152602001612467565b50506000910152565b600081518084526124a0816020860160208601612464565b601f01601f19169290920160200192915050565b6020815260006115c56020830184612488565b6000602082840312156124d957600080fd5b5035919050565b80356001600160a01b03811681146124f757600080fd5b919050565b6000806040838503121561250f57600080fd5b612518836124e0565b946020939093013593505050565b8015158114611c4357600080fd5b60006020828403121561254657600080fd5b81356115c581612526565b60008060006060848603121561256657600080fd5b61256f846124e0565b925061257d602085016124e0565b9150604084013590509250925092565b60006020828403121561259f57600080fd5b6115c5826124e0565b600080604083850312156125bb57600080fd5b6125c4836124e0565b915060208301356125d481612526565b809150509250929050565b600080602083850312156125f257600080fd5b823567ffffffffffffffff8082111561260a57600080fd5b818501915085601f83011261261e57600080fd5b81358181111561262d57600080fd5b86602082850101111561263f57600080fd5b60209290920196919550909350505050565b634e487b7160e01b600052604160045260246000fd5b6000806000806080858703121561267d57600080fd5b612686856124e0565b9350612694602086016124e0565b925060408501359150606085013567ffffffffffffffff808211156126b857600080fd5b818701915087601f8301126126cc57600080fd5b8135818111156126de576126de612651565b604051601f8201601f19908116603f0116810190838211818310171561270657612706612651565b816040528281528a602084870101111561271f57600080fd5b82602086016020830137600060208483010152809550505050505092959194509250565b6000806040838503121561275657600080fd5b61275f836124e0565b915061276d602084016124e0565b90509250929050565b600181811c9082168061278a57607f821691505b6020821081036127aa57634e487b7160e01b600052602260045260246000fd5b50919050565b600082516127c2818460208701612464565b9190910192915050565b601f821115610bcc57600081815260208120601f850160051c810160208610156127f35750805b601f850160051c820191505b81811015610d37578281556001016127ff565b67ffffffffffffffff83111561282a5761282a612651565b61283e836128388354612776565b836127cc565b6000601f841160018114612872576000851561285a5750838201355b600019600387901b1c1916600186901b178355610b79565b600083815260209020601f19861690835b828110156128a35786850135825560209485019460019092019101612883565b50868210156128c05760001960f88860031b161c19848701351681555b505060018560011b0183555050505050565b600084516128e4818460208901612464565b8451908301906128f8818360208901612464565b602f60f81b91019081528351612915816001840160208801612464565b0160010195945050505050565b60008351612934818460208801612464565b835190830190612948818360208801612464565b01949350505050565b60008261296e57634e487b7160e01b600052601260045260246000fd5b500490565b8082028115828204841417610dca57634e487b7160e01b600052601160045260246000fd5b6001600160a01b03858116825284166020820152604081018390526080606082018190526000906129cb90830184612488565b9695505050505050565b6000602082840312156129e757600080fd5b81516001600160e01b0319811681146115c557600080fd5b805169ffffffffffffffffffff811681146124f757600080fd5b600080600080600060a08688031215612a3157600080fd5b612a3a866129ff565b9450602086015193506040860151925060608601519150612a5d608087016129ff565b90509295509295909350565b600060208284031215612a7b57600080fd5b5051919050565b600060208284031215612a9457600080fd5b81516115c58161252656fe68721c0bbf2c02a4d65000340d1370666be06a630022208d4baa9bd7a4b6fea8ddf252ad1be2c89b69c2b068fc378daa952ba7f163c4a11628f55a4df523b3efa2646970667358221220610f447c976d90d9655c1174c5fa992be77faf93161f8436236c410521a6bbbf64736f6c63430008140033",
    "linkReferences": {}
  },
  "methodIdentifiers": {
    "airdrop()": "3884d635",
    "approve(address,uint256)": "095ea7b3",
    "balanceOf(address)": "70a08231",
    "burn(uint256)": "42966c68",
    "getApproved(uint256)": "081812fc",
    "isApprovedForAll(address,address)": "e985e9c5",
    "isSoulbound()": "f7eca6d0",
    "maxMintPerAddress()": "572849c4",
    "maxMintPerTx()": "de7fcb1d",
    "maxSupply()": "d5abeb01",
    "mint(address)": "6a627842",
    "mint(address,uint256)": "40c10f19",
    "name()": "06fdde03",
    "ownerOf(uint256)": "6352211e",
    "price()": "a035b1fe",
    "safeTransferFrom(address,address,uint256)": "42842e0e",
    "safeTransferFrom(address,address,uint256,bytes)": "b88d4fde",
    "setAirdrop(bool)": "11111487",
    "setApprovalForAll(address,bool)": "a22cb465",
    "setAutomaticUSDConversion(bool)": "815e6ea1",
    "setIsPriceUSD(bool)": "cff37ca2",
    "setMaxMintPerAddress(uint256)": "1e14d44b",
    "setMaxMintPerTx(uint256)": "616cdb1e",
    "setMaxSupply(uint256)": "6f8b44b0",
    "setName(string)": "c47f0027",
    "setPrice(uint256)": "91b7f5ed",
    "setSoulbound(bool)": "df30e54b",
    "setSymbol(string)": "b84c8246",
    "setTokenURI(string)": "e0df5b6f",
    "symbol()": "95d89b41",
    "tokenURI(uint256)": "c87b56dd",
    "totalSupply()": "18160ddd",
    "transferFrom(address,address,uint256)": "23b872dd"
  },
  "id": 18
}