{
  "abi": [
    {
      "inputs": [],
      "name": "Ownable__NotOwner",
      "type": "error"
    },
    {
      "inputs": [],
      "name": "Ownable__NotTransitiveOwner",
      "type": "error"
    },
    {
      "anonymous": false,
      "inputs": [
        {
          "indexed": true,
          "internalType": "address",
          "name": "previousOwner",
          "type": "address"
        },
        {
          "indexed": true,
          "internalType": "address",
          "name": "newOwner",
          "type": "address"
        }
      ],
      "name": "OwnershipTransferred",
      "type": "event"
    },
    {
      "anonymous": false,
      "inputs": [
        {
          "indexed": true,
          "internalType": "address",
          "name": "implementation",
          "type": "address"
        }
      ],
      "name": "Upgraded",
      "type": "event"
    },
    {
      "inputs": [],
      "name": "implementation",
      "outputs": [
        {
          "internalType": "address",
          "name": "",
          "type": "address"
        }
      ],
      "stateMutability": "view",
      "type": "function"
    },
    {
      "inputs": [
        {
          "internalType": "address",
          "name": "_implementation",
          "type": "address"
        }
      ],
      "name": "setDummyImplementation",
      "outputs": [],
      "stateMutability": "nonpayable",
      "type": "function"
    }
  ],
  "bytecode": {
    "object": "0x608060405234801561001057600080fd5b506101f2806100206000396000f3fe608060405234801561001057600080fd5b50600436106100365760003560e01c80635c60da1b1461003b578063c39aa07d1461005f575b600080fd5b610043610074565b6040516001600160a01b03909116815260200160405180910390f35b61007261006d36600461018c565b610083565b005b600061007e6100c8565b905090565b61008b6100fb565b6001600160a01b0316336001600160a01b0316146100bc57604051632f7a8ee160e01b815260040160405180910390fd5b6100c581610123565b50565b60007f360894a13ba1a3210667c828492db98dca3e2076cc3735a920a3ca505d382bbc5b546001600160a01b0316919050565b60007f8a22373512790c48b83a1fe2efdd2888d4a917bcdc24d0adf63e60f6716804606100ec565b7f360894a13ba1a3210667c828492db98dca3e2076cc3735a920a3ca505d382bbc80546001600160a01b0319166001600160a01b0383169081179091556040517fbc7cd75a20ee27fd9adebab32041f755214dbc6bffa90cc0225b39da2e5c2d3b90600090a250565b60006020828403121561019e57600080fd5b81356001600160a01b03811681146101b557600080fd5b939250505056fea26469706673582212207aaa95ab8061c4249e003ee9c31ae6aad75f666d97f0d26a95043158b97636a764736f6c63430008140033",
    "linkReferences": {}
  },
  "methodIdentifiers": {
    "implementation()": "5c60da1b",
    "setDummyImplementation(address)": "c39aa07d"
  },
  "id": 36
}