{
  "abi": [
    {
      "inputs": [],
      "name": "InvalidPayee",
      "type": "error"
    },
    {
      "inputs": [],
      "name": "NotOwner",
      "type": "error"
    },
    {
      "inputs": [],
      "name": "Ownable__NotOwner",
      "type": "error"
    },
    {
      "inputs": [],
      "name": "Ownable__NotTransitiveOwner",
      "type": "error"
    },
    {
      "inputs": [],
      "name": "PayeeNotSender",
      "type": "error"
    },
    {
      "inputs": [],
      "name": "PaymentSplitterAlreadyHasShares",
      "type": "error"
    },
    {
      "inputs": [],
      "name": "PaymentSplitterMismatch",
      "type": "error"
    },
    {
      "inputs": [],
      "name": "PaymentSplitterNoPayees",
      "type": "error"
    },
    {
      "inputs": [],
      "name": "PaymentSplitterZeroAddress",
      "type": "error"
    },
    {
      "inputs": [],
      "name": "PaymentSplitterZeroFundsDue",
      "type": "error"
    },
    {
      "inputs": [],
      "name": "PaymentSplitterZeroShares",
      "type": "error"
    },
    {
      "anonymous": false,
      "inputs": [
        {
          "indexed": true,
          "internalType": "contract IERC20",
          "name": "token",
          "type": "address"
        },
        {
          "indexed": false,
          "internalType": "address",
          "name": "to",
          "type": "address"
        },
        {
          "indexed": false,
          "internalType": "uint256",
          "name": "amount",
          "type": "uint256"
        }
      ],
      "name": "ERC20PaymentReleased",
      "type": "event"
    },
    {
      "anonymous": false,
      "inputs": [
        {
          "indexed": true,
          "internalType": "address",
          "name": "previousOwner",
          "type": "address"
        },
        {
          "indexed": true,
          "internalType": "address",
          "name": "newOwner",
          "type": "address"
        }
      ],
      "name": "OwnershipTransferred",
      "type": "event"
    },
    {
      "anonymous": false,
      "inputs": [
        {
          "indexed": false,
          "internalType": "address",
          "name": "account",
          "type": "address"
        },
        {
          "indexed": false,
          "internalType": "uint256",
          "name": "shares",
          "type": "uint256"
        }
      ],
      "name": "PayeeAdded",
      "type": "event"
    },
    {
      "anonymous": false,
      "inputs": [
        {
          "indexed": false,
          "internalType": "address",
          "name": "from",
          "type": "address"
        },
        {
          "indexed": false,
          "internalType": "uint256",
          "name": "amount",
          "type": "uint256"
        }
      ],
      "name": "PaymentReceived",
      "type": "event"
    },
    {
      "anonymous": false,
      "inputs": [
        {
          "indexed": false,
          "internalType": "address",
          "name": "to",
          "type": "address"
        },
        {
          "indexed": false,
          "internalType": "uint256",
          "name": "amount",
          "type": "uint256"
        }
      ],
      "name": "PaymentReleased",
      "type": "event"
    },
    {
      "anonymous": false,
      "inputs": [
        {
          "indexed": false,
          "internalType": "string",
          "name": "_value",
          "type": "string"
        },
        {
          "indexed": true,
          "internalType": "uint256",
          "name": "_id",
          "type": "uint256"
        }
      ],
      "name": "URI",
      "type": "event"
    },
    {
      "anonymous": false,
      "inputs": [
        {
          "indexed": false,
          "internalType": "string",
          "name": "_value",
          "type": "string"
        },
        {
          "indexed": true,
          "internalType": "uint256",
          "name": "_id",
          "type": "uint256"
        }
      ],
      "name": "URI",
      "type": "event"
    },
    {
      "anonymous": false,
      "inputs": [
        {
          "indexed": true,
          "internalType": "address",
          "name": "implementation",
          "type": "address"
        }
      ],
      "name": "Upgraded",
      "type": "event"
    },
    {
      "inputs": [
        {
          "components": [
            {
              "internalType": "address[]",
              "name": "_payees",
              "type": "address[]"
            },
            {
              "internalType": "uint256[]",
              "name": "_shares",
              "type": "uint256[]"
            },
            {
              "internalType": "address",
              "name": "_secondaryPayee",
              "type": "address"
            },
            {
              "internalType": "uint16",
              "name": "_secondaryShare",
              "type": "uint16"
            },
            {
              "internalType": "bool",
              "name": "_airdrop",
              "type": "bool"
            },
            {
              "internalType": "string",
              "name": "_name",
              "type": "string"
            },
            {
              "internalType": "string",
              "name": "_symbol",
              "type": "string"
            },
            {
              "internalType": "string",
              "name": "_contractURI",
              "type": "string"
            },
            {
              "internalType": "string",
              "name": "_baseURI",
              "type": "string"
            },
            {
              "components": [
                {
                  "internalType": "uint256",
                  "name": "maxSupply",
                  "type": "uint256"
                },
                {
                  "internalType": "uint256",
                  "name": "price",
                  "type": "uint256"
                },
                {
                  "internalType": "address",
                  "name": "creator",
                  "type": "address"
                },
                {
                  "internalType": "string",
                  "name": "tokenUri",
                  "type": "string"
                },
                {
                  "internalType": "bool",
                  "name": "allowListEnabled",
                  "type": "bool"
                },
                {
                  "internalType": "uint256",
                  "name": "startTime",
                  "type": "uint256"
                },
                {
                  "internalType": "bool",
                  "name": "isCrossmintUSDC",
                  "type": "bool"
                }
              ],
              "internalType": "struct ERC1155Storage.TokenStructure[]",
              "name": "_tokenData",
              "type": "tuple[]"
            },
            {
              "internalType": "bool",
              "name": "_isPriceUSD",
              "type": "bool"
            },
            {
              "internalType": "bool",
              "name": "_automaticUSDConversion",
              "type": "bool"
            }
          ],
          "internalType": "struct Diamond1155Init.DiamondArgs",
          "name": "_args",
          "type": "tuple"
        }
      ],
      "name": "init",
      "outputs": [],
      "stateMutability": "nonpayable",
      "type": "function"
    }
  ],
  "bytecode": {
    "object": "0x608060405234801561001057600080fd5b50610d57806100206000396000f3fe608060405234801561001057600080fd5b506004361061002b5760003560e01c8063355ed1d014610030575b600080fd5b61004361003e3660046108b9565b610045565b005b7ffc606c433378e3a7e0a6a531deac289b66caa1b4aa8554fd4ab2c6f1570f92d860208181527f3df35b507c5de77f483b4e9b5c258409299a2e6dc816fa76a389e598628b08a58054600160ff1991821681179092557ffd29538739e576e7ec1eb8c7e901cca011aae0deb8fb2c6280a4c2300add457d80548216831790557fb36cab0dec645683c2d905d6b41349479e1d7f665c3cff144fecc78944a31d5b80548216831790557fa9832637661075437d81882814f92cc614421ae9c04c71ce67957179f7086c1880548216831790557fc4fa7de3a4df0d92e714265b62d48380cee39dd7653eba0d3265c599c330a3aa80548216831790557f998872e14e4c4cc2a489b07b9d61a4ce9b241eb815da29a9580117f1064180ee805482168317905563152a902d60e11b60009081527fc8586d0eb397d893718c4fe32ae3076658769e344a412a7b9164facd252ca9d6805490921690921790559081906101af908501856108fc565b91506101c3905060a085016080860161095e565b610215576101d184806108fc565b9250508082146101f45760405163a43cf65560e01b815260040160405180910390fd5b816000036102155760405163ab2a6e3d60e01b815260040160405180910390fd5b7f8a22373512790c48b83a1fe2efdd2888d4a917bcdc24d0adf63e60f67168046080546001600160a01b031916331790557fc69eb5f2b1f69527d60d580fcb33cfddae1f4237df70e8a7f7b3bb15e86726437ff298352fd56f58214bf2245c2b202523f72fca3199077ce992640958228b281f61029661010087018761097b565b7f4281b61aefbe70b3d3f684b428efca5f33077bc240e76f2808f9177c307617f4916102c3919083610a61565b506102d460a087016080880161095e565b156102fd576102e960a087016080880161095e565b60018301805460ff19169115159190911790555b61030a60a087018761097b565b600284019161031a919083610a61565b5061032860c087018761097b565b6003840191610338919083610a61565b5061034660e087018761097b565b6004840191610356919083610a61565b506103696101608701610140880161095e565b15610394576103806101608701610140880161095e565b600b8301805460ff19169115159190911790555b6103a66101808701610160880161095e565b156103d8576103bd6101808701610160880161095e565b600b830180549115156101000261ff00199092169190911790555b60005b838110156104465761043e6103f088806108fc565b8381811061040057610400610b22565b90506020020160208101906104159190610b4d565b61042260208a018a6108fc565b8481811061043257610432610b22565b905060200201356104dd565b6001016103db565b61045c6104576101208901896108fc565b610637565b5061046d6080880160608901610b6a565b60018301805461ffff191661ffff929092169190911790556104956060880160408901610b4d565b6003830180546001600160a01b0319166001600160a01b03929092169190911790556104d473f129c721c2e01fd9c99eff3e53f50f9322333889610850565b50505050505050565b6001600160a01b038216610504576040516381233f9960e01b815260040160405180910390fd5b8060000361052557604051632a9cdfa160e01b815260040160405180910390fd5b6001600160a01b03821660009081527f2f0e6a593a089007647f3882f40330070569292cc3d7e2a73800c263f213916d60205260409020547f2f0e6a593a089007647f3882f40330070569292cc3d7e2a73800c263f213916b901561059d5760405163a1ccf6ef60e01b815260040160405180910390fd5b6004810180546001810182556000918252602080832090910180546001600160a01b0319166001600160a01b03871690811790915582526002830190526040902082905580546105ee908390610ba4565b8155604080516001600160a01b0385168152602081018490527f40c340f65e17194d14ddddb073d3c9f888e3cb52b5aae0c6c7706b4fbc905fac910160405180910390a1505050565b60007f8a22373512790c48b83a1fe2efdd2888d4a917bcdc24d0adf63e60f671680460546001600160a01b03163314610683576040516330cd747160e01b815260040160405180910390fd5b7fc69eb5f2b1f69527d60d580fcb33cfddae1f4237df70e8a7f7b3bb15e8672643600080845b8083101561084357835491508686848181106106c7576106c7610b22565b90506020028101906106d99190610bbd565b6000838152600a8601602052604090206106f38282610bea565b506000905087878581811061070a5761070a610b22565b905060200281019061071c9190610bbd565b61072d906060810190604001610b4d565b6001600160a01b03160361075f576000828152600a85016020526040902060020180546001600160a01b031916331790555b600087878581811061077357610773610b22565b90506020028101906107859190610bbd565b61079390606081019061097b565b9050111561080657817f6bb7ff708619ba0610cba295a58592e0451dee2622938c8755667688daf3529b8888868181106107cf576107cf610b22565b90506020028101906107e19190610bbd565b6107ef90606081019061097b565b6040516107fd929190610cd9565b60405180910390a25b6108337fc69eb5f2b1f69527d60d580fcb33cfddae1f4237df70e8a7f7b3bb15e867264380546001019055565b61083c83610d08565b92506106a9565b5060019695505050505050565b7f360894a13ba1a3210667c828492db98dca3e2076cc3735a920a3ca505d382bbc80546001600160a01b0319166001600160a01b0383169081179091556040517fbc7cd75a20ee27fd9adebab32041f755214dbc6bffa90cc0225b39da2e5c2d3b90600090a250565b6000602082840312156108cb57600080fd5b813567ffffffffffffffff8111156108e257600080fd5b820161018081850312156108f557600080fd5b9392505050565b6000808335601e1984360301811261091357600080fd5b83018035915067ffffffffffffffff82111561092e57600080fd5b6020019150600581901b360382131561094657600080fd5b9250929050565b801515811461095b57600080fd5b50565b60006020828403121561097057600080fd5b81356108f58161094d565b6000808335601e1984360301811261099257600080fd5b83018035915067ffffffffffffffff8211156109ad57600080fd5b60200191503681900382131561094657600080fd5b634e487b7160e01b600052604160045260246000fd5b600181811c908216806109ec57607f821691505b602082108103610a0c57634e487b7160e01b600052602260045260246000fd5b50919050565b601f821115610a5c57600081815260208120601f850160051c81016020861015610a395750805b601f850160051c820191505b81811015610a5857828155600101610a45565b5050505b505050565b67ffffffffffffffff831115610a7957610a796109c2565b610a8d83610a8783546109d8565b83610a12565b6000601f841160018114610ac15760008515610aa95750838201355b600019600387901b1c1916600186901b178355610b1b565b600083815260209020601f19861690835b82811015610af25786850135825560209485019460019092019101610ad2565b5086821015610b0f5760001960f88860031b161c19848701351681555b505060018560011b0183555b5050505050565b634e487b7160e01b600052603260045260246000fd5b6001600160a01b038116811461095b57600080fd5b600060208284031215610b5f57600080fd5b81356108f581610b38565b600060208284031215610b7c57600080fd5b813561ffff811681146108f557600080fd5b634e487b7160e01b600052601160045260246000fd5b80820180821115610bb757610bb7610b8e565b92915050565b6000823560de19833603018112610bd357600080fd5b9190910192915050565b60008135610bb78161094d565b8135815560208201356001820155600281016040830135610c0a81610b38565b81546001600160a01b0319166001600160a01b0391909116179055606082013536839003601e19018112610c3d57600080fd5b8201803567ffffffffffffffff811115610c5657600080fd5b602082019150803603821315610c6b57600080fd5b610c79818360038601610a61565b5050610ca3610c8a60808401610bdd565b6004830160ff1981541660ff8315151681178255505050565b60a08201356005820155610cd5610cbc60c08401610bdd565b6006830160ff1981541660ff8315151681178255505050565b5050565b60208152816020820152818360408301376000818301604090810191909152601f909201601f19160101919050565b600060018201610d1a57610d1a610b8e565b506001019056fea2646970667358221220b45e8b97813ac0148fc465a4c0c4ed4359212ca569ad9155fc196f6cea7df78064736f6c63430008140033",
    "linkReferences": {}
  },
  "methodIdentifiers": {
    "init((address[],uint256[],address,uint16,bool,string,string,string,string,(uint256,uint256,address,string,bool,uint256,bool)[],bool,bool))": "355ed1d0"
  },
  "id": 10
}