{
  "abi": [
    {
      "inputs": [],
      "name": "AccountAlreadyAllowListed",
      "type": "error"
    },
    {
      "inputs": [],
      "name": "AccountNotAllowListed",
      "type": "error"
    },
    {
      "inputs": [],
      "name": "AllowListAmountExceeded",
      "type": "error"
    },
    {
      "inputs": [],
      "name": "AllowListDisabled",
      "type": "error"
    },
    {
      "inputs": [],
      "name": "AllowListEnabled",
      "type": "error"
    },
    {
      "inputs": [],
      "name": "AllowListMintUnopened",
      "type": "error"
    },
    {
      "inputs": [],
      "name": "MintNotOpen",
      "type": "error"
    },
    {
      "inputs": [],
      "name": "NotOnAllowList",
      "type": "error"
    },
    {
      "inputs": [],
      "name": "Ownable__NotOwner",
      "type": "error"
    },
    {
      "inputs": [],
      "name": "Ownable__NotTransitiveOwner",
      "type": "error"
    },
    {
      "anonymous": false,
      "inputs": [
        {
          "indexed": false,
          "internalType": "address",
          "name": "account",
          "type": "address"
        },
        {
          "indexed": false,
          "internalType": "uint256",
          "name": "allowance",
          "type": "uint256"
        }
      ],
      "name": "AllowListAdded",
      "type": "event"
    },
    {
      "anonymous": false,
      "inputs": [
        {
          "indexed": false,
          "internalType": "address[]",
          "name": "accounts",
          "type": "address[]"
        },
        {
          "indexed": false,
          "internalType": "uint256",
          "name": "allowance",
          "type": "uint256"
        }
      ],
      "name": "AllowListAdded",
      "type": "event"
    },
    {
      "anonymous": false,
      "inputs": [
        {
          "indexed": false,
          "internalType": "uint256",
          "name": "tokenId",
          "type": "uint256"
        },
        {
          "indexed": false,
          "internalType": "address",
          "name": "account",
          "type": "address"
        },
        {
          "indexed": false,
          "internalType": "uint256",
          "name": "allowance",
          "type": "uint256"
        }
      ],
      "name": "AllowListAdded",
      "type": "event"
    },
    {
      "anonymous": false,
      "inputs": [
        {
          "indexed": false,
          "internalType": "uint256",
          "name": "tokenId",
          "type": "uint256"
        },
        {
          "indexed": false,
          "internalType": "address[]",
          "name": "accounts",
          "type": "address[]"
        },
        {
          "indexed": false,
          "internalType": "uint256",
          "name": "allowance",
          "type": "uint256"
        }
      ],
      "name": "AllowListAdded",
      "type": "event"
    },
    {
      "anonymous": false,
      "inputs": [
        {
          "indexed": false,
          "internalType": "address",
          "name": "account",
          "type": "address"
        }
      ],
      "name": "AllowListRemoved",
      "type": "event"
    },
    {
      "anonymous": false,
      "inputs": [
        {
          "indexed": false,
          "internalType": "address[]",
          "name": "accounts",
          "type": "address[]"
        }
      ],
      "name": "AllowListRemoved",
      "type": "event"
    },
    {
      "anonymous": false,
      "inputs": [
        {
          "indexed": false,
          "internalType": "uint256",
          "name": "tokenId",
          "type": "uint256"
        },
        {
          "indexed": false,
          "internalType": "address",
          "name": "account",
          "type": "address"
        }
      ],
      "name": "AllowListRemoved",
      "type": "event"
    },
    {
      "anonymous": false,
      "inputs": [
        {
          "indexed": false,
          "internalType": "uint256",
          "name": "tokenId",
          "type": "uint256"
        },
        {
          "indexed": false,
          "internalType": "address[]",
          "name": "accounts",
          "type": "address[]"
        }
      ],
      "name": "AllowListRemoved",
      "type": "event"
    },
    {
      "anonymous": false,
      "inputs": [
        {
          "indexed": false,
          "internalType": "bool",
          "name": "status",
          "type": "bool"
        }
      ],
      "name": "AllowListStatus",
      "type": "event"
    },
    {
      "anonymous": false,
      "inputs": [
        {
          "indexed": false,
          "internalType": "uint256",
          "name": "tokenId",
          "type": "uint256"
        },
        {
          "indexed": false,
          "internalType": "bool",
          "name": "status",
          "type": "bool"
        }
      ],
      "name": "AllowListStatus",
      "type": "event"
    },
    {
      "anonymous": false,
      "inputs": [
        {
          "indexed": true,
          "internalType": "address",
          "name": "previousOwner",
          "type": "address"
        },
        {
          "indexed": true,
          "internalType": "address",
          "name": "newOwner",
          "type": "address"
        }
      ],
      "name": "OwnershipTransferred",
      "type": "event"
    },
    {
      "inputs": [
        {
          "internalType": "uint256",
          "name": "tokenId",
          "type": "uint256"
        },
        {
          "internalType": "address",
          "name": "account",
          "type": "address"
        }
      ],
      "name": "addToAllowList",
      "outputs": [],
      "stateMutability": "nonpayable",
      "type": "function"
    },
    {
      "inputs": [
        {
          "internalType": "uint256",
          "name": "tokenId",
          "type": "uint256"
        },
        {
          "internalType": "address[]",
          "name": "accounts",
          "type": "address[]"
        },
        {
          "internalType": "uint256",
          "name": "allowance",
          "type": "uint256"
        }
      ],
      "name": "addToAllowList",
      "outputs": [],
      "stateMutability": "nonpayable",
      "type": "function"
    },
    {
      "inputs": [
        {
          "internalType": "uint256",
          "name": "tokenId",
          "type": "uint256"
        },
        {
          "internalType": "address",
          "name": "account",
          "type": "address"
        },
        {
          "internalType": "uint256",
          "name": "allowance",
          "type": "uint256"
        },
        {
          "internalType": "uint256",
          "name": "allowTime",
          "type": "uint256"
        }
      ],
      "name": "addToAllowList",
      "outputs": [],
      "stateMutability": "nonpayable",
      "type": "function"
    },
    {
      "inputs": [
        {
          "internalType": "uint256",
          "name": "tokenId",
          "type": "uint256"
        },
        {
          "internalType": "address[]",
          "name": "accounts",
          "type": "address[]"
        }
      ],
      "name": "addToAllowList",
      "outputs": [],
      "stateMutability": "nonpayable",
      "type": "function"
    },
    {
      "inputs": [
        {
          "internalType": "uint256",
          "name": "tokenId",
          "type": "uint256"
        },
        {
          "internalType": "address",
          "name": "account",
          "type": "address"
        },
        {
          "internalType": "uint256",
          "name": "allowance",
          "type": "uint256"
        }
      ],
      "name": "addToAllowList",
      "outputs": [],
      "stateMutability": "nonpayable",
      "type": "function"
    },
    {
      "inputs": [
        {
          "internalType": "uint256",
          "name": "tokenId",
          "type": "uint256"
        },
        {
          "internalType": "address[]",
          "name": "accounts",
          "type": "address[]"
        },
        {
          "internalType": "uint256",
          "name": "allowance",
          "type": "uint256"
        },
        {
          "internalType": "uint256",
          "name": "allowTime",
          "type": "uint256"
        }
      ],
      "name": "addToAllowList",
      "outputs": [],
      "stateMutability": "nonpayable",
      "type": "function"
    },
    {
      "inputs": [
        {
          "internalType": "uint256",
          "name": "tokenId",
          "type": "uint256"
        },
        {
          "internalType": "address",
          "name": "account",
          "type": "address"
        }
      ],
      "name": "allowListContains",
      "outputs": [
        {
          "internalType": "bool",
          "name": "contains",
          "type": "bool"
        }
      ],
      "stateMutability": "view",
      "type": "function"
    },
    {
      "inputs": [
        {
          "internalType": "uint256",
          "name": "tokenId",
          "type": "uint256"
        },
        {
          "internalType": "address",
          "name": "account",
          "type": "address"
        }
      ],
      "name": "removeFromAllowList",
      "outputs": [],
      "stateMutability": "nonpayable",
      "type": "function"
    },
    {
      "inputs": [
        {
          "internalType": "uint256",
          "name": "tokenId",
          "type": "uint256"
        },
        {
          "internalType": "address[]",
          "name": "accounts",
          "type": "address[]"
        }
      ],
      "name": "removeFromAllowList",
      "outputs": [],
      "stateMutability": "nonpayable",
      "type": "function"
    }
  ],
  "bytecode": {
    "object": "0x608060405234801561001057600080fd5b50610dd6806100206000396000f3fe608060405234801561001057600080fd5b50600436106100935760003560e01c806379857c231161006657806379857c23146100fa578063842075651461010d578063afa71cb814610120578063d65795c314610133578063fef9cf9b1461014657600080fd5b80630d1120491461009857806359bd6ff4146100ad5780636e09dd16146100c05780637958bc8c146100d3575b600080fd5b6100ab6100a6366004610a98565b610159565b005b6100ab6100bb366004610b10565b6101a3565b6100ab6100ce366004610b63565b6101f0565b6100e66100e1366004610a98565b610235565b604051901515815260200160405180910390f35b6100ab610108366004610b9e565b61024a565b6100ab61011b366004610a98565b610296565b6100ab61012e366004610b9e565b6102d9565b6100ab610141366004610bea565b61031d565b6100ab610154366004610c1f565b610363565b6101616103b0565b6001600160a01b0316336001600160a01b03161461019257604051632f7a8ee160e01b815260040160405180910390fd5b61019f82826000806103de565b5050565b6101ab6103b0565b6001600160a01b0316336001600160a01b0316146101dc57604051632f7a8ee160e01b815260040160405180910390fd5b6101ea8484848460006104e5565b50505050565b6101f86103b0565b6001600160a01b0316336001600160a01b03161461022957604051632f7a8ee160e01b815260040160405180910390fd5b6101ea848484846103de565b600061024183836106ac565b90505b92915050565b6102526103b0565b6001600160a01b0316336001600160a01b03161461028357604051632f7a8ee160e01b815260040160405180910390fd5b6102918383836000806104e5565b505050565b61029e6103b0565b6001600160a01b0316336001600160a01b0316146102cf57604051632f7a8ee160e01b815260040160405180910390fd5b61019f82826106e3565b6102e16103b0565b6001600160a01b0316336001600160a01b03161461031257604051632f7a8ee160e01b815260040160405180910390fd5b6102918383836107c8565b6103256103b0565b6001600160a01b0316336001600160a01b03161461035657604051632f7a8ee160e01b815260040160405180910390fd5b61029183838360006103de565b61036b6103b0565b6001600160a01b0316336001600160a01b03161461039c57604051632f7a8ee160e01b815260040160405180910390fd5b6103a985858585856104e5565b5050505050565b7f8a22373512790c48b83a1fe2efdd2888d4a917bcdc24d0adf63e60f671680460546001600160a01b031690565b60008481527f8b3e8f46c99cb795ebda06e2a368cb0f3c8a09025665de4b1aef35b0dd2b497e60205260409020600080516020610d81833981519152906104259085610928565b156104435760405163c18a4f8760e01b815260040160405180910390fd5b6000858152600182016020526040902061045d908561094a565b50600085815260028201602090815260408083206001600160a01b0388168085529083528184208790558884526003850183528184208185528352928190208590558051888152918201929092529081018490527f28fe12e21bec3527bc7a181a87ca5e7a646218458e8cb90ce845bbe5cf7a17669060600160405180910390a15050505050565b600080516020610d818339815191528360005b818110156106655761054087878381811061051557610515610c7d565b905060200201602081019061052a9190610c93565b60008a8152600186016020526040902090610928565b1561055e5760405163c18a4f8760e01b815260040160405180910390fd5b61059e87878381811061057357610573610c7d565b90506020020160208101906105889190610c93565b60008a815260018601602052604090209061094a565b506000888152600284016020526040812086918989858181106105c3576105c3610c7d565b90506020020160208101906105d89190610c93565b6001600160a01b03166001600160a01b0316815260200190815260200160002081905550838360030160008a8152602001908152602001600020600089898581811061062657610626610c7d565b905060200201602081019061063b9190610c93565b6001600160a01b0316815260208101919091526040016000205561065e81610cae565b90506104f8565b7f88d7a64ca203aeae11370903ed741761b75b74a9b5326424f737435d05f8531c8888888860405161069a9493929190610d1c565b60405180910390a15050505050505050565b60008281527f8b3e8f46c99cb795ebda06e2a368cb0f3c8a09025665de4b1aef35b0dd2b497e602052604081206102419083610928565b60008281527f8b3e8f46c99cb795ebda06e2a368cb0f3c8a09025665de4b1aef35b0dd2b497e60205260409020600080516020610d818339815191529061072a9083610928565b610747576040516321ba6abf60e01b815260040160405180910390fd5b60008381526001820160205260409020610761908361095f565b50600083815260028201602090815260408083206001600160a01b038616808552908352818420939093558051868152918201929092527f286976365d14354f2f275133839a23cf944d19c9e56cd78fe3d07c84c88c0bfd910160405180910390a1505050565b600080516020610d818339815191528160005b818110156108e5576108238585838181106107f8576107f8610c7d565b905060200201602081019061080d9190610c93565b6000888152600186016020526040902090610928565b610840576040516321ba6abf60e01b815260040160405180910390fd5b61088085858381811061085557610855610c7d565b905060200201602081019061086a9190610c93565b600088815260018601602052604090209061095f565b5060008681526002840160205260408120908686848181106108a4576108a4610c7d565b90506020020160208101906108b99190610c93565b6001600160a01b0316815260208101919091526040016000908120556108de81610cae565b90506107db565b7f94400dfbb04fc4e1b8c67dfab336eb5c8c568afbc1eeae4c1244831db69778ae86868660405161091893929190610d47565b60405180910390a1505050505050565b6001600160a01b03811660009081526001830160205260408120541515610241565b6000610241836001600160a01b038416610974565b6000610241836001600160a01b0384166109b7565b6000818152600183016020526040812054610244575081546001808201845560008481526020808220909301849055845493815293810190915260409092205590565b60008181526001830160205260408120548015610a75578354600090859060001981019081106109e9576109e9610c7d565b9060005260206000200154905080856000016001840381548110610a0f57610a0f610c7d565b6000918252602080832090910192909255918252600186019052604090208190558354849080610a4157610a41610d6a565b6001900381819060005260206000200160009055905583600101600084815260200190815260200160002060009055600191505b5092915050565b80356001600160a01b0381168114610a9357600080fd5b919050565b60008060408385031215610aab57600080fd5b82359150610abb60208401610a7c565b90509250929050565b60008083601f840112610ad657600080fd5b50813567ffffffffffffffff811115610aee57600080fd5b6020830191508360208260051b8501011115610b0957600080fd5b9250929050565b60008060008060608587031215610b2657600080fd5b84359350602085013567ffffffffffffffff811115610b4457600080fd5b610b5087828801610ac4565b9598909750949560400135949350505050565b60008060008060808587031215610b7957600080fd5b84359350610b8960208601610a7c565b93969395505050506040820135916060013590565b600080600060408486031215610bb357600080fd5b83359250602084013567ffffffffffffffff811115610bd157600080fd5b610bdd86828701610ac4565b9497909650939450505050565b600080600060608486031215610bff57600080fd5b83359250610c0f60208501610a7c565b9150604084013590509250925092565b600080600080600060808688031215610c3757600080fd5b85359450602086013567ffffffffffffffff811115610c5557600080fd5b610c6188828901610ac4565b9699909850959660408101359660609091013595509350505050565b634e487b7160e01b600052603260045260246000fd5b600060208284031215610ca557600080fd5b61024182610a7c565b600060018201610cce57634e487b7160e01b600052601160045260246000fd5b5060010190565b8183526000602080850194508260005b85811015610d11576001600160a01b03610cfe83610a7c565b1687529582019590820190600101610ce5565b509495945050505050565b848152606060208201526000610d36606083018587610cd5565b905082604083015295945050505050565b838152604060208201526000610d61604083018486610cd5565b95945050505050565b634e487b7160e01b600052603160045260246000fdfe8b3e8f46c99cb795ebda06e2a368cb0f3c8a09025665de4b1aef35b0dd2b497da2646970667358221220ea829301ecac196c5be53ef69541f140209b30a240cee6fc899f2a5e76d2a7ee64736f6c63430008140033",
    "linkReferences": {}
  },
  "methodIdentifiers": {
    "addToAllowList(uint256,address)": "0d112049",
    "addToAllowList(uint256,address,uint256)": "d65795c3",
    "addToAllowList(uint256,address,uint256,uint256)": "6e09dd16",
    "addToAllowList(uint256,address[])": "79857c23",
    "addToAllowList(uint256,address[],uint256)": "59bd6ff4",
    "addToAllowList(uint256,address[],uint256,uint256)": "fef9cf9b",
    "allowListContains(uint256,address)": "7958bc8c",
    "removeFromAllowList(uint256,address)": "84207565",
    "removeFromAllowList(uint256,address[])": "afa71cb8"
  },
  "id": 52
}