{
  "abi": [
    {
      "inputs": [],
      "name": "swapRouter",
      "outputs": [
        {
          "internalType": "contract ISwapRouter",
          "name": "",
          "type": "ISwapRouter"
        }
      ],
      "stateMutability": "view",
      "type": "function"
    }
  ],
  "bytecode": {
    "object": "0x60a4610038600b82828239805160001a607314602b57634e487b7160e01b600052600060045260246000fd5b30600052607381538281f3fe730000000000000000000000000000000000000000301460806040526004361060335760003560e01c8063c31c9c07146038575b600080fd5b605273e592427a0aece92de3edee1f18e0157c0586156481565b6040516001600160a01b03909116815260200160405180910390f3fea2646970667358221220fb88961e8c7dc9471dd1bdb04091eed10b4f470e043f6e55fb11780d052ba72264736f6c63430008140033",
    "linkReferences": {}
  },
  "methodIdentifiers": {
    "swapRouter()": "c31c9c07"
  },
  "id": 46
}