{
  "abi": [
    {
      "inputs": [],
      "name": "Ownable__NotOwner",
      "type": "error"
    },
    {
      "inputs": [],
      "name": "Ownable__NotTransitiveOwner",
      "type": "error"
    },
    {
      "anonymous": false,
      "inputs": [
        {
          "indexed": true,
          "internalType": "address",
          "name": "previousOwner",
          "type": "address"
        },
        {
          "indexed": true,
          "internalType": "address",
          "name": "newOwner",
          "type": "address"
        }
      ],
      "name": "OwnershipTransferred",
      "type": "event"
    },
    {
      "inputs": [],
      "name": "contractURI",
      "outputs": [
        {
          "internalType": "string",
          "name": "",
          "type": "string"
        }
      ],
      "stateMutability": "view",
      "type": "function"
    },
    {
      "inputs": [
        {
          "internalType": "uint256",
          "name": "tokenId",
          "type": "uint256"
        },
        {
          "internalType": "uint256",
          "name": "salePrice",
          "type": "uint256"
        }
      ],
      "name": "royaltyInfo",
      "outputs": [
        {
          "internalType": "address",
          "name": "",
          "type": "address"
        },
        {
          "internalType": "uint256",
          "name": "",
          "type": "uint256"
        }
      ],
      "stateMutability": "view",
      "type": "function"
    },
    {
      "inputs": [
        {
          "internalType": "uint16",
          "name": "_defaultRoyaltyBPS",
          "type": "uint16"
        },
        {
          "internalType": "address",
          "name": "_defaultRoyalyReceiver",
          "type": "address"
        }
      ],
      "name": "setDefaultRoyalty",
      "outputs": [],
      "stateMutability": "nonpayable",
      "type": "function"
    },
    {
      "inputs": [
        {
          "internalType": "bytes4",
          "name": "interfaceId",
          "type": "bytes4"
        }
      ],
      "name": "supportsInterface",
      "outputs": [
        {
          "internalType": "bool",
          "name": "",
          "type": "bool"
        }
      ],
      "stateMutability": "view",
      "type": "function"
    }
  ],
  "bytecode": {
    "object": "0x608060405234801561001057600080fd5b50610501806100206000396000f3fe608060405234801561001057600080fd5b506004361061004c5760003560e01c806301ffc9a71461005157806305b4d1d61461007a5780632a55205a1461008f578063e8a3d485146100c1575b600080fd5b61006561005f36600461035d565b50600090565b60405190151581526020015b60405180910390f35b61008d61008836600461038e565b6100d6565b005b6100a261009d3660046103da565b610196565b604080516001600160a01b039093168352602083019190915201610071565b6100c96101ae565b60405161007191906103fc565b7f8a22373512790c48b83a1fe2efdd2888d4a917bcdc24d0adf63e60f671680460546001600160a01b0316331461012057604051632f7a8ee160e01b815260040160405180910390fd5b7ff298352fd56f58214bf2245c2b202523f72fca3199077ce992640958228b2820805461ffff191661ffff93909316929092179091557ff298352fd56f58214bf2245c2b202523f72fca3199077ce992640958228b282280546001600160a01b0319166001600160a01b03909216919091179055565b6000806101a3848461025f565b915091509250929050565b60607f6bf2df233577181037d5555e17d2ed729e577ad4749ca7a27e9adc497b5f31f080546101dc9061044a565b80601f01602080910402602001604051908101604052809291908181526020018280546102089061044a565b80156102555780601f1061022a57610100808354040283529160200191610255565b820191906000526020600020905b81548152906001019060200180831161023857829003601f168201915b5050505050905090565b600080600061026d8561029f565b61ffff16905061027c856102ed565b612710610289868461047e565b61029391906104a9565b92509250509250929050565b60008181527ff298352fd56f58214bf2245c2b202523f72fca3199077ce992640958228b281f6020819052604082205461ffff16918290036102e757600181015461ffff1691505b50919050565b60008181527ff298352fd56f58214bf2245c2b202523f72fca3199077ce992640958228b282160205260409020546001600160a01b03167ff298352fd56f58214bf2245c2b202523f72fca3199077ce992640958228b281f816102e757600301546001600160a01b031692915050565b60006020828403121561036f57600080fd5b81356001600160e01b03198116811461038757600080fd5b9392505050565b600080604083850312156103a157600080fd5b823561ffff811681146103b357600080fd5b915060208301356001600160a01b03811681146103cf57600080fd5b809150509250929050565b600080604083850312156103ed57600080fd5b50508035926020909101359150565b600060208083528351808285015260005b818110156104295785810183015185820160400152820161040d565b506000604082860101526040601f19601f8301168501019250505092915050565b600181811c9082168061045e57607f821691505b6020821081036102e757634e487b7160e01b600052602260045260246000fd5b80820281158282048414176104a357634e487b7160e01b600052601160045260246000fd5b92915050565b6000826104c657634e487b7160e01b600052601260045260246000fd5b50049056fea2646970667358221220fcbd91ee386825eafde629a36dfa484df072485495ce6e7febbf2ef3b047069964736f6c63430008140033",
    "linkReferences": {}
  },
  "methodIdentifiers": {
    "contractURI()": "e8a3d485",
    "royaltyInfo(uint256,uint256)": "2a55205a",
    "setDefaultRoyalty(uint16,address)": "05b4d1d6",
    "supportsInterface(bytes4)": "01ffc9a7"
  },
  "id": 41
}