{
  "abi": [
    {
      "inputs": [
        {
          "internalType": "uint256",
          "name": "_price",
          "type": "uint256"
        }
      ],
      "name": "convertUSDtoWei",
      "outputs": [
        {
          "internalType": "uint256",
          "name": "",
          "type": "uint256"
        }
      ],
      "stateMutability": "view",
      "type": "function"
    },
    {
      "inputs": [],
      "name": "getLatestPrice",
      "outputs": [
        {
          "internalType": "uint256",
          "name": "",
          "type": "uint256"
        }
      ],
      "stateMutability": "view",
      "type": "function"
    }
  ],
  "bytecode": {
    "object": "0x608060405234801561001057600080fd5b506102ff806100206000396000f3fe608060405234801561001057600080fd5b50600436106100365760003560e01c80638e15f4731461003b57806391a77a2614610055575b600080fd5b610043610068565b60405190815260200160405180910390f35b6100436100633660046101fa565b610077565b60006100726100b2565b905090565b600081620f42406100866100b2565b6100909190610213565b6100a290670de0b6b3a7640000610213565b6100ac9190610235565b92915050565b6000806100bd61012f565b90506000816001600160a01b031663feaf968c6040518163ffffffff1660e01b815260040160a060405180830381865afa1580156100ff573d6000803e3d6000fd5b505050506040513d601f19601f820116820180604052508101906101239190610279565b50919695505050505050565b6000806100ac60004660018114806101485750617a6981145b1561016857735f4ec3df9cbd43714fe2740f5e3616155c5b841991505090565b6004810361018b57738a753747a1fa494ec906ce90e9f37563a8af630e91505090565b600581036101ae5773d4a33860578de61dbabdc8bfdb98fd742fa7028e91505090565b608981036101d15773ab594600376ec9fd91f8e885dadf0ce036862de091505090565b6201388181036101f65773d0d5e3db44de05e9f294bb0a3beeaf030de24ada91505090565b5090565b60006020828403121561020c57600080fd5b5035919050565b60008261023057634e487b7160e01b600052601260045260246000fd5b500490565b80820281158282048414176100ac57634e487b7160e01b600052601160045260246000fd5b805169ffffffffffffffffffff8116811461027457600080fd5b919050565b600080600080600060a0868803121561029157600080fd5b61029a8661025a565b94506020860151935060408601519250606086015191506102bd6080870161025a565b9050929550929590935056fea2646970667358221220aa0bfd6159e9aa298a633e29ef013c7730870b0af5d7472519ea24390356b36164736f6c63430008140033",
    "linkReferences": {}
  },
  "methodIdentifiers": {
    "convertUSDtoWei(uint256)": "91a77a26",
    "getLatestPrice()": "8e15f473"
  },
  "id": 50
}