{
  "abi": [
    {
      "inputs": [],
      "name": "AlreadyMinted",
      "type": "error"
    },
    {
      "inputs": [],
      "name": "EditionSoldOut",
      "type": "error"
    },
    {
      "inputs": [],
      "name": "EditionsDisabled",
      "type": "error"
    },
    {
      "inputs": [],
      "name": "EditionsEnabled",
      "type": "error"
    },
    {
      "inputs": [],
      "name": "ExceedsMaxMintPerAddress",
      "type": "error"
    },
    {
      "inputs": [],
      "name": "ExceedsMaxMintPerTx",
      "type": "error"
    },
    {
      "inputs": [],
      "name": "ExceedsMaxSupply",
      "type": "error"
    },
    {
      "inputs": [],
      "name": "InsufficientValue",
      "type": "error"
    },
    {
      "inputs": [],
      "name": "InvalidAirdropCaller",
      "type": "error"
    },
    {
      "inputs": [],
      "name": "InvalidEditionId",
      "type": "error"
    },
    {
      "inputs": [],
      "name": "InvalidValueSent",
      "type": "error"
    },
    {
      "inputs": [],
      "name": "MintToZeroAddress",
      "type": "error"
    },
    {
      "inputs": [],
      "name": "MintZeroQuantity",
      "type": "error"
    },
    {
      "inputs": [],
      "name": "NameRequired",
      "type": "error"
    },
    {
      "inputs": [],
      "name": "Ownable__NotOwner",
      "type": "error"
    },
    {
      "inputs": [],
      "name": "Ownable__NotTransitiveOwner",
      "type": "error"
    },
    {
      "inputs": [],
      "name": "OwnershipNotInitializedForExtraData",
      "type": "error"
    },
    {
      "inputs": [],
      "name": "Pausable__NotPaused",
      "type": "error"
    },
    {
      "inputs": [],
      "name": "Pausable__Paused",
      "type": "error"
    },
    {
      "inputs": [],
      "name": "TokenIsSoulbound",
      "type": "error"
    },
    {
      "inputs": [],
      "name": "URIRequired",
      "type": "error"
    },
    {
      "anonymous": false,
      "inputs": [
        {
          "indexed": false,
          "internalType": "uint256",
          "name": "editionIndex",
          "type": "uint256"
        },
        {
          "indexed": false,
          "internalType": "string",
          "name": "name",
          "type": "string"
        },
        {
          "indexed": false,
          "internalType": "uint256",
          "name": "price",
          "type": "uint256"
        },
        {
          "indexed": false,
          "internalType": "uint256",
          "name": "maxSupply",
          "type": "uint256"
        }
      ],
      "name": "EditionCreate",
      "type": "event"
    },
    {
      "anonymous": false,
      "inputs": [
        {
          "indexed": true,
          "internalType": "address",
          "name": "previousOwner",
          "type": "address"
        },
        {
          "indexed": true,
          "internalType": "address",
          "name": "newOwner",
          "type": "address"
        }
      ],
      "name": "OwnershipTransferred",
      "type": "event"
    },
    {
      "anonymous": false,
      "inputs": [
        {
          "indexed": false,
          "internalType": "address",
          "name": "account",
          "type": "address"
        }
      ],
      "name": "Paused",
      "type": "event"
    },
    {
      "anonymous": false,
      "inputs": [
        {
          "indexed": false,
          "internalType": "address",
          "name": "from",
          "type": "address"
        },
        {
          "indexed": false,
          "internalType": "uint256",
          "name": "amount",
          "type": "uint256"
        }
      ],
      "name": "PaymentReceived",
      "type": "event"
    },
    {
      "anonymous": false,
      "inputs": [
        {
          "indexed": false,
          "internalType": "address",
          "name": "account",
          "type": "address"
        }
      ],
      "name": "Unpaused",
      "type": "event"
    },
    {
      "inputs": [
        {
          "internalType": "string",
          "name": "_name",
          "type": "string"
        },
        {
          "internalType": "uint256",
          "name": "_maxSupply",
          "type": "uint256"
        },
        {
          "internalType": "uint256",
          "name": "_price",
          "type": "uint256"
        }
      ],
      "name": "createEdition",
      "outputs": [],
      "stateMutability": "nonpayable",
      "type": "function"
    },
    {
      "inputs": [],
      "name": "enableEditions",
      "outputs": [],
      "stateMutability": "nonpayable",
      "type": "function"
    },
    {
      "inputs": [
        {
          "internalType": "uint256",
          "name": "_editionIndex",
          "type": "uint256"
        }
      ],
      "name": "maxSupply",
      "outputs": [
        {
          "internalType": "uint256",
          "name": "",
          "type": "uint256"
        }
      ],
      "stateMutability": "view",
      "type": "function"
    },
    {
      "inputs": [
        {
          "internalType": "address",
          "name": "to",
          "type": "address"
        },
        {
          "internalType": "uint256",
          "name": "amount",
          "type": "uint256"
        },
        {
          "internalType": "uint256",
          "name": "editionIndex",
          "type": "uint256"
        }
      ],
      "name": "mint",
      "outputs": [],
      "stateMutability": "payable",
      "type": "function"
    },
    {
      "inputs": [
        {
          "internalType": "uint256",
          "name": "_editionIndex",
          "type": "uint256"
        }
      ],
      "name": "price",
      "outputs": [
        {
          "internalType": "uint256",
          "name": "",
          "type": "uint256"
        }
      ],
      "stateMutability": "view",
      "type": "function"
    },
    {
      "inputs": [
        {
          "internalType": "uint256",
          "name": "_maxSupply",
          "type": "uint256"
        },
        {
          "internalType": "uint256",
          "name": "_editionIndex",
          "type": "uint256"
        }
      ],
      "name": "setMaxSupply",
      "outputs": [],
      "stateMutability": "nonpayable",
      "type": "function"
    },
    {
      "inputs": [
        {
          "internalType": "uint256",
          "name": "_price",
          "type": "uint256"
        },
        {
          "internalType": "uint256",
          "name": "_editionIndex",
          "type": "uint256"
        }
      ],
      "name": "setPrice",
      "outputs": [],
      "stateMutability": "nonpayable",
      "type": "function"
    },
    {
      "inputs": [
        {
          "internalType": "uint256",
          "name": "_editionIndex",
          "type": "uint256"
        }
      ],
      "name": "totalSupply",
      "outputs": [
        {
          "internalType": "uint256",
          "name": "",
          "type": "uint256"
        }
      ],
      "stateMutability": "view",
      "type": "function"
    },
    {
      "inputs": [
        {
          "internalType": "uint256",
          "name": "_totalSuppy",
          "type": "uint256"
        },
        {
          "internalType": "uint256",
          "name": "_editionIndex",
          "type": "uint256"
        }
      ],
      "name": "updateTotalSupply",
      "outputs": [],
      "stateMutability": "nonpayable",
      "type": "function"
    }
  ],
  "bytecode": {
    "object": "0x608060405234801561001057600080fd5b50611a87806100206000396000f3fe6080604052600436106100865760003560e01c8063869f759411610059578063869f759414610112578063a1d4afa214610132578063bd85b03914610147578063f7d9757714610167578063f8b4ab7a1461018757600080fd5b8063156e29f61461008b57806326a49e37146100a057806337da577c146100d25780634d6d50fb146100f2575b600080fd5b61009e6100993660046115ee565b6101a7565b005b3480156100ac57600080fd5b506100c06100bb36600461162f565b610369565b60405190815260200160405180910390f35b3480156100de57600080fd5b5061009e6100ed366004611648565b6104ba565b3480156100fe57600080fd5b5061009e61010d36600461166a565b6105f6565b34801561011e57600080fd5b506100c061012d36600461162f565b610678565b34801561013e57600080fd5b5061009e61070a565b34801561015357600080fd5b506100c061016236600461162f565b6107ba565b34801561017357600080fd5b5061009e610182366004611648565b61084c565b34801561019357600080fd5b5061009e6101a2366004611648565b610915565b7f68721c0bbf2c02a4d65000340d1370666be06a630022208d4baa9bd7a4b6fea85460ff16156101ea576040516302ca8ced60e11b815260040160405180910390fd5b600080516020611a32833981519152548190600080516020611a1283398151915290821061022b57604051631a3973a960e01b815260040160405180910390fd5b7fd71f56830ccd643bda4d966483f496c024b01867c423fce4b51d4352a0754407546000805160206119f283398151915290600080516020611a128339815191529060ff161561027d5761027d6109de565b805460ff1661029f576040516332b5467d60e01b815260040160405180910390fd5b815460018201805460009190889081106102bb576102bb6116e9565b90600052602060002090600402019050600081600101541180156102e85750806001015488826002015401115b156103065760405163a8fda6c160e01b815260040160405180910390fd5b61030f87610369565b88023410156103315760405163044044a560e21b815260040160405180910390fd5b61033b8989610a4d565b6103458288610b12565b878160020160008282546103599190611715565b9091555050505050505050505050565b600080516020611a328339815191528054600091600080516020611a12833981519152917f2f0e6a593a089007647f3882f40330070569292cc3d7e2a73800c263f213916b918491869081106103c1576103c16116e9565b90600052602060002090600402016040518060800160405290816000820180546103ea90611728565b80601f016020809104026020016040519081016040528092919081815260200182805461041690611728565b80156104635780601f1061043857610100808354040283529160200191610463565b820191906000526020600020905b81548152906001019060200180831161044657829003601f168201915b50505091835250506001820154602082015260028201546040820152600390910154606090910152600783015490915060ff166104a45780606001516104b1565b6104b18160600151610b98565b95945050505050565b6104c2610bd3565b6001600160a01b0316336001600160a01b0316146104f357604051632f7a8ee160e01b815260040160405180910390fd5b600080516020611a32833981519152548190600080516020611a1283398151915290821061053457604051631a3973a960e01b815260040160405180910390fd5b600080516020611a328339815191528054600080516020611a128339815191529160009186908110610568576105686116e9565b9060005260206000209060040201905085816002015411156105e95760405162461bcd60e51b815260206004820152602f60248201527f43616e6e6f7420736574206d617820737570706c79206c6f776572207468616e60448201526e2063757272656e7420737570706c7960881b60648201526084015b60405180910390fd5b6001019490945550505050565b6105fe610bd3565b6001600160a01b0316336001600160a01b03161461062f57604051632f7a8ee160e01b815260040160405180910390fd5b61067284848080601f016020809104026020016040519081016040528093929190818152602001838380828437600092019190915250869250859150610c019050565b50505050565b600080516020611a32833981519152546000908290600080516020611a128339815191529082106106bc57604051631a3973a960e01b815260040160405180910390fd5b600080516020611a328339815191528054600080516020611a128339815191529190869081106106ee576106ee6116e9565b9060005260206000209060040201600101549350505050919050565b610712610bd3565b6001600160a01b0316336001600160a01b03161461074357604051632f7a8ee160e01b815260040160405180910390fd5b6000805160206119f28339815191528054600080516020611a12833981519152901561078257604051631bbdf5c560e31b815260040160405180910390fd5b805460ff16156107a5576040516345c43e8f60e11b815260040160405180910390fd5b805460ff191660011790556000600990910155565b600080516020611a32833981519152546000908290600080516020611a128339815191529082106107fe57604051631a3973a960e01b815260040160405180910390fd5b600080516020611a328339815191528054600080516020611a12833981519152919086908110610830576108306116e9565b9060005260206000209060040201600201549350505050919050565b610854610bd3565b6001600160a01b0316336001600160a01b03161461088557604051632f7a8ee160e01b815260040160405180910390fd5b600080516020611a32833981519152548190600080516020611a128339815191529082106108c657604051631a3973a960e01b815260040160405180910390fd5b600080516020611a328339815191528054600080516020611a12833981519152918691869081106108f9576108f96116e9565b9060005260206000209060040201600301819055505050505050565b61091d610bd3565b6001600160a01b0316336001600160a01b03161461094e57604051632f7a8ee160e01b815260040160405180910390fd5b600080516020611a32833981519152548190600080516020611a1283398151915290821061098f57604051631a3973a960e01b815260040160405180910390fd5b600080516020611a328339815191528054600080516020611a12833981519152918691869081106109c2576109c26116e9565b9060005260206000209060040201600201819055505050505050565b7fc8fcad8db84d3cc18b4c41d551ea0ee66dd599cde068d998e57d5e09332c1320547fc8fcad8db84d3cc18b4c41d551ea0ee66dd599cde068d998e57d5e09332c131c906001600160a01b03163314610a4a5760405163511cd8ed60e01b815260040160405180910390fd5b50565b7f68721c0bbf2c02a4d65000340d1370666be06a630022208d4baa9bd7a4b6fea85460ff1615610a90576040516302ca8ced60e11b815260040160405180910390fd5b6040805133815234602082015281517f2f0e6a593a089007647f3882f40330070569292cc3d7e2a73800c263f213916b927f6ef95f06320e7a25a04a175ca677b7052bdd97131872c2192525a629f51be770928290030190a16007810154610100900460ff1615610b0357610b03610da8565b610b0d8383610dba565b505050565b60008281527fd71f56830ccd643bda4d966483f496c024b01867c423fce4b51d4352a075440060205260408120546000805160206119f283398151915291819003610b6f5760405162d5815360e01b815260040160405180910390fd5b6000938452600490910160205260409092206001600160e81b039290921660e89190911b179055565b600081620f4240610ba7610edc565b610bb19190611762565b610bc390670de0b6b3a7640000611762565b610bcd9190611784565b92915050565b7f8a22373512790c48b83a1fe2efdd2888d4a917bcdc24d0adf63e60f671680460546001600160a01b031690565b7f8a22373512790c48b83a1fe2efdd2888d4a917bcdc24d0adf63e60f671680460546000805160206119f283398151915290600080516020611a12833981519152906001600160a01b03163314610c9a5760405162461bcd60e51b815260206004820152601c60248201527f4f6e6c79206f776e65722063616e2063726561746545646974696f6e0000000060448201526064016105e0565b805460ff16610cbc576040516332b5467d60e01b815260040160405180910390fd5b8451600003610cde57604051636cc61e7360e11b815260040160405180910390fd5b600180820180546040805160808101825289815260208082018a9052600092820183905260608201899052948301845592815292909220815182916004850201908190610d2b90826117f7565b506020820151816001015560408201518160020155606082015181600301555050858460090154610d5c9190611715565b60098501556040517f33c6c263146bd4d0ad841ad056195e1d850498744c31c4909de8f885db3987bd90610d979084908a9089908b906118db565b60405180910390a150505050505050565b610db0610f59565b610db8610fbc565b565b6000805160206119f283398151915280546000839003610ded5760405163b562e8dd60e01b815260040160405180910390fd5b610dfa6000858386611177565b6001600160a01b0384166000818152600584016020908152604080832080546801000000000000000189020190558483526004860190915281206001861460e11b4260a01b178317905582850190839083907fddf252ad1be2c89b69c2b068fc378daa952ba7f163c4a11628f55a4df523b3ef8180a4600183015b818114610ead57808360007fddf252ad1be2c89b69c2b068fc378daa952ba7f163c4a11628f55a4df523b3ef600080a4600101610e75565b5081600003610ece57604051622e076360e81b815260040160405180910390fd5b835550610672600085838684565b600080610ee76111f6565b90506000816001600160a01b031663feaf968c6040518163ffffffff1660e01b815260040160a060405180830381865afa158015610f29573d6000803e3d6000fd5b505050506040513d601f19601f82011682018060405250810190610f4d9190611943565b50919695505050505050565b6000610f63611201565b9050806001600160a01b031663d0e30db0346040518263ffffffff1660e01b81526004016000604051808303818588803b158015610fa057600080fd5b505af1158015610fb4573d6000803e3d6000fd5b505050505050565b6000610fc6611299565b90506000610fd2611201565b6040516370a0823160e01b81523060048201529091506000906001600160a01b038316906370a0823190602401602060405180830381865afa15801561101c573d6000803e3d6000fd5b505050506040513d601f19601f820116820180604052508101906110409190611993565b9050610bb86110518330808561132e565b6110708373e592427a0aece92de3edee1f18e0157c0586156484611430565b60408051610100810182526001600160a01b0385811682528681166020830190815262ffffff8581168486019081523060608601908152426080870190815260a087018a8152600060c0890181815260e08a01918252995163414bf38960e01b815289518916600482015296518816602488015293519094166044860152905185166064850152516084840152905160a4830152935160c482015292511660e48301529073e592427a0aece92de3edee1f18e0157c058615649063414bf38990610104016020604051808303816000875af1158015611153573d6000803e3d6000fd5b505050506040513d601f19601f82011682018060405250810190610fb49190611993565b7fd71f56830ccd643bda4d966483f496c024b01867c423fce4b51d4352a075440a546000805160206119f28339815191529060ff16156111ef576001600160a01b038516158015906111d157506001600160a01b03841615155b156111ef576040516358b2164f60e11b815260040160405180910390fd5b5050505050565b600080610bcd611529565b600060014614806112135750617a6946145b15611231575073c02aaa39b223fe8d0a0e5c4f27ead9083c756cc290565b608946036112525750737ceb23fd6bc0add59e62ac25578270cff1b9f61990565b60054603611273575073b4fbf271143f4fbf7b91a5ded31805e42b2208d690565b620138814603611296575073a6fa4fb5f76172d178d61b04b0ecd319c5d1c0aa90565b90565b600060014614806112ab5750617a6946145b156112c9575073a0b86991c6218b36c1d19d4a2e9eb0ce3606eb4890565b608946036112ea5750732791bca1f2de4661ed88a30c99a7a9449aa8417490565b6005460361130b57507398339d8c260052b7ad81c28c16c0b98420f2b46a90565b620138814603611296575073feca406da9727a25e71e732f9961f680059ef1f990565b604080516001600160a01b0385811660248301528481166044830152606480830185905283518084039091018152608490920183526020820180516001600160e01b03166323b872dd60e01b179052915160009283929088169161139291906119ac565b6000604051808303816000865af19150503d80600081146113cf576040519150601f19603f3d011682016040523d82523d6000602084013e6113d4565b606091505b50915091508180156113fe5750805115806113fe5750808060200190518101906113fe91906119c8565b610fb45760405162461bcd60e51b815260206004820152600360248201526229aa2360e91b60448201526064016105e0565b604080516001600160a01b038481166024830152604480830185905283518084039091018152606490920183526020820180516001600160e01b031663095ea7b360e01b179052915160009283929087169161148c91906119ac565b6000604051808303816000865af19150503d80600081146114c9576040519150601f19603f3d011682016040523d82523d6000602084013e6114ce565b606091505b50915091508180156114f85750805115806114f85750808060200190518101906114f891906119c8565b6111ef5760405162461bcd60e51b8152602060048201526002602482015261534160f01b60448201526064016105e0565b600046600181148061153c5750617a6981145b1561155c57735f4ec3df9cbd43714fe2740f5e3616155c5b841991505090565b6004810361157f57738a753747a1fa494ec906ce90e9f37563a8af630e91505090565b600581036115a25773d4a33860578de61dbabdc8bfdb98fd742fa7028e91505090565b608981036115c55773ab594600376ec9fd91f8e885dadf0ce036862de091505090565b6201388181036115ea5773d0d5e3db44de05e9f294bb0a3beeaf030de24ada91505090565b5090565b60008060006060848603121561160357600080fd5b83356001600160a01b038116811461161a57600080fd5b95602085013595506040909401359392505050565b60006020828403121561164157600080fd5b5035919050565b6000806040838503121561165b57600080fd5b50508035926020909101359150565b6000806000806060858703121561168057600080fd5b843567ffffffffffffffff8082111561169857600080fd5b818701915087601f8301126116ac57600080fd5b8135818111156116bb57600080fd5b8860208285010111156116cd57600080fd5b6020928301999098509187013596604001359550909350505050565b634e487b7160e01b600052603260045260246000fd5b634e487b7160e01b600052601160045260246000fd5b80820180821115610bcd57610bcd6116ff565b600181811c9082168061173c57607f821691505b60208210810361175c57634e487b7160e01b600052602260045260246000fd5b50919050565b60008261177f57634e487b7160e01b600052601260045260246000fd5b500490565b8082028115828204841417610bcd57610bcd6116ff565b634e487b7160e01b600052604160045260246000fd5b601f821115610b0d57600081815260208120601f850160051c810160208610156117d85750805b601f850160051c820191505b81811015610fb4578281556001016117e4565b815167ffffffffffffffff8111156118115761181161179b565b6118258161181f8454611728565b846117b1565b602080601f83116001811461185a57600084156118425750858301515b600019600386901b1c1916600185901b178555610fb4565b600085815260208120601f198616915b828110156118895788860151825594840194600190910190840161186a565b50858210156118a75787850151600019600388901b60f8161c191681555b5050505050600190811b01905550565b60005b838110156118d25781810151838201526020016118ba565b50506000910152565b84815260806020820152600084518060808401526119008160a08501602089016118b7565b604083019490945250606081019190915260a0601f909201601f1916010192915050565b805169ffffffffffffffffffff8116811461193e57600080fd5b919050565b600080600080600060a0868803121561195b57600080fd5b61196486611924565b945060208601519350604086015192506060860151915061198760808701611924565b90509295509295909350565b6000602082840312156119a557600080fd5b5051919050565b600082516119be8184602087016118b7565b9190910192915050565b6000602082840312156119da57600080fd5b815180151581146119ea57600080fd5b939250505056fed71f56830ccd643bda4d966483f496c024b01867c423fce4b51d4352a07543fc22f7a7bee1f0ff7ad985b3310523bd6e78af9b5dd151f1710f5f1cd082ec691722f7a7bee1f0ff7ad985b3310523bd6e78af9b5dd151f1710f5f1cd082ec6918a26469706673582212203db2a0a1b6679e7e59b98568adde28cc15af053215a68077fcd1ee4598bde9bb64736f6c63430008140033",
    "linkReferences": {}
  },
  "methodIdentifiers": {
    "createEdition(string,uint256,uint256)": "4d6d50fb",
    "enableEditions()": "a1d4afa2",
    "maxSupply(uint256)": "869f7594",
    "mint(address,uint256,uint256)": "156e29f6",
    "price(uint256)": "26a49e37",
    "setMaxSupply(uint256,uint256)": "37da577c",
    "setPrice(uint256,uint256)": "f7d97577",
    "totalSupply(uint256)": "bd85b039",
    "updateTotalSupply(uint256,uint256)": "f8b4ab7a"
  },
  "id": 19
}