{
  "abi": [
    {
      "inputs": [],
      "name": "OPERATOR_FILTER_REGISTRY",
      "outputs": [
        {
          "internalType": "address",
          "name": "",
          "type": "address"
        }
      ],
      "stateMutability": "view",
      "type": "function"
    },
    {
      "inputs": [],
      "name": "__transitiveOwner",
      "outputs": [
        {
          "internalType": "address",
          "name": "",
          "type": "address"
        }
      ],
      "stateMutability": "view",
      "type": "function"
    },
    {
      "inputs": [
        {
          "internalType": "uint256",
          "name": "id",
          "type": "uint256"
        }
      ],
      "name": "accountsByToken",
      "outputs": [
        {
          "internalType": "address[]",
          "name": "",
          "type": "address[]"
        }
      ],
      "stateMutability": "view",
      "type": "function"
    },
    {
      "inputs": [
        {
          "internalType": "address",
          "name": "account",
          "type": "address"
        },
        {
          "internalType": "uint256",
          "name": "shares_",
          "type": "uint256"
        }
      ],
      "name": "addPayee",
      "outputs": [],
      "stateMutability": "nonpayable",
      "type": "function"
    },
    {
      "inputs": [
        {
          "internalType": "uint256",
          "name": "tokenId",
          "type": "uint256"
        },
        {
          "internalType": "address",
          "name": "account",
          "type": "address"
        }
      ],
      "name": "addToAllowList",
      "outputs": [],
      "stateMutability": "nonpayable",
      "type": "function"
    },
    {
      "inputs": [
        {
          "internalType": "uint256",
          "name": "tokenId",
          "type": "uint256"
        },
        {
          "internalType": "address[]",
          "name": "accounts",
          "type": "address[]"
        },
        {
          "internalType": "uint256",
          "name": "allowance",
          "type": "uint256"
        }
      ],
      "name": "addToAllowList",
      "outputs": [],
      "stateMutability": "nonpayable",
      "type": "function"
    },
    {
      "inputs": [
        {
          "internalType": "uint256",
          "name": "tokenId",
          "type": "uint256"
        },
        {
          "internalType": "address",
          "name": "account",
          "type": "address"
        },
        {
          "internalType": "uint256",
          "name": "allowance",
          "type": "uint256"
        },
        {
          "internalType": "uint256",
          "name": "allowTime",
          "type": "uint256"
        }
      ],
      "name": "addToAllowList",
      "outputs": [],
      "stateMutability": "nonpayable",
      "type": "function"
    },
    {
      "inputs": [
        {
          "internalType": "uint256",
          "name": "tokenId",
          "type": "uint256"
        },
        {
          "internalType": "address[]",
          "name": "accounts",
          "type": "address[]"
        }
      ],
      "name": "addToAllowList",
      "outputs": [],
      "stateMutability": "nonpayable",
      "type": "function"
    },
    {
      "inputs": [
        {
          "internalType": "uint256",
          "name": "tokenId",
          "type": "uint256"
        },
        {
          "internalType": "address",
          "name": "account",
          "type": "address"
        },
        {
          "internalType": "uint256",
          "name": "allowance",
          "type": "uint256"
        }
      ],
      "name": "addToAllowList",
      "outputs": [],
      "stateMutability": "nonpayable",
      "type": "function"
    },
    {
      "inputs": [
        {
          "internalType": "uint256",
          "name": "tokenId",
          "type": "uint256"
        },
        {
          "internalType": "address[]",
          "name": "accounts",
          "type": "address[]"
        },
        {
          "internalType": "uint256",
          "name": "allowance",
          "type": "uint256"
        },
        {
          "internalType": "uint256",
          "name": "allowTime",
          "type": "uint256"
        }
      ],
      "name": "addToAllowList",
      "outputs": [],
      "stateMutability": "nonpayable",
      "type": "function"
    },
    {
      "inputs": [
        {
          "internalType": "uint256",
          "name": "_tokenId",
          "type": "uint256"
        }
      ],
      "name": "allowList",
      "outputs": [
        {
          "components": [
            {
              "internalType": "address",
              "name": "account",
              "type": "address"
            },
            {
              "internalType": "uint256",
              "name": "allowance",
              "type": "uint256"
            }
          ],
          "internalType": "struct DummyDiamond1155Implementation.Tuple576603[]",
          "name": "allowListMap",
          "type": "tuple[]"
        }
      ],
      "stateMutability": "view",
      "type": "function"
    },
    {
      "inputs": [
        {
          "internalType": "uint256",
          "name": "tokenId",
          "type": "uint256"
        },
        {
          "internalType": "address",
          "name": "account",
          "type": "address"
        }
      ],
      "name": "allowListContains",
      "outputs": [
        {
          "internalType": "bool",
          "name": "contains",
          "type": "bool"
        }
      ],
      "stateMutability": "view",
      "type": "function"
    },
    {
      "inputs": [
        {
          "internalType": "uint256",
          "name": "_tokenId",
          "type": "uint256"
        }
      ],
      "name": "allowListEnabled",
      "outputs": [
        {
          "internalType": "bool",
          "name": "enabled",
          "type": "bool"
        }
      ],
      "stateMutability": "view",
      "type": "function"
    },
    {
      "inputs": [
        {
          "internalType": "address",
          "name": "account",
          "type": "address"
        },
        {
          "internalType": "uint256",
          "name": "id",
          "type": "uint256"
        }
      ],
      "name": "balanceOf",
      "outputs": [
        {
          "internalType": "uint256",
          "name": "",
          "type": "uint256"
        }
      ],
      "stateMutability": "view",
      "type": "function"
    },
    {
      "inputs": [
        {
          "internalType": "address[]",
          "name": "accounts",
          "type": "address[]"
        },
        {
          "internalType": "uint256[]",
          "name": "ids",
          "type": "uint256[]"
        }
      ],
      "name": "balanceOfBatch",
      "outputs": [
        {
          "internalType": "uint256[]",
          "name": "",
          "type": "uint256[]"
        }
      ],
      "stateMutability": "view",
      "type": "function"
    },
    {
      "inputs": [
        {
          "internalType": "uint256",
          "name": "_amount",
          "type": "uint256"
        },
        {
          "components": [
            {
              "internalType": "uint256",
              "name": "maxSupply",
              "type": "uint256"
            },
            {
              "internalType": "uint256",
              "name": "price",
              "type": "uint256"
            },
            {
              "internalType": "address",
              "name": "creator",
              "type": "address"
            },
            {
              "internalType": "string",
              "name": "tokenUri",
              "type": "string"
            },
            {
              "internalType": "bool",
              "name": "allowListEnabled",
              "type": "bool"
            },
            {
              "internalType": "uint256",
              "name": "startTime",
              "type": "uint256"
            },
            {
              "internalType": "bool",
              "name": "isCrossmintUSDC",
              "type": "bool"
            }
          ],
          "internalType": "struct DummyDiamond1155Implementation.Tuple800840",
          "name": "_tokenData",
          "type": "tuple"
        }
      ],
      "name": "batchCreate",
      "outputs": [
        {
          "internalType": "bool",
          "name": "success",
          "type": "bool"
        }
      ],
      "stateMutability": "nonpayable",
      "type": "function"
    },
    {
      "inputs": [
        {
          "components": [
            {
              "internalType": "uint256",
              "name": "maxSupply",
              "type": "uint256"
            },
            {
              "internalType": "uint256",
              "name": "price",
              "type": "uint256"
            },
            {
              "internalType": "address",
              "name": "creator",
              "type": "address"
            },
            {
              "internalType": "string",
              "name": "tokenUri",
              "type": "string"
            },
            {
              "internalType": "bool",
              "name": "allowListEnabled",
              "type": "bool"
            },
            {
              "internalType": "uint256",
              "name": "startTime",
              "type": "uint256"
            },
            {
              "internalType": "bool",
              "name": "isCrossmintUSDC",
              "type": "bool"
            }
          ],
          "internalType": "struct DummyDiamond1155Implementation.Tuple2548212[]",
          "name": "_tokenData",
          "type": "tuple[]"
        }
      ],
      "name": "batchCreate",
      "outputs": [
        {
          "internalType": "bool",
          "name": "success",
          "type": "bool"
        }
      ],
      "stateMutability": "nonpayable",
      "type": "function"
    },
    {
      "inputs": [
        {
          "internalType": "address",
          "name": "account",
          "type": "address"
        },
        {
          "internalType": "uint256",
          "name": "id",
          "type": "uint256"
        },
        {
          "internalType": "uint256",
          "name": "amount",
          "type": "uint256"
        }
      ],
      "name": "burn",
      "outputs": [],
      "stateMutability": "nonpayable",
      "type": "function"
    },
    {
      "inputs": [],
      "name": "contractURI",
      "outputs": [
        {
          "internalType": "string",
          "name": "",
          "type": "string"
        }
      ],
      "stateMutability": "view",
      "type": "function"
    },
    {
      "inputs": [
        {
          "components": [
            {
              "internalType": "uint256",
              "name": "maxSupply",
              "type": "uint256"
            },
            {
              "internalType": "uint256",
              "name": "price",
              "type": "uint256"
            },
            {
              "internalType": "address",
              "name": "creator",
              "type": "address"
            },
            {
              "internalType": "string",
              "name": "tokenUri",
              "type": "string"
            },
            {
              "internalType": "bool",
              "name": "allowListEnabled",
              "type": "bool"
            },
            {
              "internalType": "uint256",
              "name": "startTime",
              "type": "uint256"
            },
            {
              "internalType": "bool",
              "name": "isCrossmintUSDC",
              "type": "bool"
            }
          ],
          "internalType": "struct DummyDiamond1155Implementation.Tuple800840",
          "name": "_tokenData",
          "type": "tuple"
        }
      ],
      "name": "create",
      "outputs": [
        {
          "internalType": "uint256",
          "name": "_id",
          "type": "uint256"
        }
      ],
      "stateMutability": "nonpayable",
      "type": "function"
    },
    {
      "inputs": [
        {
          "internalType": "address",
          "name": "account",
          "type": "address"
        },
        {
          "internalType": "uint256",
          "name": "id",
          "type": "uint256"
        },
        {
          "internalType": "uint256",
          "name": "amount",
          "type": "uint256"
        }
      ],
      "name": "crossmintMint",
      "outputs": [],
      "stateMutability": "nonpayable",
      "type": "function"
    },
    {
      "inputs": [
        {
          "internalType": "address",
          "name": "account",
          "type": "address"
        },
        {
          "internalType": "uint256",
          "name": "packId",
          "type": "uint256"
        },
        {
          "internalType": "uint256",
          "name": "amount",
          "type": "uint256"
        }
      ],
      "name": "crossmintPackMint",
      "outputs": [],
      "stateMutability": "nonpayable",
      "type": "function"
    },
    {
      "inputs": [
        {
          "components": [
            {
              "internalType": "address",
              "name": "facetAddress",
              "type": "address"
            },
            {
              "internalType": "uint8",
              "name": "action",
              "type": "uint8"
            },
            {
              "internalType": "bytes4[]",
              "name": "functionSelectors",
              "type": "bytes4[]"
            }
          ],
          "internalType": "struct DummyDiamond1155Implementation.Tuple6871229[]",
          "name": "_diamondCut",
          "type": "tuple[]"
        },
        {
          "internalType": "address",
          "name": "_init",
          "type": "address"
        },
        {
          "internalType": "bytes",
          "name": "_calldata",
          "type": "bytes"
        }
      ],
      "name": "diamondCut",
      "outputs": [],
      "stateMutability": "nonpayable",
      "type": "function"
    },
    {
      "inputs": [
        {
          "internalType": "uint256",
          "name": "_tokenId",
          "type": "uint256"
        }
      ],
      "name": "disableAllowList",
      "outputs": [],
      "stateMutability": "nonpayable",
      "type": "function"
    },
    {
      "inputs": [
        {
          "internalType": "uint256",
          "name": "_tokenId",
          "type": "uint256"
        }
      ],
      "name": "enableAllowList",
      "outputs": [],
      "stateMutability": "nonpayable",
      "type": "function"
    },
    {
      "inputs": [
        {
          "internalType": "uint256",
          "name": "_tokenId",
          "type": "uint256"
        }
      ],
      "name": "exists",
      "outputs": [
        {
          "internalType": "bool",
          "name": "",
          "type": "bool"
        }
      ],
      "stateMutability": "view",
      "type": "function"
    },
    {
      "inputs": [
        {
          "internalType": "bytes4",
          "name": "_functionSelector",
          "type": "bytes4"
        }
      ],
      "name": "facetAddress",
      "outputs": [
        {
          "internalType": "address",
          "name": "facetAddress_",
          "type": "address"
        }
      ],
      "stateMutability": "view",
      "type": "function"
    },
    {
      "inputs": [],
      "name": "facetAddresses",
      "outputs": [
        {
          "internalType": "address[]",
          "name": "facetAddresses_",
          "type": "address[]"
        }
      ],
      "stateMutability": "view",
      "type": "function"
    },
    {
      "inputs": [
        {
          "internalType": "address",
          "name": "_facet",
          "type": "address"
        }
      ],
      "name": "facetFunctionSelectors",
      "outputs": [
        {
          "internalType": "bytes4[]",
          "name": "_facetFunctionSelectors",
          "type": "bytes4[]"
        }
      ],
      "stateMutability": "view",
      "type": "function"
    },
    {
      "inputs": [],
      "name": "facets",
      "outputs": [
        {
          "components": [
            {
              "internalType": "address",
              "name": "facetAddress",
              "type": "address"
            },
            {
              "internalType": "bytes4[]",
              "name": "functionSelectors",
              "type": "bytes4[]"
            }
          ],
          "internalType": "struct DummyDiamond1155Implementation.Tuple1236461[]",
          "name": "facets_",
          "type": "tuple[]"
        }
      ],
      "stateMutability": "view",
      "type": "function"
    },
    {
      "inputs": [],
      "name": "implementation",
      "outputs": [
        {
          "internalType": "address",
          "name": "",
          "type": "address"
        }
      ],
      "stateMutability": "view",
      "type": "function"
    },
    {
      "inputs": [
        {
          "internalType": "address",
          "name": "account",
          "type": "address"
        },
        {
          "internalType": "address",
          "name": "operator",
          "type": "address"
        }
      ],
      "name": "isApprovedForAll",
      "outputs": [
        {
          "internalType": "bool",
          "name": "",
          "type": "bool"
        }
      ],
      "stateMutability": "view",
      "type": "function"
    },
    {
      "inputs": [
        {
          "internalType": "uint256",
          "name": "_id",
          "type": "uint256"
        }
      ],
      "name": "maxSupply",
      "outputs": [
        {
          "internalType": "uint256",
          "name": "",
          "type": "uint256"
        }
      ],
      "stateMutability": "view",
      "type": "function"
    },
    {
      "inputs": [
        {
          "internalType": "address",
          "name": "account",
          "type": "address"
        },
        {
          "internalType": "uint256",
          "name": "id",
          "type": "uint256"
        },
        {
          "internalType": "uint256",
          "name": "amount",
          "type": "uint256"
        }
      ],
      "name": "mint",
      "outputs": [],
      "stateMutability": "payable",
      "type": "function"
    },
    {
      "inputs": [
        {
          "internalType": "address[]",
          "name": "accounts",
          "type": "address[]"
        },
        {
          "internalType": "uint256",
          "name": "id",
          "type": "uint256"
        },
        {
          "internalType": "uint256",
          "name": "amount",
          "type": "uint256"
        }
      ],
      "name": "mint",
      "outputs": [],
      "stateMutability": "nonpayable",
      "type": "function"
    },
    {
      "inputs": [
        {
          "internalType": "address",
          "name": "account",
          "type": "address"
        },
        {
          "internalType": "uint256",
          "name": "id",
          "type": "uint256"
        },
        {
          "internalType": "uint256",
          "name": "amount",
          "type": "uint256"
        },
        {
          "internalType": "uint8",
          "name": "mintType",
          "type": "uint8"
        }
      ],
      "name": "mint",
      "outputs": [],
      "stateMutability": "nonpayable",
      "type": "function"
    },
    {
      "inputs": [],
      "name": "name",
      "outputs": [
        {
          "internalType": "string",
          "name": "",
          "type": "string"
        }
      ],
      "stateMutability": "view",
      "type": "function"
    },
    {
      "inputs": [],
      "name": "owner",
      "outputs": [
        {
          "internalType": "address",
          "name": "",
          "type": "address"
        }
      ],
      "stateMutability": "view",
      "type": "function"
    },
    {
      "inputs": [
        {
          "internalType": "uint256[]",
          "name": "_tokenIds",
          "type": "uint256[]"
        },
        {
          "internalType": "uint256",
          "name": "_price",
          "type": "uint256"
        },
        {
          "internalType": "uint256",
          "name": "_startTime",
          "type": "uint256"
        }
      ],
      "name": "packCreate",
      "outputs": [],
      "stateMutability": "nonpayable",
      "type": "function"
    },
    {
      "inputs": [
        {
          "internalType": "address",
          "name": "account",
          "type": "address"
        },
        {
          "internalType": "uint256",
          "name": "packId",
          "type": "uint256"
        },
        {
          "internalType": "uint256",
          "name": "amount",
          "type": "uint256"
        }
      ],
      "name": "packMint",
      "outputs": [],
      "stateMutability": "payable",
      "type": "function"
    },
    {
      "inputs": [
        {
          "internalType": "uint256",
          "name": "_packId",
          "type": "uint256"
        }
      ],
      "name": "packPrice",
      "outputs": [
        {
          "internalType": "uint256",
          "name": "",
          "type": "uint256"
        }
      ],
      "stateMutability": "view",
      "type": "function"
    },
    {
      "inputs": [
        {
          "internalType": "uint256",
          "name": "_packId",
          "type": "uint256"
        }
      ],
      "name": "packStartTime",
      "outputs": [
        {
          "internalType": "uint256",
          "name": "",
          "type": "uint256"
        }
      ],
      "stateMutability": "view",
      "type": "function"
    },
    {
      "inputs": [
        {
          "internalType": "uint256",
          "name": "_packId",
          "type": "uint256"
        }
      ],
      "name": "packTokenIds",
      "outputs": [
        {
          "internalType": "uint256[]",
          "name": "",
          "type": "uint256[]"
        }
      ],
      "stateMutability": "view",
      "type": "function"
    },
    {
      "inputs": [],
      "name": "pause",
      "outputs": [],
      "stateMutability": "nonpayable",
      "type": "function"
    },
    {
      "inputs": [],
      "name": "paused",
      "outputs": [
        {
          "internalType": "bool",
          "name": "",
          "type": "bool"
        }
      ],
      "stateMutability": "view",
      "type": "function"
    },
    {
      "inputs": [
        {
          "internalType": "uint256",
          "name": "index",
          "type": "uint256"
        }
      ],
      "name": "payee",
      "outputs": [
        {
          "internalType": "address",
          "name": "",
          "type": "address"
        }
      ],
      "stateMutability": "view",
      "type": "function"
    },
    {
      "inputs": [
        {
          "internalType": "uint256",
          "name": "_id",
          "type": "uint256"
        }
      ],
      "name": "price",
      "outputs": [
        {
          "internalType": "uint256",
          "name": "",
          "type": "uint256"
        }
      ],
      "stateMutability": "view",
      "type": "function"
    },
    {
      "inputs": [
        {
          "internalType": "address",
          "name": "account",
          "type": "address"
        }
      ],
      "name": "releasable",
      "outputs": [
        {
          "internalType": "uint256",
          "name": "",
          "type": "uint256"
        }
      ],
      "stateMutability": "view",
      "type": "function"
    },
    {
      "inputs": [
        {
          "internalType": "address",
          "name": "token",
          "type": "address"
        },
        {
          "internalType": "address",
          "name": "account",
          "type": "address"
        }
      ],
      "name": "releasable",
      "outputs": [
        {
          "internalType": "uint256",
          "name": "",
          "type": "uint256"
        }
      ],
      "stateMutability": "view",
      "type": "function"
    },
    {
      "inputs": [
        {
          "internalType": "address",
          "name": "account",
          "type": "address"
        }
      ],
      "name": "release",
      "outputs": [],
      "stateMutability": "nonpayable",
      "type": "function"
    },
    {
      "inputs": [
        {
          "internalType": "address",
          "name": "token",
          "type": "address"
        },
        {
          "internalType": "address",
          "name": "account",
          "type": "address"
        }
      ],
      "name": "release",
      "outputs": [],
      "stateMutability": "nonpayable",
      "type": "function"
    },
    {
      "inputs": [
        {
          "internalType": "address",
          "name": "token",
          "type": "address"
        },
        {
          "internalType": "address",
          "name": "account",
          "type": "address"
        }
      ],
      "name": "released",
      "outputs": [
        {
          "internalType": "uint256",
          "name": "",
          "type": "uint256"
        }
      ],
      "stateMutability": "view",
      "type": "function"
    },
    {
      "inputs": [
        {
          "internalType": "address",
          "name": "account",
          "type": "address"
        }
      ],
      "name": "released",
      "outputs": [
        {
          "internalType": "uint256",
          "name": "",
          "type": "uint256"
        }
      ],
      "stateMutability": "view",
      "type": "function"
    },
    {
      "inputs": [
        {
          "internalType": "uint256",
          "name": "tokenId",
          "type": "uint256"
        },
        {
          "internalType": "address",
          "name": "account",
          "type": "address"
        }
      ],
      "name": "removeFromAllowList",
      "outputs": [],
      "stateMutability": "nonpayable",
      "type": "function"
    },
    {
      "inputs": [
        {
          "internalType": "uint256",
          "name": "tokenId",
          "type": "uint256"
        },
        {
          "internalType": "address[]",
          "name": "accounts",
          "type": "address[]"
        }
      ],
      "name": "removeFromAllowList",
      "outputs": [],
      "stateMutability": "nonpayable",
      "type": "function"
    },
    {
      "inputs": [
        {
          "internalType": "uint256",
          "name": "tokenId",
          "type": "uint256"
        },
        {
          "internalType": "uint256",
          "name": "salePrice",
          "type": "uint256"
        }
      ],
      "name": "royaltyInfo",
      "outputs": [
        {
          "internalType": "address",
          "name": "",
          "type": "address"
        },
        {
          "internalType": "uint256",
          "name": "",
          "type": "uint256"
        }
      ],
      "stateMutability": "view",
      "type": "function"
    },
    {
      "inputs": [
        {
          "internalType": "address",
          "name": "from",
          "type": "address"
        },
        {
          "internalType": "address",
          "name": "to",
          "type": "address"
        },
        {
          "internalType": "uint256[]",
          "name": "ids",
          "type": "uint256[]"
        },
        {
          "internalType": "uint256[]",
          "name": "amounts",
          "type": "uint256[]"
        },
        {
          "internalType": "bytes",
          "name": "data",
          "type": "bytes"
        }
      ],
      "name": "safeBatchTransferFrom",
      "outputs": [],
      "stateMutability": "nonpayable",
      "type": "function"
    },
    {
      "inputs": [
        {
          "internalType": "address",
          "name": "from",
          "type": "address"
        },
        {
          "internalType": "address",
          "name": "to",
          "type": "address"
        },
        {
          "internalType": "uint256",
          "name": "id",
          "type": "uint256"
        },
        {
          "internalType": "uint256",
          "name": "amount",
          "type": "uint256"
        },
        {
          "internalType": "bytes",
          "name": "data",
          "type": "bytes"
        }
      ],
      "name": "safeTransferFrom",
      "outputs": [],
      "stateMutability": "nonpayable",
      "type": "function"
    },
    {
      "inputs": [
        {
          "internalType": "address",
          "name": "operator",
          "type": "address"
        },
        {
          "internalType": "bool",
          "name": "status",
          "type": "bool"
        }
      ],
      "name": "setApprovalForAll",
      "outputs": [],
      "stateMutability": "nonpayable",
      "type": "function"
    },
    {
      "inputs": [
        {
          "internalType": "uint16",
          "name": "_defaultRoyaltyBPS",
          "type": "uint16"
        },
        {
          "internalType": "address",
          "name": "_defaultRoyalyReceiver",
          "type": "address"
        }
      ],
      "name": "setDefaultRoyalty",
      "outputs": [],
      "stateMutability": "nonpayable",
      "type": "function"
    },
    {
      "inputs": [
        {
          "internalType": "address",
          "name": "_implementation",
          "type": "address"
        }
      ],
      "name": "setDummyImplementation",
      "outputs": [],
      "stateMutability": "nonpayable",
      "type": "function"
    },
    {
      "inputs": [
        {
          "internalType": "uint256",
          "name": "_id",
          "type": "uint256"
        },
        {
          "internalType": "uint256",
          "name": "_maxSupply",
          "type": "uint256"
        }
      ],
      "name": "setMaxSupply",
      "outputs": [],
      "stateMutability": "nonpayable",
      "type": "function"
    },
    {
      "inputs": [
        {
          "internalType": "string",
          "name": "_name",
          "type": "string"
        }
      ],
      "name": "setName",
      "outputs": [],
      "stateMutability": "nonpayable",
      "type": "function"
    },
    {
      "inputs": [
        {
          "internalType": "uint256",
          "name": "_id",
          "type": "uint256"
        },
        {
          "internalType": "uint256",
          "name": "_price",
          "type": "uint256"
        }
      ],
      "name": "setPrice",
      "outputs": [],
      "stateMutability": "nonpayable",
      "type": "function"
    },
    {
      "inputs": [
        {
          "internalType": "uint256",
          "name": "_id",
          "type": "uint256"
        },
        {
          "internalType": "uint256",
          "name": "_startTime",
          "type": "uint256"
        }
      ],
      "name": "setStartTime",
      "outputs": [],
      "stateMutability": "nonpayable",
      "type": "function"
    },
    {
      "inputs": [
        {
          "internalType": "string",
          "name": "_symbol",
          "type": "string"
        }
      ],
      "name": "setSymbol",
      "outputs": [],
      "stateMutability": "nonpayable",
      "type": "function"
    },
    {
      "inputs": [
        {
          "internalType": "uint256",
          "name": "_id",
          "type": "uint256"
        },
        {
          "components": [
            {
              "internalType": "uint256",
              "name": "maxSupply",
              "type": "uint256"
            },
            {
              "internalType": "uint256",
              "name": "price",
              "type": "uint256"
            },
            {
              "internalType": "address",
              "name": "creator",
              "type": "address"
            },
            {
              "internalType": "string",
              "name": "tokenUri",
              "type": "string"
            },
            {
              "internalType": "bool",
              "name": "allowListEnabled",
              "type": "bool"
            },
            {
              "internalType": "uint256",
              "name": "startTime",
              "type": "uint256"
            },
            {
              "internalType": "bool",
              "name": "isCrossmintUSDC",
              "type": "bool"
            }
          ],
          "internalType": "struct DummyDiamond1155Implementation.Tuple800840",
          "name": "_tokenData",
          "type": "tuple"
        }
      ],
      "name": "setTokenData",
      "outputs": [],
      "stateMutability": "nonpayable",
      "type": "function"
    },
    {
      "inputs": [
        {
          "internalType": "address",
          "name": "account",
          "type": "address"
        }
      ],
      "name": "shares",
      "outputs": [
        {
          "internalType": "uint256",
          "name": "",
          "type": "uint256"
        }
      ],
      "stateMutability": "view",
      "type": "function"
    },
    {
      "inputs": [
        {
          "internalType": "uint256",
          "name": "_id",
          "type": "uint256"
        }
      ],
      "name": "startTime",
      "outputs": [
        {
          "internalType": "uint256",
          "name": "",
          "type": "uint256"
        }
      ],
      "stateMutability": "view",
      "type": "function"
    },
    {
      "inputs": [
        {
          "internalType": "bytes4",
          "name": "interfaceId",
          "type": "bytes4"
        }
      ],
      "name": "supportsInterface",
      "outputs": [
        {
          "internalType": "bool",
          "name": "",
          "type": "bool"
        }
      ],
      "stateMutability": "view",
      "type": "function"
    },
    {
      "inputs": [],
      "name": "symbol",
      "outputs": [
        {
          "internalType": "string",
          "name": "",
          "type": "string"
        }
      ],
      "stateMutability": "view",
      "type": "function"
    },
    {
      "inputs": [
        {
          "internalType": "uint256",
          "name": "id",
          "type": "uint256"
        }
      ],
      "name": "tokenData",
      "outputs": [
        {
          "components": [
            {
              "internalType": "uint256",
              "name": "maxSupply",
              "type": "uint256"
            },
            {
              "internalType": "uint256",
              "name": "price",
              "type": "uint256"
            },
            {
              "internalType": "address",
              "name": "creator",
              "type": "address"
            },
            {
              "internalType": "string",
              "name": "tokenUri",
              "type": "string"
            },
            {
              "internalType": "bool",
              "name": "allowListEnabled",
              "type": "bool"
            },
            {
              "internalType": "uint256",
              "name": "startTime",
              "type": "uint256"
            },
            {
              "internalType": "bool",
              "name": "isCrossmintUSDC",
              "type": "bool"
            }
          ],
          "internalType": "struct DummyDiamond1155Implementation.Tuple9790819",
          "name": "",
          "type": "tuple"
        }
      ],
      "stateMutability": "view",
      "type": "function"
    },
    {
      "inputs": [
        {
          "internalType": "address",
          "name": "account",
          "type": "address"
        }
      ],
      "name": "tokensByAccount",
      "outputs": [
        {
          "internalType": "uint256[]",
          "name": "",
          "type": "uint256[]"
        }
      ],
      "stateMutability": "view",
      "type": "function"
    },
    {
      "inputs": [
        {
          "internalType": "uint256",
          "name": "id",
          "type": "uint256"
        }
      ],
      "name": "totalHolders",
      "outputs": [
        {
          "internalType": "uint256",
          "name": "",
          "type": "uint256"
        }
      ],
      "stateMutability": "view",
      "type": "function"
    },
    {
      "inputs": [
        {
          "internalType": "address",
          "name": "token",
          "type": "address"
        }
      ],
      "name": "totalReleased",
      "outputs": [
        {
          "internalType": "uint256",
          "name": "",
          "type": "uint256"
        }
      ],
      "stateMutability": "view",
      "type": "function"
    },
    {
      "inputs": [],
      "name": "totalReleased",
      "outputs": [
        {
          "internalType": "uint256",
          "name": "",
          "type": "uint256"
        }
      ],
      "stateMutability": "view",
      "type": "function"
    },
    {
      "inputs": [],
      "name": "totalShares",
      "outputs": [
        {
          "internalType": "uint256",
          "name": "",
          "type": "uint256"
        }
      ],
      "stateMutability": "view",
      "type": "function"
    },
    {
      "inputs": [
        {
          "internalType": "uint256",
          "name": "id",
          "type": "uint256"
        }
      ],
      "name": "totalSupply",
      "outputs": [
        {
          "internalType": "uint256",
          "name": "",
          "type": "uint256"
        }
      ],
      "stateMutability": "view",
      "type": "function"
    },
    {
      "inputs": [
        {
          "internalType": "address",
          "name": "account",
          "type": "address"
        }
      ],
      "name": "transferOwnership",
      "outputs": [],
      "stateMutability": "nonpayable",
      "type": "function"
    },
    {
      "inputs": [],
      "name": "unpause",
      "outputs": [],
      "stateMutability": "nonpayable",
      "type": "function"
    },
    {
      "inputs": [
        {
          "internalType": "address",
          "name": "_newPayee",
          "type": "address"
        }
      ],
      "name": "updatePaymentSplitterAddress",
      "outputs": [
        {
          "internalType": "bool",
          "name": "success",
          "type": "bool"
        }
      ],
      "stateMutability": "nonpayable",
      "type": "function"
    },
    {
      "inputs": [
        {
          "internalType": "uint256",
          "name": "tokenId",
          "type": "uint256"
        }
      ],
      "name": "uri",
      "outputs": [
        {
          "internalType": "string",
          "name": "",
          "type": "string"
        }
      ],
      "stateMutability": "view",
      "type": "function"
    }
  ],
  "bytecode": {
    "object": "0x608060405234801561001057600080fd5b50611888806100206000396000f3fe6080604052600436106104885760003560e01c80637a0ed62711610255578063bd0ae7d711610144578063d79779b2116100c1578063f2d80bd311610085578063f2d80bd314610aad578063f2fde38b146105d2578063f5298aca14610532578063f7d9757714610698578063fd69960714610ac8578063fef9cf9b14610ae357600080fd5b8063d79779b214610913578063e33b7de3146106b3578063e8a3d48514610515578063e985e9c514610a77578063f242432a14610a9257600080fd5b8063c47f002711610108578063c47f0027146109f0578063cdffacc614610a26578063ce7c2ac214610913578063d65795c314610a41578063d6b9605014610a5c57600080fd5b8063bd0ae7d71461058e578063bd85b0391461058e578063be8c592214610a0b578063c39aa07d146105d2578063c45ac050146106d357600080fd5b806398ecc01a116101d2578063aeed04a611610196578063aeed04a614610971578063afa71cb81461088b578063b4b5b48f1461098c578063b84c8246146109f0578063ba278e081461069857600080fd5b806398ecc01a146107fe5780639c66762614610754578063a22cb4651461092e578063a3f8eace14610913578063adfca15e1461094957600080fd5b8063869f759411610219578063869f75941461058e5780638b83209b146108f85780638da5cb5b1461067057806395d89b41146105155780639852595c1461091357600080fd5b80637a0ed627146108a657806384207565146105525780638456cb59146106c75780638560198b146108c257806385bff2e7146108dd57600080fd5b8063406072a91161037c5780635c60da1b116102f957806366d94381116102bd57806366d94381146105a957806367b7b23f146108195780636dcfd841146108345780636e09dd161461084f5780637958bc8c1461087057806379857c231461088b57600080fd5b80635c60da1b146106705780635c975abb146107c257806362a6d197146107d65780636451f53d14610532578063666f198d146107fe57600080fd5b80634e1273f4116103405780634e1273f4146107245780634f558e791461075457806352ef6b2c1461076f5780635675a6191461078c57806359bd6ff4146107a757600080fd5b8063406072a9146106d357806341f434341461067057806342f0f4131461058e57806348b75044146106ee5780634acae91f1461070957600080fd5b8063191655871161040a5780633344ca2e116103ce5780633344ca2e1461067057806337da577c146106985780633a98ef39146106b35780633ec4c9681461058e5780633f4ba83a146106c757600080fd5b806319165587146105d25780631f931c1c146105f057806326a49e371461058e5780632a55205a1461060b5780632eb2c2d61461064e57600080fd5b80630d112049116104515780630d112049146105525780630e89341c1461056d57806313ba55df1461058e578063156e29f6146105a957806318f9b023146105b757600080fd5b8062fdd58e1461048d57806301ffc9a7146104c357806305b4d1d6146104f457806306fdde03146105155780630bf93dcb14610532575b600080fd5b34801561049957600080fd5b506104b06104a8366004610b1a565b600092915050565b6040519081526020015b60405180910390f35b3480156104cf57600080fd5b506104e46104de366004610b5c565b50600090565b60405190151581526020016104ba565b34801561050057600080fd5b5061051361050f366004610b7e565b5050565b005b34801561052157600080fd5b5060605b6040516104ba9190610c00565b34801561053e57600080fd5b5061051361054d366004610c13565b505050565b34801561055e57600080fd5b5061051361050f366004610c46565b34801561057957600080fd5b50610525610588366004610c69565b50606090565b34801561059a57600080fd5b506104b06104de366004610c69565b61051361054d366004610c13565b3480156105c357600080fd5b5061051361050f366004610b1a565b3480156105de57600080fd5b506105136105ed366004610c82565b50565b3480156105fc57600080fd5b5061051361054d366004610dd0565b34801561061757600080fd5b5061062f610626366004610f70565b50600091829150565b604080516001600160a01b0390931683526020830191909152016104ba565b34801561065a57600080fd5b50610513610669366004610ff8565b5050505050565b34801561067c57600080fd5b5060005b6040516001600160a01b0390911681526020016104ba565b3480156106a457600080fd5b5061051361050f366004610f70565b3480156106bf57600080fd5b5060006104b0565b34801561051357600080fd5b3480156106df57600080fd5b506104b06104a83660046110a1565b3480156106fa57600080fd5b5061051361050f3660046110a1565b34801561071557600080fd5b5061051361050f366004611165565b34801561073057600080fd5b5061074761073f36600461120d565b606092915050565b6040516104ba9190611266565b34801561076057600080fd5b506104e46104de366004610c69565b34801561077b57600080fd5b5060605b6040516104ba91906112aa565b34801561079857600080fd5b5061051361054d3660046112eb565b3480156107b357600080fd5b5061051361054d366004611338565b3480156107ce57600080fd5b5060006104e4565b3480156107e257600080fd5b506107f1610588366004610c69565b6040516104ba9190611387565b34801561080a57600080fd5b506105136105ed366004610c69565b34801561082557600080fd5b506104b06104de3660046113df565b34801561084057600080fd5b5061077f610588366004610c69565b34801561085b57600080fd5b5061051361086a36600461141b565b50505050565b34801561087c57600080fd5b506104e46104a8366004610c46565b34801561089757600080fd5b5061051361050f366004611456565b3480156108b257600080fd5b5060606040516104ba91906114d7565b3480156108ce57600080fd5b50610747610588366004610c69565b3480156108e957600080fd5b50610747610588366004610c82565b34801561090457600080fd5b506106806104de366004610c69565b34801561091f57600080fd5b506104b06104de366004610c82565b34801561093a57600080fd5b5061051361050f366004611554565b34801561095557600080fd5b50610964610588366004610c82565b6040516104ba919061157e565b34801561097d57600080fd5b506104e46104de366004610c82565b34801561099857600080fd5b506109e36109a7366004610c69565b506040805160e0810182526000808252602082018190529181018290526060808201526080810182905260a0810182905260c081019190915290565b6040516104ba9190611591565b3480156109fc57600080fd5b506105136105ed366004611602565b348015610a1757600080fd5b5061051361054d366004611636565b348015610a3257600080fd5b506106806104de366004610b5c565b348015610a4d57600080fd5b5061051361054d36600461166d565b348015610a6857600080fd5b5061051361086a3660046116a2565b348015610a8357600080fd5b506104e46104a83660046110a1565b348015610a9e57600080fd5b506105136106693660046116e8565b348015610ab957600080fd5b506104e46104a8366004611165565b348015610ad457600080fd5b506104e46104de36600461174c565b348015610aef57600080fd5b5061051361086a3660046117fc565b919050565b80356001600160a01b0381168114610afe57600080fd5b60008060408385031215610b2d57600080fd5b610b3683610b03565b946020939093013593505050565b80356001600160e01b031981168114610afe57600080fd5b600060208284031215610b6e57600080fd5b610b7782610b44565b9392505050565b60008060408385031215610b9157600080fd5b823561ffff81168114610ba357600080fd5b9150610bb160208401610b03565b90509250929050565b6000815180845260005b81811015610be057602081850181015186830182015201610bc4565b506000602082860101526020601f19601f83011685010191505092915050565b602081526000610b776020830184610bba565b600080600060608486031215610c2857600080fd5b610c3184610b03565b95602085013595506040909401359392505050565b60008060408385031215610c5957600080fd5b82359150610bb160208401610b03565b600060208284031215610c7b57600080fd5b5035919050565b600060208284031215610c9457600080fd5b610b7782610b03565b634e487b7160e01b600052604160045260246000fd5b604051606081016001600160401b0381118282101715610cd557610cd5610c9d565b60405290565b60405160e081016001600160401b0381118282101715610cd557610cd5610c9d565b604051601f8201601f191681016001600160401b0381118282101715610d2557610d25610c9d565b604052919050565b60006001600160401b03821115610d4657610d46610c9d565b5060051b60200190565b803560ff81168114610afe57600080fd5b600082601f830112610d7257600080fd5b81356001600160401b03811115610d8b57610d8b610c9d565b610d9e601f8201601f1916602001610cfd565b818152846020838601011115610db357600080fd5b816020850160208301376000918101602001919091529392505050565b600080600060608486031215610de557600080fd5b6001600160401b038085351115610dfb57600080fd5b8435850186601f820112610e0e57600080fd5b610e20610e1b8235610d2d565b610cfd565b81358082526020808301929160051b84010189811115610e3f57600080fd5b602084015b81811015610f31578581351115610e5a57600080fd5b803585016060818d03601f19011215610e7257600080fd5b610e7a610cb3565b610e8660208301610b03565b8152610e9460408301610d50565b6020820152606082013588811115610eab57600080fd5b8083019250508c603f830112610ec057600080fd5b6020820135610ed1610e1b82610d2d565b81815260059190911b83016040019060208101908f831115610ef257600080fd5b6040850194505b82851015610f1b57610f0a85610b44565b825260209485019490910190610ef9565b6040840152505085525060209384019301610e44565b5050809650505050610f4560208601610b03565b9250604085013581811115610f5957600080fd5b610f6587828801610d61565b925050509250925092565b60008060408385031215610f8357600080fd5b50508035926020909101359150565b600082601f830112610fa357600080fd5b81356020610fb3610e1b83610d2d565b82815260059290921b84018101918181019086841115610fd257600080fd5b8286015b84811015610fed5780358352918301918301610fd6565b509695505050505050565b600080600080600060a0868803121561101057600080fd5b61101986610b03565b945061102760208701610b03565b935060408601356001600160401b038082111561104357600080fd5b61104f89838a01610f92565b9450606088013591508082111561106557600080fd5b61107189838a01610f92565b9350608088013591508082111561108757600080fd5b5061109488828901610d61565b9150509295509295909350565b600080604083850312156110b457600080fd5b610ba383610b03565b80358015158114610afe57600080fd5b600060e082840312156110df57600080fd5b6110e7610cdb565b9050813581526020820135602082015261110360408301610b03565b604082015260608201356001600160401b0381111561112157600080fd5b61112d84828501610d61565b60608301525061113f608083016110bd565b608082015260a082013560a082015261115a60c083016110bd565b60c082015292915050565b6000806040838503121561117857600080fd5b8235915060208301356001600160401b0381111561119557600080fd5b6111a1858286016110cd565b9150509250929050565b600082601f8301126111bc57600080fd5b813560206111cc610e1b83610d2d565b82815260059290921b840181019181810190868411156111eb57600080fd5b8286015b84811015610fed5761120081610b03565b83529183019183016111ef565b6000806040838503121561122057600080fd5b82356001600160401b038082111561123757600080fd5b611243868387016111ab565b9350602085013591508082111561125957600080fd5b506111a185828601610f92565b6020808252825182820181905260009190848201906040850190845b8181101561129e57835183529284019291840191600101611282565b50909695505050505050565b6020808252825182820181905260009190848201906040850190845b8181101561129e5783516001600160a01b0316835292840192918401916001016112c6565b60008060006060848603121561130057600080fd5b83356001600160401b0381111561131657600080fd5b61132286828701610f92565b9660208601359650604090950135949350505050565b60008060006060848603121561134d57600080fd5b8335925060208401356001600160401b0381111561136a57600080fd5b611376868287016111ab565b925050604084013590509250925092565b602080825282518282018190526000919060409081850190868401855b828110156113d257815180516001600160a01b031685528601518685015292840192908501906001016113a4565b5091979650505050505050565b6000602082840312156113f157600080fd5b81356001600160401b0381111561140757600080fd5b611413848285016110cd565b949350505050565b6000806000806080858703121561143157600080fd5b8435935061144160208601610b03565b93969395505050506040820135916060013590565b6000806040838503121561146957600080fd5b8235915060208301356001600160401b0381111561148657600080fd5b6111a1858286016111ab565b600081518084526020808501945080840160005b838110156114cc5781516001600160e01b031916875295820195908201906001016114a6565b509495945050505050565b60006020808301818452808551808352604092508286019150828160051b87010184880160005b8381101561154657888303603f19018552815180516001600160a01b0316845287015187840187905261153387850182611492565b95880195935050908601906001016114fe565b509098975050505050505050565b6000806040838503121561156757600080fd5b61157083610b03565b9150610bb1602084016110bd565b602081526000610b776020830184611492565b60208152815160208201526020820151604082015260018060a01b0360408301511660608201526000606083015160e060808401526115d4610100840182610bba565b90506080840151151560a084015260a084015160c084015260c0840151151560e08401528091505092915050565b60006020828403121561161457600080fd5b81356001600160401b0381111561162a57600080fd5b61141384828501610d61565b60008060006060848603121561164b57600080fd5b83356001600160401b0381111561166157600080fd5b611322868287016111ab565b60008060006060848603121561168257600080fd5b8335925061169260208501610b03565b9150604084013590509250925092565b600080600080608085870312156116b857600080fd5b6116c185610b03565b935060208501359250604085013591506116dd60608601610d50565b905092959194509250565b600080600080600060a0868803121561170057600080fd5b61170986610b03565b945061171760208701610b03565b9350604086013592506060860135915060808601356001600160401b0381111561174057600080fd5b61109488828901610d61565b6000602080838503121561175f57600080fd5b82356001600160401b038082111561177657600080fd5b818501915085601f83011261178a57600080fd5b8135611798610e1b82610d2d565b81815260059190911b830184019084810190888311156117b757600080fd5b8585015b838110156117ef578035858111156117d35760008081fd5b6117e18b89838a01016110cd565b8452509186019186016117bb565b5098975050505050505050565b6000806000806080858703121561181257600080fd5b8435935060208501356001600160401b0381111561182f57600080fd5b61183b878288016111ab565b94979496505050506040830135926060013591905056fea2646970667358221220363874c9d874fa8b86174610506722ad3e474b78cc11dd7e391eb45c3154acd064736f6c63430008140033",
    "linkReferences": {}
  },
  "methodIdentifiers": {
    "OPERATOR_FILTER_REGISTRY()": "41f43434",
    "__transitiveOwner()": "3344ca2e",
    "accountsByToken(uint256)": "6dcfd841",
    "addPayee(address,uint256)": "18f9b023",
    "addToAllowList(uint256,address)": "0d112049",
    "addToAllowList(uint256,address,uint256)": "d65795c3",
    "addToAllowList(uint256,address,uint256,uint256)": "6e09dd16",
    "addToAllowList(uint256,address[])": "79857c23",
    "addToAllowList(uint256,address[],uint256)": "59bd6ff4",
    "addToAllowList(uint256,address[],uint256,uint256)": "fef9cf9b",
    "allowList(uint256)": "62a6d197",
    "allowListContains(uint256,address)": "7958bc8c",
    "allowListEnabled(uint256)": "9c667626",
    "balanceOf(address,uint256)": "00fdd58e",
    "balanceOfBatch(address[],uint256[])": "4e1273f4",
    "batchCreate((uint256,uint256,address,string,bool,uint256,bool)[])": "fd699607",
    "batchCreate(uint256,(uint256,uint256,address,string,bool,uint256,bool))": "f2d80bd3",
    "burn(address,uint256,uint256)": "f5298aca",
    "contractURI()": "e8a3d485",
    "create((uint256,uint256,address,string,bool,uint256,bool))": "67b7b23f",
    "crossmintMint(address,uint256,uint256)": "6451f53d",
    "crossmintPackMint(address,uint256,uint256)": "0bf93dcb",
    "diamondCut((address,uint8,bytes4[])[],address,bytes)": "1f931c1c",
    "disableAllowList(uint256)": "666f198d",
    "enableAllowList(uint256)": "98ecc01a",
    "exists(uint256)": "4f558e79",
    "facetAddress(bytes4)": "cdffacc6",
    "facetAddresses()": "52ef6b2c",
    "facetFunctionSelectors(address)": "adfca15e",
    "facets()": "7a0ed627",
    "implementation()": "5c60da1b",
    "isApprovedForAll(address,address)": "e985e9c5",
    "maxSupply(uint256)": "869f7594",
    "mint(address,uint256,uint256)": "156e29f6",
    "mint(address,uint256,uint256,uint8)": "d6b96050",
    "mint(address[],uint256,uint256)": "be8c5922",
    "name()": "06fdde03",
    "owner()": "8da5cb5b",
    "packCreate(uint256[],uint256,uint256)": "5675a619",
    "packMint(address,uint256,uint256)": "66d94381",
    "packPrice(uint256)": "42f0f413",
    "packStartTime(uint256)": "bd0ae7d7",
    "packTokenIds(uint256)": "8560198b",
    "pause()": "8456cb59",
    "paused()": "5c975abb",
    "payee(uint256)": "8b83209b",
    "price(uint256)": "26a49e37",
    "releasable(address)": "a3f8eace",
    "releasable(address,address)": "c45ac050",
    "release(address)": "19165587",
    "release(address,address)": "48b75044",
    "released(address)": "9852595c",
    "released(address,address)": "406072a9",
    "removeFromAllowList(uint256,address)": "84207565",
    "removeFromAllowList(uint256,address[])": "afa71cb8",
    "royaltyInfo(uint256,uint256)": "2a55205a",
    "safeBatchTransferFrom(address,address,uint256[],uint256[],bytes)": "2eb2c2d6",
    "safeTransferFrom(address,address,uint256,uint256,bytes)": "f242432a",
    "setApprovalForAll(address,bool)": "a22cb465",
    "setDefaultRoyalty(uint16,address)": "05b4d1d6",
    "setDummyImplementation(address)": "c39aa07d",
    "setMaxSupply(uint256,uint256)": "37da577c",
    "setName(string)": "c47f0027",
    "setPrice(uint256,uint256)": "f7d97577",
    "setStartTime(uint256,uint256)": "ba278e08",
    "setSymbol(string)": "b84c8246",
    "setTokenData(uint256,(uint256,uint256,address,string,bool,uint256,bool))": "4acae91f",
    "shares(address)": "ce7c2ac2",
    "startTime(uint256)": "3ec4c968",
    "supportsInterface(bytes4)": "01ffc9a7",
    "symbol()": "95d89b41",
    "tokenData(uint256)": "b4b5b48f",
    "tokensByAccount(address)": "85bff2e7",
    "totalHolders(uint256)": "13ba55df",
    "totalReleased()": "e33b7de3",
    "totalReleased(address)": "d79779b2",
    "totalShares()": "3a98ef39",
    "totalSupply(uint256)": "bd85b039",
    "transferOwnership(address)": "f2fde38b",
    "unpause()": "3f4ba83a",
    "updatePaymentSplitterAddress(address)": "aeed04a6",
    "uri(uint256)": "0e89341c"
  },
  "id": 32
}